:020000040800F2
:1000000040140020D90000081D5E0008354E00088D
:1000100000000000000000000000000000000000E0
:100020000000000000000000000000005D5F00080C
:100030000000000000000000215E0008615F000871
:10004000EB000008EB000008DD5E0008EB00000894
:10005000EB000008EB000008EB000008EB000008D4
:1000600000000000050F0008150F0008250F00080C
:10007000D90C0008EB000008EB000008EB000008BA
:10008000EB000008EB000008896000080000000099
:10009000EB000008EB000008EB000008EB00000894
:1000A000EB000008EB000008EB000008B175000849
:1000B000C17600083952000800000000000000006E
:1000C0000448854600F050FD00480047E1880008DC
:1000D000C046C046401400200448804704480047FA
:1000E000FEE7FEE7FEE7FEE7FEE7FEE73D6000080D
:1000F000C100000830B50B46014600202022012433
:1001000009E00D46D5409D4205D31D469540491B4B
:100110002546954040191546521E002DF1DC30BD94
:1001200070B500242546002801DA01244042002948
:1001300001DA01254942FFF7DDFFAC4200D0404221
:10014000002C00D0494270BDF0B51FB40646002017
:1001500082B005464024019100901BE0019922469F
:100160000F46304600F0FCFA049A059B801A99412C
:1001700010D310461946224600F0E2FA361A8F4193
:100180000197224601200021009F00F0D9FA38187B
:100190004D4100902046641E0028DFDC019B009842
:1001A0002946324607B0F0BD03460B439B0703D0F8
:1001B00009E008C9121F08C0042AFAD203E00B782C
:1001C0000370401C491C521EF9D27047D2B201E0A4
:1001D0000270401C491EFBD270470022F6E710B5A2
:1001E00013460A4604461946FFF7F0FF204610BDA5
:1001F00030B505462A460B4610781C78521C5B1C0D
:10020000002801D0A042F7D0002C03D0002802D053
:100210006D1CEFE7284630BD10B5044605E00B78AD
:100220000370401C002B00D0491C521EF7D2204600
:1002300010BD03460A780270401C491C002AF9D1FF
:100240001846704770B5104D002800D1286800246A
:1002500014E00A4602E09E4203D0521C1378002BA1
:10026000F9D1DAB2224307D0002B06D0002C04D0FB
:1002700000210170401C04E00446401C0678002E5A
:10028000E7D12860204670BDB401002070B5064655
:1002900007F07CFB046805460A220021304600F086
:1002A00071FA2C6070BDF8B502464A40D40F420086
:1002B0004B0052085B089A4202D202460846114699
:1002C0004A0023D0C30D4A00DDB2120EAD1A202D14
:1002D00035DA49020126490AF6058A19002C00D0B0
:1002E000524220214F1B1146B9402A411018C20D1D
:1002F0009A4221D0002C17D0012D08DCDA05801A93
:10030000D20F8019D207DBB200F07CFAF8BDDA0513
:10031000801A012340001B06C01880185A4280181A
:10032000CA0F1043490007E04908C2071143DA0524
:10033000801A80194008801800F05CFAF8BD61004E
:100340000122511A001BF7E70122D2075140AAE708
:100350000122D2075040A6E7024670B54A40D30FAB
:10036000DB0740002DD04A002AD0010E140E0002F7
:1003700012020919400A520A8418E501044654433E
:10038000000A120A2E045043A4194219200CC54336
:10039000AA18120C0125AD03521C521912047F3900
:1003A000240400D0521C104301D44000491EC2B2A4
:1003B0000C06C0092018401C4008802A02D003E027
:1003C000002070BD40084000002900DA00201843DA
:1003D00070BD70B502464A40D50F40004A00ED0797
:1003E00040085208002814D0002A12D0C40DD30DA2
:1003F00041020120C0055202490A520AE41A0918B2
:1004000012187D34914201D3641C00E04900002C95
:1004100001DA002070BD0023914201D3891A034301
:10042000400849000028F7D100290AD0914202D1A2
:100430000121C90705E0914201D2012101E001211A
:10044000C943E005C018401900F0D4F970BD0000A0
:10045000F0B51FB488B00B99099800244840099959
:10046000C00F490049080991C0070B990090490045
:1004700049080B9109990898A64608431CD00B9986
:100480000A98084318D0099801244000420D4800FA
:10049000410D099824050003000B204309900B9897
:1004A0000003000B20430B9050181C4940180022F9
:1004B00001901446104605E0002001460DB0F0BD45
:1004C000032801DA034600E003239C46C11A0AAE62
:1004D0000AE05F0008ADED5B4F00F75B7D4300274E
:1004E000AA187C41491C5B1E6145F2DD410004AB4A
:1004F0005A522104120C0A43240C401C0828DFDB4A
:10050000019802900099704601910090059B049A11
:100510000799069800F0BCF9D0E700000DFCFFFF3A
:10052000F0B50C465C4085B0E40FE40703944C0042
:100530000026640859009446490802460296224360
:1005400021D062460A431ED06200570D4A000E03B6
:100550002303550D012402462C492405781B1B0B4F
:10056000360B401823432643614600901C46501A20
:10057000B44103D30098401C009002E09218009808
:100580005B41002803DA0020014605B0F0BD0020E1
:10059000012109050746864611E064461D46141BE5
:1005A000B54106D36546521BB341744607430C431D
:1005B000A646CD0740084908284392185B410546E6
:1005C0000D43EAD11046184313D0604619465040F7
:1005D0007140084306D06046101AB34106D201228A
:1005E000002306E000220123DB0702E00122D243C0
:1005F0005310009874460105381C6141029C039D0C
:100600000019694100F037F9BFE70000FD03000061
:100610000EB5C217C10F5040CA0740180021054B44
:100620000293019200910A460B4600F031F903B0A3
:1006300000BD0000330400000EB505490291002101
:1006400000910A460B46019100F022F903B000BD6B
:1006500033040000410040020122400AD205090E85
:1006600080187F2901DA00207047962903DC962242
:10067000511AC84070479639884070474A000903AC
:100680000123090B1B051943094B10B5520D9A4262
:1006900001DA002010BD064B34339A4203DC9A1A6B
:1006A00000F05EF810BD03495118884010BD0000ED
:1006B000FF030000CDFBFFFFC20FD2074000400840
:1006C0000BD0C10D0723DB01C91840020905400A00
:1006D0001143C2084007114370470020014670478C
:1006E000CB0FDB07490010B5490802460A4307D083
:1006F0000A0D07240903E401090B121B002A01DC7F
:10070000002010BDC900440F0C43C100E018D20501
:10071000801800F06FF810BD0122D207002800DB1E
:10072000101A002900DB511A814270470122D207BA
:10073000002800DB101A002900DB511A884270479C
:1007400010B5202A04DB0146203A9140002010BD5C
:10075000914020239C1A0346E3401943904010BD6A
:1007600010B5202A04DB0846203AD040002110BDF5
:100770000B46D340D0402024A21A9140084319468A
:1007800010BD0000F7B5009C0F4600262578641CBC
:10079000002D05D000F00EFA0068405DC007F5D1CD
:1007A0002B2D02D02D2D18D0641E39462046029ADA
:1007B00000F004FA002F04D03968A14201D1009959
:1007C00039607105022400290BDA4042002803DD5C
:1007D00007F0DCF80460A007FEBD0120800206439C
:1007E000E3E70028F8DA07F0D1F804600048FEBD1E
:1007F000FFFFFF7F002904DA401C490001D14008B7
:100800004000704770B40024050C05D1102400048A
:1008100002D1002921D01124050E01D10002083493
:10082000050F01D10001241D850F01D18000A41CFA
:10083000002801DB4000641C002908D020252E1B65
:100840000D46F540A14000D001212943084301068F
:100850001B1B000ADB1D02D5002070BC7047DB05A6
:10086000181880180029F8DA401C4900F5D170BC2E
:1008700040084000704710B5002B08DA0024401CE7
:10088000614192185B411A4301D14008400010BDFC
:10089000F0B51FB482B005460C0003D0084606F040
:1008A000E1FF02E006F0DEFF203002460090214624
:1008B0002846FFF745FF049B059A04460F46184358
:1008C0001143084314D0184610431BD00098402110
:1008D0000A1A18460599FFF743FF05460E46009A87
:1008E00005990498FFF72CFF084305D0012004E088
:1008F0002046394607B0F0BD0020C11705430E431E
:100900002C43374300990E986305401A7905E40A91
:1009100000220C43FD0A0A3002D500200146E9E717
:100920000105101969410C9C0D9D00196941FFF7E3
:10093000A2FFDFE7F0B507460846584087B0C00F72
:10094000049048000E46590040084908BC1A8841E6
:1009500005D2384631461E4617460B460246580019
:10096000400810434DD0300D039040055900400D14
:10097000490D0590401A0290402873DA18030121AE
:10098000000B09050843019004980092002806D046
:100990001146019A4942002090410091019002982D
:1009A00040210A1A01990098FFF7CAFE05460C4635
:1009B0006B4607CB00F0EAF8C0197141039A0E0D9F
:1009C0000023D71756401A467A40164344D0049A5B
:1009D000002A2DD0029A012A039A15DC1205C01AAA
:1009E000914101263605001C7141D20F059ED207A8
:1009F0000093019202962A462346FFF749FF07B06B
:100A0000F0BD38463146FAE71605234A0F46B218BC
:100A1000C01AB74101210905001C4F4100187F4150
:100A2000114618187941E20F10436D19644113E023
:100A3000E2076D0815436408C2071443039A0126B0
:100A40001205C01A91413605001C7141CE074008BD
:100A500030434908C01851412A462346FFF70BFF8F
:100A6000CDE7FFE7049801224000C117121A0023C6
:100A70008B4104983146C417381AA141EEE730B4CF
:100A80000124E407634030BC54E730B40124E40798
:100A9000614030BC4EE700000000E0FFF8B50546BD
:100AA000480040080C46284304D06000184A400D16
:100AB000904201DD2846F8BD15493539884210DCE1
:100AC00088420BDB290D200308432903014305D08D
:100AD000E00F1049C00741180020F8BD0020014672
:100AE000F8BD161A4020821B28462146FFF728FE33
:100AF00007460091284621463246FFF731FE3A4626
:100B0000009BFFF7B8FE3246FFF71AFEF8BD000063
:100B1000330400000000F03F10B5002904DB01247D
:100B2000E40740428C412146002B04DB1C46012394
:100B3000DB075242A3418B4200D1824210BD00002C
:100B400010B5002904DB0124E40740428C41214612
:100B5000002B04DB1C460123DB075242A3419942D0
:100B600000D1904210BD0000064C0125064E05E064
:100B7000E36807CC2B430C3C98471034B442F7D3BE
:100B8000FFF7A2FA9C940008BC94000810B5202A34
:100B900006DBCB170846203A1041C1170B4306E08D
:100BA0000B461341D0402024A21A91400843194615
:100BB00010BD00000048704798940008F7B582B057
:100BC000029C00272078641C15460197302802D02B
:100BD000002D15D015E020780127641C782804D05A
:100BE000582802D0002D09D00BE0002D01D0102D87
:100BF00007D1002710252078641C02E0082500E0BA
:100C00000A250026009610E000990127694308187C
:100C1000020C294680B2714300908E183804864237
:100C200001D3012001902078641C294600F019F8B6
:100C30000028E9DA0398002805D0002F01D0641EAF
:100C400000E0029C04600198002806D006F09EFE99
:100C500002210160C81E05B0F0BD009930040843B0
:100C6000F9E73A2800D23038202302469A43412A35
:100C700001D310463738884201D30020C043704763
:100C800070B58C180578401C6B075B0F01D1037899
:100C9000401C2A1106D10278401C03E006780E7031
:100CA000401C491C5B1EF9D12B0705D40023521EA2
:100CB0000DD40B70491CFAE70378401CCB1A921C28
:100CC00003E01D780D70491C5B1C521EF9D5A14232
:100CD000D8D3002070BD000010B5024800F0A4FD7C
:100CE00010BD0000E004002070B50546AC6A606DE0
:100CF00050210840002836D1606D01214902084387
:100D000060652068C068032189020840002826D158
:100D10002020005D002822D12068006808210840BA
:100D200008281CD120688068042108408008002819
:100D30000DD1206840680C21884321684860606DAF
:100D4000FF210131884301210843606507E0606DA0
:100D5000202108436065A06D01210843A06520465D
:100D600000F05AFD03E0E06C416B2846884770BDF7
:100D700070B50546AC6A606D402108436065A06DA2
:100D800004210843A065204600F04DFD70BD70B5FC
:100D90000446A56A284600F045FD70BD38B50446F6
:100DA000074908480068FFF7A5F96043009002E092
:100DB0000098401E009000980028F9D138BD00002E
:100DC00040420F00B001002070B5044600252068A5
:100DD00080688007800F012807D120680068C0075D
:100DE000C00F002801D0012000E00020002842D1DF
:100DF0002068806821490840002801D1012000E0D6
:100E00000020002809D1606D102108436065A06DA5
:100E100001210843A065012070BD20688068012180
:100E20000843216888600120FFF7B8FF01F07AFAD3
:100E3000054617E001F076FA401B0A2812D920680F
:100E40000068C007C00F012148404840002809D170
:100E5000606D102108436065A06D01210843A06505
:100E60000120D9E720680068C007C00F0121484071
:100E700048400028DED00020CEE7000017000080A8
:100E800010B50021044800F0CDFBC82203490248F8
:100E900000F0D8FE10BD0000E0040020C0010020DA
:100EA0000FB410B500220421144801F034FA0122D5
:100EB00011460520000701F02EFA012210211048EA
:100EC00001F029FA6846007A002805D00122510273
:100ED0000B4801F020FA05E00022012149020848F0
:100EE00001F019FA6846807AC000C83001218907EC
:100EF000886310BC08BC04B0184700000004005010
:100F00000008005010B5024800F059FF10BD000065
:100F10003C05002010B5024800F051FF10BD000054
:100F2000200C002010B5024800F049FF10BD000061
:100F3000680C002030B51C25446C2C400125A540D0
:100F4000046C6560046863608468102C04D10468D4
:100F5000A2600468E16003E00468A1600468E260E4
:100F600030BD000000B58BB00022FF21013105200B
:100F7000000701F0D0F9002210210520000701F040
:100F8000CAF9002201210903964801F0C4F9FF20A3
:100F9000F53001F03BF8012210210520000701F097
:100FA000BAF91920400101F031F800221021052082
:100FB000000701F0B0F97D20C00001F027F805F02E
:100FC00019FD02E0642001F021F87D23DB0086A2F8
:100FD00086A1884806F033FF0028F3D102E06420A0
:100FE00001F014F87D23DB007FA283A1814806F085
:100FF00026FF0028F3D103E07D20C00001F006F8B1
:101000007D23DB0078A27FA17A4806F018FF002834
:10101000F2D103E07D20C00000F0F8FF7D23DB006B
:101020007AA27CA1734806F00AFF0028F2D102E000
:10103000642000F0EBFF7D23DB0079A27BA16D48EB
:1010400006F0FDFE0028F3D102E0642000F0DEFF90
:101050007D231B0178A279A1664806F0F0FE0028E6
:10106000F3D102E0642000F0D1FF7D23DB005EA21B
:1010700075A1604806F0E3FE0028F3D102E0642089
:1010800000F0C4FF7D23DB0057A272A1594806F08F
:10109000D6FE0028F3D104E0FF212D317448FFF77C
:1010A0009CF87D23DB0050A272A1524806F0C7FED7
:1010B0000028F1D17748784A78A103686C4806F097
:1010C000BDFB7C49088002E0642000F09FFF7D2387
:1010D000DB0079A26649474806F0B1FE0028F3D14B
:1010E000FF212D316248FFF778F87748774B784A2F
:1010F00078A100905E4806F0A1FB6E49088002E0EE
:10110000C82000F083FF7D23DB007AA258493948CC
:1011100006F095FE0028F3D1FF212D315448FFF74A
:101120005CF8784A78A1524806F088FB614908804B
:1011300002E0642000F06AFF7D23DB0078A24C49C6
:101140002C4806F07CFE0028F3D101207949087074
:1011500079A006F063FB642000F058FF04F0C6FE9F
:1011600000F0E0F907F02AFEFF212D317748FFF764
:1011700034F87748807876494978754A1278754B03
:101180009B780793089209910A90724840787149B8
:10119000C9784F4A283A92694D4B283BDB78039334
:1011A0000492059106904A482838807848492839A1
:1011B0004978474A283A12780092019102904448AF
:1011C0002838838A424A64A1604806F037FB3949CF
:1011D0000880084601885D4804F0A2F905F00AFC81
:1011E0000BB000BD000800504F4B000041540D0AE9
:1011F000000000003401002041542B4347534E0DA2
:101200000A000000415445300D0A00005245414497
:101210005900000041542B4350494E3F0D0A000035
:101220002B43474154543A203100000041542B4392
:10123000474154543F0D0A00302C310041542B4398
:101240005245473F0D0A000041542B4353510D0AAC
:101250000000000041542B514D544346473D22713C
:101260006D7470696E67222C302C33300D0A0000CB
:101270007C0D002041542B514D544346473D227272
:101280006563762F6D6F6465222C302C302C310D08
:101290000A000000700000203900002041542B514A
:1012A0004D544F50454E3D302C222573222C256441
:1012B0000D0A0000320100202B514D544F50454E75
:1012C0003A20302C300000009C00002088000020D4
:1012D000FC0F002041542B514D54434F4E4E3D3096
:1012E0002C222573222C222573222C222573220DD9
:1012F0000A0000002B514D54434F4E4E3A20302CE3
:10130000302C30000001002041542B514D545355D6
:10131000423D302C312C222573222C300D0A000046
:101320002B514D545355423A20302C312C302C3017
:1013300000000000380000204543323020496E692B
:10134000742046696E6973680D0A0000A80E0020BB
:10135000B00C00202400002042352C25732C25647D
:101360002C25642C25642C25642C25642C25642CC8
:1013700025642F25642F25642D25643A25643A259C
:101380006400000072B600BFFEE70000002039498B
:101390008969FF2201321140914208D136494969D9
:1013A00002221143344A5161FF210131084331497E
:1013B0008969012252021140914208D12E4949699E
:1013C000012211432C4A5161012149020843294954
:1013D0008969012292021140914208D12649496946
:1013E00008221143244A51610121890208432149FD
:1013F00089690122D2021140914208D11E494969EE
:10140000042211431C4A51610121C90208431949B0
:101410008969012252031140914208D11649496954
:1014200010221143144A5161012149030843114913
:101430008969012252041140914207D10E4949693C
:10144000202211430C4A516120210843094989692E
:10145000012212041140914208D1074949694022F2
:101460001143054A5161012109040843014988617A
:1014700070470000002002402410002070B5044690
:1014800000F050FF05460BE0601C002808D0002C3F
:1014900004D000F047FF401BA04201D9032070BDDB
:1014A0001F488069C007C00F0028EDD11C48806923
:1014B00002210840022801D1194988611848806931
:1014C000FF2101310840884223D015488069490036
:1014D000084088421DD0124880694900084088426F
:1014E00017D00F48806949000840884211D00C4845
:1014F00080698900084088420BD009488069090149
:101500000840884205D00648806949100840884252
:1015100003D1FFF73BFF0120C1E70020BFE7000038
:101520000020024010B52F480078012858D1002033
:101530002C490870002451E000202B4908802B49D9
:101540000860401E2A490880002031E08100091906
:101550008900284A5158254A12688918234A11607F
:10156000810009198900234A51581F4A1288914263
:1015700002D21D49098804E08100091989001D4A29
:101580005158194A1180810009198900194A515886
:10159000174A1288914202D91549098804E081004E
:1015A00009198900134A5158114A1180411C88B207
:1015B0003228CBDB0D4909680B4A1288891A0C4A7C
:1015C0001288881A3021FEF795FD0B494843000127
:1015D000000C6100094A5052601CC4B2042CABDB01
:1015E00010BD0000000000200200002008000020C4
:1015F00004000020C0010020E40C00000C000020CA
:1016000010B504460122D103054800F084FE2046AF
:1016100004F016FD03F060FF06F0BCF810BD0000FA
:1016200000040050F8B5044600250026002700BF3E
:101630005020005D012801D10220F8BD0121502079
:10164000015500BF206880688007800F012806D1FF
:10165000206800680840002801D0012000E0002038
:10166000002849D1606DFF210131884302210843E0
:1016700060652068C0688707BF0F2068C068800861
:1016800080002168C860206880680121C90708437C
:101690002168886000F046FE064619E000F042FE30
:1016A000801B0A2814D920688068C00FC007012158
:1016B000C90788420CD1606D02218843102108437C
:1016C000606500BF00215020015500BF0120B4E734
:1016D00020688068C00FC0070121C9078842DDD09B
:1016E0002068C06838432168C860606D0221884363
:1016F00001210843606504E0606D202108436065B6
:10170000012500BF00215020015500BF284694E765
:1017100070B504460D4600BF5020005D012801D180
:10172000022070BD01215020015500BF2068806853
:1017300004210840800800280AD0606D2021084359
:10174000606500BF00215020015500BF0120E8E77F
:101750002D496868884229D02068806A2968490331
:10176000490B08432168886228684003400B2749D9
:10177000084001218904884208D125488068490130
:101780000843234988600A20FFF708FB28684003C4
:10179000400B204908400121490488422CD11C48B3
:1017A0008068490108431A49886025E02068806AFA
:1017B00029684903490B88432168886228684003E7
:1017C000400B1249084001218904884205D1104884
:1017D0008068490188430E49886028684003400BAF
:1017E0000C49084001214904884205D10848806815
:1017F000490188430649886000BF002150200155F7
:1018000000BF00208DE70000011000000000044828
:1018100000270140000002440121014A1170704775
:10182000000000207047704770B5044620680568C6
:101830002068466804202840042802D1304004284B
:1018400006D008202840082840D1304008283DD143
:10185000606D10210840002803D1606D49010843E4
:1018600060652068C068032189020840002824D1EF
:101870002020005D002820D10820284008281CD105
:101880002068806804210840800800280DD1206865
:1018900040680C21884321684860606DFF21013158
:1018A000884301210843606507E0606D20210843FB
:1018B0006065A06D01210843A0652046FFF7ACFFDD
:1018C000A069012802D00C202168086080202840EF
:1018D00080280DD1304080280AD1606D0121090493
:1018E00008436065204600F03FF9802021680860C9
:1018F00010202840102818D13040102815D1206B16
:10190000002805D02068C068C007C00F002809D093
:10191000A06D02210843A0651020216808602046C0
:10192000FFF781FF10202168086070BD10B50446E4
:10193000002C01D1012010BD606D002806D1A065EA
:10194000002150200155204600F010F9606D102153
:101950000840102806D020688068042108408008CC
:1019600000280AD0606D10210843606500BF002187
:101970005020015500BF0120DDE7606DFF210131DE
:101980008843022108436065206880688007800FD3
:10199000012807D120680068C007C00F002801D0C7
:1019A000012000E0002000283AD100BF0321890770
:1019B0006068884207D049426068884203D0490085
:1019C000606888420CD12068006980008008216826
:1019D000086120680069616808432168086112E0B5
:1019E0002068006980008008216808615C48806880
:1019F0000F21890488435A498860084680686168D5
:101A000008435749886000BF2068C0681821884390
:101A10002168C8602068C068A16808432168C86060
:101A20004F4880680121490688434D49886008462F
:101A30008068A18E4906084349498860206880680B
:101A4000012109070840002804D120688068084364
:101A5000216888602068C068424908402168C860E1
:101A60002169E068022901D1042100E00021084336
:101A70002021095D490308432C21095D49000843E1
:101A8000216B0843A16989030843E169C90308433D
:101A90002168C96808432168C860FF21C231606AB3
:101AA000884207D0A16A606A08432168C968084370
:101AB0002168C8602120005D012813D12020005D2D
:101AC000002807D12068C068012109040843216863
:101AD000C86007E0606D202108436065A06D0121AA
:101AE0000843A065E06B012817D120680069FF2139
:101AF0008900884321680861216C606C0843A16CEF
:101B00000843216809690843216808612068006961
:101B100001210843216808610BE020680069C007C3
:101B2000C00F002805D020680069400840002168E7
:101B3000086120684069C008C000216848612068C9
:101B40004069A16B0843216848610020A065606D71
:101B5000022188430121084360650020EBE6000074
:101B6000002701401902FEFF7047000010B586B043
:101B70000446142101A8FEF730FB2C492068884256
:101B800052D12B48406B491508432949486300BF8F
:101B90000846C06A042108432549C8620846C06A4D
:101BA00004210840009000BF00BF00BF2048C06A69
:101BB000022108431E49C8620846C06A0221084043
:101BC000009000BF00BF242001900320029000205D
:101BD000039001A9174800F095FA032001900290A4
:101BE0000020039001A9144800F08CFA134814490E
:101BF000086000204860002111488160C160802198
:101C0000016149004161C90081612021C161002158
:101C1000016200F059F9002801D0FFF7B3FB00BFC3
:101C20000748E064846200BF06B010BD0024014094
:101C3000001002400008005000040050080002405C
:101C40003C050020F8B504460D46164600272068DE
:101C50008068042108408008002847D100BF502038
:101C6000005D012801D10220F8BD0121502001555D
:101C700000BF2068C06808432168C860E069012887
:101C800003D02046FFF7A0F80746002F2FD1606D44
:101C900018490840FF210131084360650020A06514
:101CA00000BF00215020015500BF1348E16CC862FD
:101CB0001248E16C08631248E16C48631C202168FB
:101CC0000860206840681021084321684860226845
:101CD0001146403133462A46E06C00F049F920684D
:101CE0008068042108432168886000E002273846A4
:101CF000BAE70000FEF1FFFFE90C00088F0D0008B5
:101D0000710D0008014600222520405C022808D001
:101D10000420C86300BF00232420435400BF0120D7
:101D20007047086800680E2398430B6818600868BD
:101D30000068400840000B6818601C23486C18407D
:101D400001238340086C436001232520435400BFD6
:101D500000232420435400BF1046E1E770B5044639
:101D600000252520005D022803D00420E063012522
:101D700020E0206800680E21884321680860206800
:101D8000006840084000216808601C21606C084021
:101D900001218140206C416001212520015500BFB7
:101DA00000212420015500BFA06B002802D020464E
:101DB000A16B8847284670BD0146C86B704770B557
:101DC0000446206C0568206806681C20616C014090
:101DD00004208840284000281DD0042030400028DE
:101DE00019D02068006820210840002805D120680B
:101DF000006804218843216808601C21606C084049
:101E000004218140206C4160206B00285AD020467C
:101E1000216B884756E01C20616C014002208840FD
:101E20002840002825D002203040002821D02068FA
:101E3000006820210840002808D1206800680A2195
:101E40008843216808600121252001551C21606C10
:101E5000084002218140206C416000BF0021242005
:101E6000015500BFE06A00282CD02046E16A88476F
:101E700028E01C20616C0140082088402840002890
:101E800020D00820304000281CD0206800680E2197
:101E90008843216808601C21606C08400121814052
:101EA000206C41600120E06301212520015500BF25
:101EB00000212420015500BF606B002802D020467D
:101EC000616B884770BD000070B50446002C01D1DD
:101ED000012070BD244A2168881A1421FEF70AF9EE
:101EE00080006064204808382064022125200155C4
:101EF000206805681D480540E168A068084321691D
:101F0000084361690843A1690843E1690843216AFC
:101F1000084305432068056001218903A0688842C1
:101F200017D011487830806A1C22616C11400F2252
:101F30008A4090430C49783188621C22616C1140C0
:101F40006068884008497831896A084306497831D1
:101F500088620020E0630121252001550021242012
:101F600001550020B5E70000080002400F80FFFF88
:101F7000F8B504460D4616461F460020009000BFE7
:101F80002420005D012801D10220F8BD0121242078
:101F9000015500BF2520005D01282DD102212520FB
:101FA00001550020E0632068006840084000216877
:101FB00008603B46324629462046FEF7BBFF206BB1
:101FC000002806D0206800680E21084321680860B8
:101FD0000BE02068006804218843216808602068BD
:101FE00000680A2108432168086020680068012110
:101FF00008432168086006E000BF00212420015545
:1020000000BF022000900098BFE7000070B50446B2
:1020100000F088F906462546681C002802D00548CD
:1020200000782D1800BF00F07DF9801BA842FAD37C
:1020300070BD0000AC010020034840680121084346
:10204000014948600020704700200240F8B504466E
:102050000D461646012700BF1548007C012801D116
:102060000220F8BD01201249087400BF1148FFF793
:1020700005FA0746002F14D10D494861022C01D101
:102080002E6008E0012C01D12E8004E0002C01D14B
:102090002E7000E00127002F03D10648FFF7EEF96C
:1020A000074600BF00200249087400BF3846D8E741
:1020B0002410002050C300000F484068C007C00F24
:1020C000002816D000BFEFF31080014600BF72B6A3
:1020D0000A48094AD0600A48D06000BF81F31088DE
:1020E00000BF10464068C007C00F002801D0012083
:1020F00070470020FCE7000000200240EFCDAB89D4
:102100000504030270B502460B460021002400209E
:10211000E1E001268E401D6835402C46002C79D028
:102120001D79AD07AD0F012D04D01D79AD07AD0FA1
:10213000022D18D190684E000325B5400646AE43E7
:1021400030464E00DD68B540284390605068012558
:102150008D400646AE43304610265D6835402D0959
:102160008D40284350601D79AD07AD0F032D0BD076
:10217000D0684E000325B5400646AE4330464E00BB
:102180009D68B5402843D0601D79AD07AD0F022D85
:1021900015D1CD08AE0015462035A8594D07EE0ED5
:1021A0000F25B5400646AE4330464E07F60E1D6974
:1021B000B5402843CD08AD00164620367051106852
:1021C0004E000325B5400646AE4330461D79AD07A7
:1021D000AD0F4E00B54028431060032636045D68FD
:1021E0003540002D76D03F4D6D6B012635433D4E79
:1021F00075633D4D8E08B600A8598D072E0F0F252B
:10220000B5400646AE43304605252D07AA4202D109
:1022100000251AE05EE0354DAA4201D1012514E007
:10222000334DAA4201D102250FE0324DAA4201D11D
:1022300003250AE0304DAA4201D1042505E02F4DC7
:10224000AA4201D1052500E006258E07360FB540CC
:102250002843254D8E08B600A851294DA86805468B
:10226000A5432846012636055D683540002D02D07D
:10227000054625432846224DA860E8680546A54343
:102280002846012676055D683540002D02D00546BA
:10229000254328461A4DE86068680546A543284648
:1022A000012676045D683540002D02D005462543A1
:1022B0002846134D686028680546A5432846012630
:1022C00036045D683540002D02D00546254328467A
:1022D0000B4D2860491C1D68CD40002D00D018E72B
:1022E00070BD0000001002400800014000040050D2
:1022F00000080050000C005000100050001C00505E
:1023000000040140024613690B40002B01D001205C
:1023100000E000207047002A01D0816100E0816266
:10232000704700000148006870470000A4010020C9
:1023300002464120805C20282FD100BF4020805CD5
:10234000012801D10220704701234020835400BF9F
:10235000242341208354106800684008400013681B
:1023600018601068006801231B0398431368186005
:10237000106800680843136818601068006801233B
:1023800018431368186020234120835400BF0023A2
:102390004020835400BF0020D5E70220D3E710B5CA
:1023A00002460B464120805C20282ED100BF4020F1
:1023B000805C012801D1022010BD012440208454FA
:1023C00000BF242441208454106800684008400065
:1023D00014682060106801680F2424020846A04396
:1023E000014618020143106801601068006801246A
:1023F00020431468206020244120845400BF00241E
:102400004020845400BF0020D6E70220D4E700001B
:1024100010B50446002C01D1012010BD4120005D03
:10242000002805D1002140200155204600F0A2FAE5
:10243000242141200155206800684008400021689F
:1024400008600F21090660688843216808612068D8
:1024500080680121C903884321688860E0680128F9
:1024600006D10121C903A06808432168886005E0FE
:1024700021218902A068084321688860E068022859
:1024800002D18002216848602068406814490843EE
:10249000216848602068C0680121C9038843216819
:1024A000C860616920690843A1690902084321687D
:1024B000C860216AE06908432168086020680068F4
:1024C0000121084321680860002060642021412028
:1024D00001550020206300214220015500209CE787
:1024E00000800002FFB585B004460F461E4600205E
:1024F00004904120005D20287ED120688069012160
:10250000C9030840C00B002802D0022009B0F0BD6A
:1025100000BF4020005D012801D10220F6E7012123
:102520004020015500BF2421412001550020606456
:1025300000BFE068012809D1B805800D01214903D9
:10254000401809034018C91388430AE0B805800DF4
:102550000121C90240188900401809034018C91315
:10256000884321684860FFF7DDFE054620688069E2
:10257000202108404009039020688069102108400C
:102580000009029022E0701C002813D0FFF7CAFE59
:10259000401BB04201D8002E0CD120214120015512
:1025A000606C0843606400BF00214020015500BFFB
:1025B0000120ABE720688069202108404009039092
:1025C00020688069102108400009029003980028C3
:1025D00002D102980028D6D02068806910210840D6
:1025E0000009002819D133460022202120460095F9
:1025F00002F016FD002800E04EE001D0012085E742
:1026000020202168C86120214120015500BF002100
:102610004020015500BF002078E7334600222021EA
:102620002046009502F0FCFC002801D001206DE757
:1026300010202168C86120202168C861049907988A
:10264000814214D120684068012189030843216830
:1026500048603346002220212046009502F0E0FC2D
:10266000002801D0012051E720202168C86104988A
:10267000401C049004990798814200D259E7202118
:1026800041200155606C0843606400BF0021402078
:10269000015500BF012039E7022037E7FFB581B0BF
:1026A000044616461F464120005D202877D100BF12
:1026B0004020005D012802D1022005B0F0BD0121BB
:1026C0004020015500BFFFF72DFE054619230122CA
:1026D000D1032046009502F0A3FC002801D0012080
:1026E000EBE7222141200155102142200155002015
:1026F0006064666267856063608DFF280BD9FF2088
:1027000020853F480090208DC2B20B0520460299DB
:1027100002F068FC0BE0608D208539480090208D28
:10272000C2B201235B062046029902F05BFC43E043
:102730002A4620460A9902F0A9FC002801D001206F
:10274000BBE72068406A616A0870606A401C60628A
:10275000208D401E2085608D401E6085608D002884
:102760002AD0208D002827D10095002280212046E4
:102770000A9B02F055FC002801D001209DE7608DE6
:10278000FF280DD9FF20208500200090208DC2B2A7
:1027900001231B062046029902F024FC0CE02CE0E9
:1027A000608D208500200090208DC2B201235B0641
:1027B0002046029902F016FC608D0028B8D12A4606
:1027C00020460A9902F0CEFC002801D0012074E7CF
:1027D00020202168C861206840680A4908402168B3
:1027E000486020214120015500214220015500BFB1
:1027F0004020015500BF00205FE702205DE7000098
:102800000024008000E800FEFFB581B004461646B3
:102810001F464120005D202877D100BF4020005D89
:10282000012802D1022005B0F0BD01214020015550
:1028300000BFFFF777FD054619230122D10320468B
:10284000009502F0EDFB002801D00120EBE72121EB
:10285000412001551021422001550020606466622C
:1028600067856063608DFF280BD9FF2020853F4876
:102870000090208DC2B20B052046029902F0B2FBF7
:102880000BE0608D208539480090208DC2B2012375
:102890005B062046029902F0A5FB43E02A4620464B
:1028A0000A9902F092FC002801D00120BBE7606A7F
:1028B000007821688862606A401C6062608D401EFA
:1028C0006085208D401E2085608D00282AD0208DB7
:1028D000002827D100950022802120460A9B02F083
:1028E0009FFB002801D001209DE7608DFF280DD9B6
:1028F000FF20208500200090208DC2B201231B06FE
:102900002046029902F06EFB0CE02CE0608D2085E1
:1029100000200090208DC2B201235B062046029960
:1029200002F060FB608D0028B8D12A4620460A9943
:1029300002F018FC002801D0012074E72020216853
:10294000C861206840680A49084021684860202121
:102950004120015500214220015500BF4020015572
:1029600000BF00205FE702205DE70000002000803C
:1029700000E800FE10B586B00446142101A8FDF75A
:102980002CFC15492068884223D100BF1348C06A37
:10299000022108431149C8620846C06A0221084062
:1029A000009000BF00BF032040030190122002905E
:1029B00000200390032004900520059001A90848F9
:1029C000FFF7A0FB0548806B0121890508430349F7
:1029D000886306B010BD000000580040001002409F
:1029E0000004005003480068034909784018014971
:1029F00008607047A4010020AC01002010B500243D
:102A0000084800684021084306490860032000F098
:102A10000BF8002801D0012401E000F02FF8204637
:102A200010BD00000020024070B504461048017837
:102A30007D20C000FDF75EFB064631460D4800686C
:102A4000FDF758FB054601F05FFA002801D0012090
:102A500070BD042C07D200222146501E00F02CF835
:102A60000548046001E00120F2E70020F0E70000E3
:102A7000AC010020B0010020A80100200648406BF6
:102A800001210843044948630846806B0904084350
:102A90000149886370470000001002400146002988
:102AA00005DBCB06DB0E01229A40024B1A6000BF09
:102AB0007047000000E100E070B504460D46164680
:102AC0002946204604F00CFF70BD00000348006852
:102AD00001218902084301490860704700700040E5
:102AE0000348006801214902084301490860704712
:102AF0000070004003480068FF210131084301498C
:102B0000086070470070004070B5024600201D4DFF
:102B10002D680126760235402B461B4D2D6AEC07A9
:102B2000E40F002B06D0002C04D0164D2D68B543C1
:102B3000144E3560134D2868800880000546154303
:102B40002846104D2860114D2D69042635430F4E3F
:102B50003561012901D130BF02E040BF20BF20BF55
:102B60000A4D2D690426B543084E3561002B08D067
:102B7000002C06D0034D2D68012676023543014E08
:102B8000356070BD007000400000014000ED00E0C5
:102B9000F8B50446002720212068084020287BD172
:102BA00020680840202800D100BF8B48806B01219D
:102BB00009070840002805D18748806B08438649EB
:102BC0008863012785480068FF21013108400028FB
:102BD00016D182480068084380490860FFF7A2FBCD
:102BE000064606E0FFF79EFB801B642801D9032000
:102BF000F8BD7A480068FF21013108400028F1D073
:102C000075480568032109050D4060680840A84221
:102C10000DD0091160680840884208D16E480068EC
:102C2000012149040840884201D10120E0E76A48B7
:102C3000403000690321090408400546002D3DD0BD
:102C400060680840A84239D0202120680840202828
:102C500034D16148403000690321090488430546A6
:102C60005D48403000690121C90408435A49403198
:102C70000861084600690121C9048843564940316A
:102C8000086108460561801528408915884215D1DC
:102C9000FFF748FB064608E03DE0FFF743FB801BDB
:102CA0004F49884201D90320A2E74B4840300069D0
:102CB000012149020840400A0028EED02021206866
:102CC000084020281FD100BF00BF0321090460680D
:102CD000084088420AD1404800680901884303221D
:102CE00012056168114008433B49086000BF3A483B
:102CF00040300069032212046168114008433649DC
:102D00004031086100BF012F05D13348806B39077E
:102D10008843314988632078C007C00F002809D054
:102D20002D484030C06880088000A16808432A49C7
:102D30004031C860022120680840022809D1264895
:102D40004030C0680C218843E16808432249403183
:102D5000C86004212068084004280AD11E48403079
:102D6000C068032189028843216908431A49403118
:102D7000C86008212068084008280AD11648403059
:102D8000C06803210903884361690843124940313F
:102D9000C860FF2101312068084088420AD10E48EE
:102DA0004030C068032109048843A16908430A49E7
:102DB0004031C86080212068084080280AD1064838
:102DC0004030C068032189048843E169084302490F
:102DD0004031C86000200BE7001002400070004046
:102DE00088130000F8B504460E46002C01D10120DE
:102DF000F8BD83480068C007C00FB04218D28048B1
:102E000000684008400030437D490860FFF78AFAB7
:102E1000054607E0FFF786FA401B7A49884201D948
:102E20000320E5E776480068C007C00FB042F1D143
:102E3000022120680840022807D17348C068F021A9
:102E40008843A16808437049C8602078C007C00F54
:102E500000284CD06068022809D16B480068012125
:102E600049040840400C002824D10120C0E76068D4
:102E7000032809D164480068012149060840400E32
:102E8000002817D10120B3E76068012808D15E4807
:102E9000006804210840800800280BD10120A7E722
:102EA00059480068012149020840400A002801D120
:102EB00001209DE75448C06880088000616808438D
:102EC0005149C860FFF72EFA0546606802280FD105
:102ED00007E0FFF727FA401B4A49884201D903203F
:102EE00086E74948C0680C2108400828F1D134E041
:102EF000606803280FD107E0FFF714FA401B41492F
:102F0000884201D9032073E73F48C0680C2108407C
:102F10000C28F1D121E0606801280FD107E0FFF70C
:102F200001FA401B3749884201D9032060E736483F
:102F3000C0680C2108400428F1D10EE007E0FFF73B
:102F4000F1F9401B2F49884201D9032050E72E4850
:102F5000C0680C2108400028F1D129480068C0074A
:102F6000C00FB04218D926480068400840003043DE
:102F700023490860FFF7D6F9054607E0FFF7D2F9C5
:102F8000401B2049884201D9032031E71C480068D2
:102F9000C007C00FB042F1D10421206808400428C6
:102FA00008D11948C068072109028843E16808432D
:102FB0001549C860082120680840082809D112482E
:102FC000C0680721C90288432169C90008430E4926
:102FD000C86000F0D1F80C49C968F0221140090915
:102FE0000A4A515CC8400A4908600A480068FFF76D
:102FF0001BFD0746002F01D03846F9E60020F7E612
:10300000002002408813000000100240F4930008E2
:10301000B0010020A80100200148006870470000AE
:10302000B00100201F21016040490968012292047B
:103030001140914203D10521090441600AE03B4956
:103040000968012212041140914201D1416001E05E
:103050000021416035490968C907C90F002902D01C
:103060000121C16001E00021C160304949681F228F
:1030700012021140090A01612C490968FF2201323C
:103080001140914202D10121816101E00021816161
:1030900026494968090EC16124494968072252033B
:1030A0001140016221494031096901229202114017
:1030B000914203D10521090281600BE01B49403197
:1030C0000969FF2201321140914201D1816001E082
:1030D00000218160154940310969C907C90F0029DC
:1030E00002D00121416101E0002141610F490968DD
:1030F000012212061140914202D10221416201E0F7
:10310000012141620949C96801221204114081620A
:103110000649C9680F2292041140C1620349C96877
:103120000322920511400163704700000010024025
:1031300000B5FFF771FF0549C96807221202114067
:10314000090A034A515CC84000BD0000001002405B
:103150000494000800B5FFF75FFF0549C96807221E
:10316000D2021140C90A034A515CC84000BD0000A8
:103170000010024004940008F0B585B03548C068DE
:1031800003900C2103980840002852D0042804D052
:1031900008280CD00C284BD10BE02E4800681021D9
:1031A0000840002801D02C4D00E02C4D4EE02C4D65
:1031B0004CE00F21890403980840800C29490F5CDA
:1031C0000321890503980840800D441C2148C068EC
:1031D00001210904084000280BD02148394604F099
:1031E00058FB2246002301910090FCF7ADFF0646F4
:1031F0001CE0184800681021084000280BD0164831
:10320000394604F046FB2246002301910090FCF76A
:103210009BFF06460AE01148394604F03AFB224675
:10322000002301910090FCF78FFF064635460DE024
:1032300000BF08484068072149030840400B02903E
:103240000298401C01218140CD0300BF00BF2846E9
:1032500005B0F0BD0010024000093D000024F4005C
:1032600000127A000C940008FEB50446002C01D12F
:103270000120FEBDFB48C7680C210F40C06801213A
:103280000904084001902078C007C00F002872D0C0
:10329000082F04D00C2F0FD1019888420CD1F1488F
:1032A0000068012149040840400C002863D0606890
:1032B000002860D10120DCE700BF0121090460681B
:1032C000884205D1E74800680843E649086027E0DE
:1032D00005210904606888420ED1E2480068012196
:1032E00089040843DF490860084600680121090491
:1032F0000843DC49086013E0DA480068012109044A
:103300008843D8490860084600680121090408403C
:10331000009000BFD348006889008843D149086005
:1033200000BF6068002813D0FEF7FCFF054606E0EA
:10333000FEF7F8FF401B642801D9032099E7C9482C
:103340000068012149040840400C0028F0D012E038
:10335000FEF7E8FF054606E0FEF7E4FF401B6428A1
:1033600001D9032085E7BF480068012149040840CE
:10337000400C0028F0D102212068084002286CD1BE
:10338000E66820203040002809D0B6480068202197
:103390000843B44908602021304688430646042F7C
:1033A00004D00C2F34D10198002831D1AD480068E9
:1033B000042108408008002803D0002E01D10120FC
:1033C00057E7A84840681F2109028843216909027C
:1033D0000843A449486008460068092188433043EF
:1033E000A0490860FFF7C8FE9E49C968F022114055
:1033F00009099D4A515CC8409C4908609C48006886
:10340000FFF712FB0290029800283FD0029830E7A5
:10341000002E23D093480068092188433043914906
:103420000860FEF77FFF054606E0FEF77BFF401BC6
:10343000022801D903201CE78A48006804210840BB
:1034400080080028F1D0874840681F21090288437E
:103450002169090208438349486017E081480068F0
:10346000400840007F490860FEF75CFF054606E023
:10347000FEF758FF401B022801D90320F9E67948DE
:1034800000680421084080080028F1D1102120683C
:103490000840102868D1002F37D1724800684901D0
:1034A0000840400A002804D0A069002801D101206A
:1034B000DFE66C484068072149038843216A0843D6
:1034C00068494860084640680002000A217F0906F2
:1034D000084364494860206A400B401C0121814038
:1034E000C8036049C968F022114009095E4A515C6D
:1034F000C8405E4908605E480068FFF795FA029090
:10350000029800284BD00298B3E6A06900282CD07E
:1035100054480068FF210131084352490860FEF712
:1035200001FF054606E0FEF7FDFE401B022801D91B
:1035300003209EE64B480068012149020840400AEA
:103540000028F0D047484068072149038843216A92
:10355000084344494860084640680002000A217F49
:10356000090608433F49486019E03E480068FF21CA
:10357000013188433B490860FEF7D4FE054606E06A
:10358000FEF7D0FE401B022801D9032071E6354822
:103590000068012149020840400A0028F0D10821B2
:1035A00020680840082839D1606900281BD02D48C0
:1035B00040300069012108432A4940310861FEF783
:1035C000B1FE054606E0FEF7ADFE401B022801D91C
:1035D00003204EE62348403000690221084040089D
:1035E0000028F0D01AE01F48403000694008400031
:1035F0001C4940310861FEF795FE054606E0FEF7DE
:1036000091FE401B022801D9032032E615484030C4
:1036100000690221084040080028F0D104212068F8
:10362000084004287BD1002000900E48806B89065A
:103630000840002806D10B48806B0843094988637D
:10364000012000900B480068FF210131084000284C
:1036500020D108480068084306490860FEF762FE6A
:10366000054610E000100240F4930008B00100206D
:10367000A801002000700040FEF754FE401B6428A3
:1036800001D90320F5E587480068FF210131084092
:103690000028F1D000BFFF210131A068884205D188
:1036A0008148006908438049086130E0A06800282B
:1036B0000DD17D480069FF21013188437A490861B5
:1036C0000846006909158843774908611FE005210C
:1036D0000902A06888420DD173480069012189025E
:1036E00008437149086108460069891508436E4915
:1036F00008610CE06C480069FF21013188436A4988
:10370000086108460069091588436749086100BFD8
:10371000A068002815D0FEF705FE054608E031E058
:10372000FEF700FE401B6149884201D90320A0E555
:103730005D480069012149020840400A0028EFD095
:1037400013E0FEF7EFFD054607E0FEF7EBFD401B3B
:103750005649884201D903208BE55348006901216D
:1037600049020840400A0028EFD10098012808D1FA
:103770004D484038806B0121090788434A49403948
:10378000886300BF606A00284CD00C2F69D0606A43
:10379000022848D14448403800680121090688437E
:1037A000414940390860FEF7BDFD054606E0FEF7D9
:1037B000B9FD401B022801D903205AE53A48403898
:1037C0000068012149060840400E0028EFD1E16A57
:1037D000A06A0843216B084333494039C968FD2278
:1037E00012049143084330494039C86008460068D4
:1037F0000121090608432C4940390860FEF792FD73
:10380000054606E0FEF78EFD401B022801D9032085
:103810002FE5254840380068012149060840400E40
:103820000028EFD03CE0204840380068012109061C
:1038300088431D4940390860FEF774FD054606E0DF
:10384000FEF770FD401B022801D9032011E5164840
:1038500040380068012149060840400E0028EFD199
:103860001EE0606A012800D103E50F484038C068B7
:1038700001900121090401980840A16A88420DD1F4
:103880000F21890401980840E16A884206D103218A
:10389000890501980840216B884201D00120E8E4A5
:1038A0000020E6E400700040401002408813000051
:1038B00070B50446002500BF2020005D012801D11D
:1038C000022070BD01212020015500BF02212120CE
:1038D000015500BFCA202168486253202168486210
:1038E00000BF2068806801218902884321688860C0
:1038F0002068806801218903884321688860FEF779
:1039000011FD054615E0FEF70DFD401B7D21C900A8
:1039100088420ED900BFFF202168486200BF032102
:103920002120015500BF00212020015500BF0320A8
:10393000C7E72068C0680421084080080028E2D05A
:1039400000BFFF202168486200BF012121200155EE
:1039500000BF00212020015500BF0020B1E700007A
:10396000F8B504460D4616465949096848097D21AF
:10397000C900FCF7BFFB7D21C9004843009000BF90
:103980002020005D012801D10220F8BD0121202066
:10399000015500BF02212120015500BFCA20216826
:1039A000486253202168486200BF20688068012176
:1039B0008902084000281CD000BF0098401E0090DB
:1039C000009800280ED100BFFF202168486200BF88
:1039D00003212120015500BF00212020015500BFF7
:1039E0000320D2E72068C06804210840800800282E
:1039F000E3D12068806801218902884321688860BA
:103A00002068C06880210840324908432168C860A6
:103A10002F49096848097D21C900FCF76BFB7D210E
:103A2000C9004843009000BF0098401E00900098D5
:103A300000280ED100BFFF202168486200BF03218B
:103A40002120015500BF00212020015500BF032087
:103A50009BE72068C0680421084080080028E3D064
:103A600020688068C008C00021688860206880687D
:103A7000304321688860206845611748006801214B
:103A800009050843144908600846806801210905B2
:103A90000843114988602068806801218903084330
:103AA00021688860206880680121890208432168B4
:103AB000886000BFFF202168486200BF01212120EB
:103AC000015500BF00212020015500BF00205CE708
:103AD000B00100207FFBFFFF0004014070470000A1
:103AE00010B50446012000050F4948612068806830
:103AF000012189030840800B002811D02068C0688C
:103B000009110840800A00280AD02068C068802176
:103B10000840064908432168C8602046FFF7DEFFD9
:103B200001212120015510BD000401407FFBFFFF52
:103B3000F0B506460C461746002530684068124925
:103B400008400546FF2000042840000CE0701F20BC
:103B500000022840000A6070A806800EA0700720AE
:103B600040032840400B2070002F0BD1E07802F07A
:103B700058F9E070607802F054F96070A07802F0B3
:103B800050F9A0700020F0BD3FFFFF00F0B50546E2
:103B90000C46174600262868806A6060286800691D
:103BA0004004400CA060286800681249084006469E
:103BB0003F2000043040000C20707F200002304085
:103BC000000A60707006400EA07001208005304031
:103BD000800DE070002F0BD1207802F022F92070C8
:103BE000607802F01EF96070A07802F01AF9A070F7
:103BF0000020F0BD7F7F7F0070B504460125002CBA
:103C000001D1012070BD2120005D002805D10021D7
:103C100020200155204600F055F8022121200155B1
:103C20002068C068102108400009002840D100BF6A
:103C3000CA202168486253202168486200BF20469C
:103C400002F009F90546002D1DD1206880681C4945
:103C5000084021688860216960680843A1690843B9
:103C6000216889680843216888602168E0680861E4
:103C700020680069218909040843216808612046F9
:103C800002F012F90546002D0DD12068C06C8008A5
:103C900080002168C8646169E06908432168C96CD3
:103CA00008432168C86400BFFF202168486200E023
:103CB0000025002D02D10121212001552846A1E730
:103CC000BFFF8FFF10B504460949206888420ED116
:103CD0000848006901218904084306490861002257
:103CE00011460220FEF7E8FE0220FEF7D7FE10BDC7
:103CF0000028004040100240F8B505460C46174623
:103D00000020009000BF2020405D012801D102204A
:103D1000F8BD01212020415500BF0221212041553D
:103D2000002F09D1607810210840102804D1607854
:103D3000EF2108400A306070002F11D1E07802F0C6
:103D40007DF80304607802F079F800020343A0785C
:103D500002F074F8034320784003034300930AE021
:103D6000E0780004617809020843A17808432178CB
:103D700049030843009000BFCA20296848625320C5
:103D80002968486200BF284602F065F80646002E02
:103D900008D10D490098084029684860284602F07B
:103DA00083F80646002E02D101212120415500BF93
:103DB000FF202968486200BF00BF00212020415534
:103DC00000BF3046A4E700003FFFFF00F8B50446FF
:103DD0000D4617460020009000BF2020005D0128FE
:103DE00001D10220F8BD01212020015500BF022190
:103DF00021200155002F1BD12068806840210840F8
:103E0000002800D002E00020E87000BF287802F00F
:103E100015F80304687802F011F800020343A8784B
:103E200002F00CF80343E87880050343009314E0A4
:103E30002068806840210840002800D002E000206F
:103E4000E87000BF28780004697809020843A9785F
:103E50000843E97889050843009000BFCA2021681B
:103E6000486253202168486200BF204601F0F3FFFA
:103E70000646002E17D114490098084021680860B2
:103E80002068806801218904884321688860296945
:103E9000E8680843216889680843216888602046EB
:103EA00002F002F80646002E02D101212120015520
:103EB00000BFFF202168486200BF00BF0021202012
:103EC000015500BF30468DE77F7F7F0070B5044607
:103ED00000250C482168C860FEF724FA054608E072
:103EE000FEF720FA401B7D21C900884201D903203A
:103EF00070BD2068C068202108400028F0D0002054
:103F0000F6E700005FFF010070B504462546681E15
:103F10000949884201D901200CE0681E074948611F
:103F20000321081F03F0DCFC0020044988610720FE
:103F30000861002070BD0000FFFFFF0000E000E00E
:103F400030B502460B4600BF3820805C012801D105
:103F5000022030BD01253820855400BF02253920BC
:103F60008554106844681068816870252046A8430D
:103F7000044618680443106844600125AD071068C2
:103F8000A8420BD00E4D1068A84207D00D4D106806
:103F9000A84203D00C4D1068A84207D180250846DE
:103FA000A843014658680143106881600125392003
:103FB000855400BF00253820855400BF0020C8E785
:103FC00000040040000801400014014010B5044600
:103FD000002C01D1012010BD3920005D002805D141
:103FE000002138200155204600F018F80221392020
:103FF0000155211D206802F075F801213E20015570
:1040000000BF3A2001553B2001553C2001553D2081
:10401000015500BF392001550020DCE710B50446EA
:10402000012189072068884206D10D48806B012153
:1040300008430B49886311E00A49206888420DD182
:104040000748806B202108430549886300221146F8
:104050001220FEF731FD1220FEF720FD10BD0000FA
:10406000001002400014004001463920405C012845
:1040700001D0012070470223392043540868C068EA
:10408000012318430B68D86001239B0708689842F6
:104090000BD0104B0868984207D00F4B0868984225
:1040A00003D00E4B086898420CD10868806842071C
:1040B000520F062A0CD008680068012318430B68C9
:1040C000186005E008680068012318430B68186051
:1040D0000020CFE700040040000801400014014028
:1040E000F8B504460D460020009000BF3820005D62
:1040F000012801D10220F8BD01213820015500BF5F
:10410000022139200155206886687721304688438E
:104110000646FF210902304688430646206886602D
:104120002868502834D00CDC202851D004DC00282A
:104130004CD0102852D14AE030284AD040284DD1E6
:104140003AE060282ED0702807D001210903401AD8
:1041500002D0401A42D10DE043E0EB686A68A968DA
:10416000206802F00EF820688668772006432068F1
:10417000866036E0EB686A68A968206802F001F89A
:10418000206880680121890308432168886028E04D
:10419000EA686968206802F08FF85021206801F011
:1041A000FEFF1EE0EA686968206802F09EF8602160
:1041B000206801F0F4FF14E0EA686968206802F002
:1041C0007BF84021206801F0EAFF0AE000BF00BF51
:1041D00000BF2968206801F0E2FF02E001200090A2
:1041E00000BF00BF01213920015500BF0021382048
:1041F000015500BF00987EE710B586B00446142133
:1042000001A8FBF7EAFF01218907206888421AD13B
:1042100000BF0E48C06A022108430C49C862084624
:10422000C06A02210840009000BF00BF0820019032
:10423000022002900020039004900220059001A922
:104240000348FDF75FFF06B010BD000000100240FC
:1042500000040050F8B504460D461646002700BF7E
:104260003820005D012801D10220F8BD012138204D
:10427000015500BF002E06D0042E1BD0082E33D0CF
:104280000C2E62D147E02946206801F094FF206897
:1042900080690821084321688861206880690421B9
:1042A00088432168886120688069E968084321683B
:1042B00088614CE02946206801F099FF20688069F8
:1042C0000121C902084321688861206880690121B1
:1042D000890288432168886120688069E968090249
:1042E00008432168886132E02946206801F0A1FF77
:1042F0002068C069082108432168C8612068C06936
:10430000042188432168C8612068C069E9680843BE
:104310002168C8611BE02946206801F0A9FF2068D8
:10432000C0690121C90208432168C8612068C069C9
:104330000121890288432168C8612068C069E96851
:10434000090208432168C86101E0012700BF00BFDE
:1043500000BF00213820015500BF384685E710B561
:104360000446002C01D1012010BD3920005D002839
:1043700005D1002138200155204600F018F802210F
:1043800039200155211D206801F0ACFE01213E209D
:10439000015500BF3A2001553B2001553C200155F5
:1043A0003D20015500BF392001550020DCE7704752
:1043B00070B504460D46002D02D13A20005D0BE099
:1043C000042D02D13B20005D06E0082D02D13C20E7
:1043D000005D01E03D20005D012801D0012070BD9D
:1043E000002D03D102213A2001550EE0042D03D106
:1043F00002213B20015508E0082D03D102213C2079
:10440000015502E002213D20015501222946206884
:1044100001F0A6FE01218907206888420BD01049CF
:104420002068884207D00F492068884203D00E498F
:10443000206888420CD1206880684607760F062ED7
:104440000CD020680068012108432168086005E05D
:104450002068006801210843216808600020BEE749
:1044600000040040000801400014014070477047FC
:10447000F8B50446E56F80200659206880688021E1
:104480000840802827D1212D25D100BF03F082FAD2
:104490000746012003F090FA206880688021884355
:1044A00021688860384603F087FA00BF206F002833
:1044B0000ED0206FFDF726FC002809D0206FFDF7F5
:1044C0007BFC202804D11021842001510320F8BD59
:1044D000204602F0A9FB206880684021084040285F
:1044E00027D1222E25D100BF03F054FA0746012020
:1044F00003F062FA20688068402188432168886060
:10450000384603F059FA00BF606F00280ED0606F84
:10451000FDF7F8FB002809D0606FFDF74DFC20285F
:1045200004D11021842001510320D0E7204602F05D
:1045300020FB0020CBE7000010B504460A492068A4
:10454000884202D109A003F069F90C492068884229
:1045500002D106A003F062F909492068884202D11D
:1045600002A003F05BF910BD004800404C505541DB
:104570005254312D6572726F720D0A00003801407D
:1045800000440040F0B585B004462068C569206845
:10459000066820688768EF48284003900398002841
:1045A0000FD12020284000280BD0202030400028A8
:1045B00007D0A06E002802D02046A16E884705B023
:1045C000F0BD039800287DD0F807C00F002803D164
:1045D000E14830400028F6D0E807C00F00280DD091
:1045E000FF2001303040002808D0012021680862F7
:1045F00084200059012108438421085102202840C9
:1046000000280CD0F807C00F002808D0022021682D
:1046100008628420005904210843842108510420A1
:10462000284000280CD0F807C00F002808D004202C
:10463000216808628420005902210843842108511E
:1046400008202840002810D020203040002803D126
:10465000F807C00F002808D00820216808628420CD
:10466000005908210843842108510120C002284034
:1046700000280ED0012080063040002809D00120FB
:10468000C002216808628420005920210843842147
:10469000085184200059002854D0202028400028A8
:1046A00009D020203040002805D0A06E002802D07C
:1046B0002046A16E884784200059029020688068B7
:1046C000402100E03FE00840402804D02821029823
:1046D0000840002830D0204602F04BFA206880685D
:1046E00040210840402823D100BF03F053F9019036
:1046F000012003F061F92068806840218843216827
:104700008860019803F058F900BF606F00280BD053
:104710009248616F8863606FFDF720FB002811D01D
:10472000606F816B88470DE02046FFF705FF09E0C9
:104730002046FFF701FF05E02046FFF7FDFE0021C0
:10474000842001513BE7206E01287DD110202840B4
:10475000002879D0102030400028FAD0102021689D
:1047600008622068806840210840402873D1606F4B
:104770000068406880B20190019800286AD05820F3
:10478000015B0198814265DD5A2101980853606FF1
:10479000006800682021084000284CD100BF03F0C9
:1047A000F9F80090012003F007F920680068FF2164
:1047B0000131884321680860009803F0FDF800BFCC
:1047C00000BF03F0E7F80090012003F0F5F820683F
:1047D00080684008400021688860009803F0ECF889
:1047E00000BF00BF03F0D6F80090012003F0E4F80A
:1047F000206880684021884321688860009803F021
:10480000DBF800BF2021802001510020206600BF7E
:1048100003F0C0F80090012003F0CEF82068006893
:104820001021884321680860009803F0C5F800BF94
:10483000606FFDF767FA022060665820025B5A201D
:10484000005B101A81B202E054E004E002E020466E
:10485000FFF70CFEB3E65820015B5A20005B081AF4
:1048600080B201905A20005B002842D001980028B5
:104870003FD000BF03F08EF80090012003F09CF8B9
:1048800020680068FF212131884321680860009872
:1048900003F092F800BF00BF03F07CF80090012005
:1048A00003F08AF82068806840084000216888602A
:1048B000009803F081F800BF2021802001510020E2
:1048C0002066A06600BF03F065F80090012003F0A9
:1048D00073F82068006810218843216808600098F8
:1048E00003F06AF800BF0220606620460199FFF7D6
:1048F000BDFD64E601200005284000280CD0012001
:1049000080053840002807D0012000052168086292
:104910002046FFF7ACFD52E68020284000280AD050
:1049200080203040002806D0E06E002802D02046CB
:10493000E16E884743E640202840002807D0402009
:104940003040002803D0204602F053F937E600BF7C
:1049500035E600000F08000020010004116A00087D
:1049600010B50446002C01D1012010BDA06900281B
:1049700000D000E000BFE06F002805D100217820C2
:104980000155204600F02CF82420E06720680068DC
:104990004008400021680860204602F0DBFA012848
:1049A00000D1E2E7606A002802D0204601F02AFF29
:1049B000206840680921C90288432168486020684E
:1049C00080682A2188432168886020680068012166
:1049D000084321680860204601F08CFFC5E700000D
:1049E00010B586B00446142101A8FBF7F6FB654913
:1049F000206888422CD16448806B012189040843D7
:104A00006149886300BF0846C06A022108435E49C5
:104A1000C8620846C06A02210840009000BF00BF7B
:104A200003208002019002200290002003900320C6
:104A300004900420059001A95448FDF763FB00226F
:104A400011461D20FEF738F81D20FEF727F896E0E6
:104A50004F492068884246D14B48406B0121890369
:104A600008434949486300BF0846C06A0221084319
:104A70004549C8620846C06A02210840009000BF4C
:104A800000BFC0200190022002900020039003206C
:104A900004900020059001A93C48FDF733FB3D48F8
:104AA0003D4908600320486000213B488160C160A7
:104AB00080210161002141618161C1610162FDF7D5
:104AC00003FA002801D0FCF75DFC00BF32486067A4
:104AD000846200BF002211461B20FDF7EDFF1B2062
:104AE000FDF7DCFF4BE02D492068884247D126487E
:104AF000806B0121490408432349886300BF0846AD
:104B0000C06A012108432049C8620846C06AC0073C
:104B1000C00F009000BF00BF0C2001900220029047
:104B200000200390032004900420059001A9052093
:104B30000007FDF7E7FA17482830194908600420F4
:104B40004860002116488160C16080210161002118
:104B500041618161C1610162FDF7B6F9002801D0B0
:104B6000FCF710FC00BF0E486067846200BF0022A3
:104B700011461C20FDF7A0FF1C20FDF78FFF06B09B
:104B800010BD00000048004000100240000400502A
:104B90000038014030000240200C0020004400405A
:104BA000680C0020F8B504460D46164680200059D2
:104BB000202838D1002D01D0002E01D10120F8BDD0
:104BC00001210903A068884208D12069002805D185
:104BD000E807C00F002801D00120F0E70020206680
:104BE00012492068884218D0206840680121C90510
:104BF0000840002811D000BF02F0CCFE074601207B
:104C000002F0DAFE20680068012189060843216865
:104C10000860384602F0D0FE00BF324629462046E2
:104C200002F030FBCBE70220C9E70000004800405B
:104C3000F8B504460D46164680200059202838D184
:104C4000002D01D0002E01D10120F8BD0121090362
:104C5000A068884208D12069002805D1E807C00F64
:104C6000002801D00120F0E70020206612492068CA
:104C7000884218D0206840680121C90508400028F2
:104C800011D000BF02F086FE0746012002F094FE1C
:104C900020680068012189060843216808603846B9
:104CA00002F08AFE00BF32462946204602F058FB39
:104CB000CBE70220C9E700000048004010B50446D9
:104CC0001B492068884231D101221A491A48FFF74E
:104CD000AFFF1A4800880121C9030840002825D1E8
:104CE00016480088C8281ADA002015490968486261
:104CF00012480088002807D1114800680068012187
:104D000008430F49096808600A4801780B4802887F
:104D10000088401C094B18800A48815406E0074867
:104D200000880121C90308430449088010BD000020
:104D3000004800401A000020880A002018000020C7
:104D40003C0D0020DC0700207047FFB583B004460F
:104D50000D461746E06F202869D1002D01D0002FA5
:104D600002D1012007B0F0BD01210903A0688842EB
:104D700008D12069002805D1E807C00F002801D01C
:104D80000120EFE70021842001512120E067FDF799
:104D9000C9FA0190502007535220075301210903FB
:104DA000A068884205D12069002802D1002602951A
:104DB00002E02E460020029023E006980090002298
:104DC00080212046019B02F05BFB002803D02020BD
:104DD000E0670320C6E7002E09D102980088C005CD
:104DE000C00D216888620298801C029003E0307830
:104DF00021688862761C5220005B401E81B25220DE
:104E000001535220005B0028D7D106980090002261
:104E100040212046019B02F033FB002803D02020D4
:104E2000E06703209EE72020E06700209AE7022049
:104E300098E7704702A002F0F1FC00BFFEE7000017
:104E4000486172644661756C745F48616E646C653C
:104E50007200000001688969022211404908002996
:104E600002D000210268916201688969C907C90FEF
:104E7000012251405140002904D101688969114340
:104E80000268916170470000F7B584B004460E4691
:104E90000020039020688769002506980290102062
:104EA0003840102854D12168C8613DE0701C0028AA
:104EB0003AD0FDF737FA0299401AB04201D8002ED5
:104EC00032D12068406801218903084001904220C6
:104ED000005D00902068806949000840C00B0028F0
:104EE0000ED04910019888420AD00098202807D097
:104EF00020684068084321684860FDF713FA029073
:104F00000AE0FDF70FFA0299401A192804D9202067
:104F100005430120039006E02068806920210840B5
:104F200040090028EDD000BF20688069202108409A
:104F30004009002802D103980028B7D00398002820
:104F400002D120202168C86104200543012003907C
:104F500020688769FF2001303840FF2101318842F5
:104F600006D10120054300022168C8610120039099
:104F700001208002384001218902884206D10820A0
:104F80000543C0012168C86101200390012040024F
:104F9000384001214902884206D10220054300021F
:104FA0002168C861012003900398002815D020468D
:104FB000FFF750FF206840680949084021684860B1
:104FC000606C28436064202141200155002142206B
:104FD000015500BF4020015500BF039807B0F0BD48
:104FE00000E800FEF8B5069C8D05AD0D1604FF2700
:104FF0003F043E4035431D4325436D006D08009539
:1050000005686E68650D0127BF023D40034F3D43B3
:10501000AE43009D2E4305686E60F8BDFF63FF033D
:10502000F8B504460D4617461E4623E0701C0028BE
:1050300020D0FDF777F90699401AB04201D8002E2A
:1050400018D1206880692840A84201D1012000E0E1
:105050000020B8420ED1606C2021084360644120DA
:10506000015500214220015500BF4020015500BFDD
:105070000120F8BD206880692840A84201D10120A4
:1050800000E00020B842D1D00020F2E770B504461D
:105090000D4616465AE0324629462046FFF7F4FEF2
:1050A000002801D0012070BD2068806920210840BF
:1050B000400900282FD0206880690421084080081A
:1050C000002804D0208D002801D00020EBE72068C4
:1050D0008069102108400009002805D010202168AF
:1050E000C8610420606401E0002060642020216821
:1050F000C861206840681A4908402168486020213A
:105100004120015500214220015500BF402001559A
:1051100000BF0120C7E7FDF705F9801BA84201D8B1
:10512000002D13D1206880690421084080080028E0
:105130000CD1606C2021084360644120015500BF00
:1051400000214020015500BF0120ACE720688069A4
:1051500004210840800800289DD00020A3E700001B
:1051600000E800FE70B504460D46164624E03246BF
:1051700029462046FFF788FE002801D0012070BD97
:10518000FDF7D0F8801BA84201D8002D14D120686B
:10519000806920210840400900280DD1606C084337
:1051A00060644120015500214220015500BF40208C
:1051B000015500BF0120E2E72068806920210840F6
:1051C00040090028D3D00020D9E770B504460D4629
:1051D000164628E0324629462046FFF755FE0028AD
:1051E00001D0012070BD681C00281CD0FDF79AF882
:1051F000801BA84201D8002D15D1206880690221AA
:105200000840400800280ED1606C202108436064EB
:105210004120015500214220015500BF4020015589
:1052200000BF0120DEE720688069022108404008B5
:105230000028CFD00020D5E710B52748FFF7A2F906
:1052400025480068C06908210840C008002809D026
:1052500008202149096808621F480068406A1E4802
:105260000068806A1D480068C06902210840400843
:10527000002809D002201949096808621748006807
:10528000406A16480068806A14480068C069C00710
:10529000C00F012148404840002809D001200F4993
:1052A000096808620D480068406A0C480068806A16
:1052B0000A480068C069042108408008002809D015
:1052C000042006490968086204480068406A0348E7
:1052D0000068806A10BD0000880A0020100B0020C2
:1052E00010B50022022105200007FDF714F8002266
:1052F0000121C9020548FDF70EF801229102034879
:10530000FDF709F8C820FCF781FE10BD0008005029
:1053100000B58DB0FFF7E4FF2DA002F07FFAC820A2
:10532000FCF774FE00F086F8C820FCF76FFE002240
:105330000121C9022B48FCF7EEFF0022012189025E
:105340002848FCF7E8FFC820FCF760FE00F0CEFD1F
:1053500003F034FDFF212D312348FAF73EFF2348A7
:10536000C08923498978224A5278214B1B780893B7
:1053700009920A910B901F4881784278C0781B4BA4
:10538000403B9B690493069207910590174840386B
:10539000C2788078154940394978144B403B1B78D6
:1053A000009303920191029010484038838A12487A
:1053B000427812A10C4802F041FA1C490880FF23F0
:1053C0000846028808491A48FFF7BFFC0DB000BD27
:1053D000D7BCB1B8C9E8D6C34C6F7261C4A3BFE9EA
:1053E0000D0A000000080050A80E00201410002034
:1053F000B00C0020240000202D00002042352C2578
:10540000642C25642C25642C25642C25642C2564AF
:105410002C25642C25642F25642F25642D25643AC2
:1054200025643A25642C2564000000003201002028
:10543000980B00200EB5C021684601700021417014
:1054400007218170114801786846C1700F48417882
:1054500068460171002141710C4880780B49C97878
:1054600008430A4909790143684681710021C171E5
:10547000064841796846017283214172FF230A225E
:1054800069460348FFF761FC0EBD00002D000020B7
:10549000980B00201CB50020019064230522D02128
:1054A0000C48FDF71FF8002812D16420032301AA3D
:1054B000D02100900748FDF7F1F868460479A40769
:1054C000A40F240240790419240268468079041943
:1054D00020461CBD340A00201CB59C20019064238A
:1054E0000522D0210D48FCF7FDFF6420012301AA0D
:1054F000D02100900948FDF787F90520FCF786FDCB
:1055000002E00520FCF782FD64230522D021034838
:10551000FCF7E8FF0028F4D11CBD0000340A00208D
:1055200070B505460C46FF212D311748FAF755FE98
:105530002346164A16A1144802F080F902E0012021
:10554000FCF764FD7D231B0119A20F49194802F0E5
:1055500076FC0028F3D17D23DB002246294616483D
:10556000FFF7F3FBC82215A119A001F0A3FC002846
:1055700003D11AA002F052F902E01EA002F04EF987
:1055800001F038FA70BD00007C0D0020CE00002034
:105590002041542B514D5450554245583D302C30EC
:1055A0002C302C302C222573222C25640D0A00006F
:1055B0003E00000034010020880A00202B514D5489
:1055C00050554245583A20302C302C300000000015
:1055D0007075626C6973685F41434B007075626CF3
:1055E000697368207375636365737366756C0D0A00
:1055F000000000007075626C697368206661696CF8
:105600000D0A00001CB5002000900190304831497F
:10561000086000212F48C163012080072D494860A0
:1056200000212C4881600321816301210161002157
:10563000C1600121001D017700214177001F8162B7
:10564000FF21C2314162012124300172042124383A
:1056500041610021016381614163C161FCF766F929
:10566000002801D0FBF78EFE00211A48FBF7DAFF75
:10567000002801D0FBF786FE1748009040140190E7
:1056800069461448FCF744F8002801D0FBF77AFE7D
:105690001248009069460F48FCF73AF8002801D0FC
:1056A000FBF770FE0E48009069460A48FCF730F898
:1056B000002801D0FBF766FE0A48009069460548BD
:1056C000FCF726F8002801D0FBF75CFE1CBD0000AB
:1056D00000240140E004002000010020000200241A
:1056E000001000300080003C08B500BF1248006B7D
:1056F00001210843104908630846006BC007C00F2A
:10570000009000BF00BF002211460920FDF7D4F928
:105710000920FDF7C3F9002211460A20FDF7CCF954
:105720000A20FDF7BBF9002211460B20FDF7C4F952
:105730000B20FDF7B3F908BD0010024000B587B09B
:10574000142102A8FAF749FD00BF6348C06A04218A
:1057500008436149C8620846C06A042108400190B4
:1057600000BF00BF00BF5C48C06A802108435A499F
:10577000C8620846C06A80210840019000BF00BF8F
:1057800000BF5548C06A012108435349C862084612
:10579000C06AC007C00F019000BF00BF00BF08462D
:1057A000C06A022108434C49C8620846C06A022107
:1057B0000840019000BF00BF00BF4748C06A0821F1
:1057C00008434549C8620846C06A0821084001905C
:1057D00000BF00BF002241494148FCF79CFD002268
:1057E000404905200007FCF796FD00223E493F484E
:1057F000FCF791FD8120800102900020039004902D
:1058000002A93748FCF77EFC032002900390002099
:10581000049002A93248FCF775FC30480290012040
:105820000390002004900220059002A92C48FCF768
:1058300069FC2C4802900120039000200490022073
:10584000059002A905200007FCF75CFC47204001F9
:10585000029000200390049002A905200007FCF7A5
:1058600051FC234802900120039000200490022064
:10587000059002A91D48FCF745FC0120400202905A
:105880000020039004900220059002A91748FCF71D
:1058900039FC18480290032003900020049002A9CC
:1058A0001248FCF72FFC2120800202900320039075
:1058B0000020049002A905200007FCF723FC042027
:1058C0000290032003900020049002A90A48FCF7EC
:1058D00019FC07B000BD000000100240981F000036
:1058E0000008005013130000048200000004005060
:1058F0000480000030110000000C005010B5134867
:105900001349086013484860002111488160012153
:10591000C1600021016141618161C1610162FCF7E7
:1059200077FD002801D0FBF72DFD00210848FCF78A
:10593000FFFC002801D0FBF725FD00210448FCF7FF
:105940002EFD002801D0FBF71DFD10BD00580040C2
:10595000340A00200B0A004010B50D480D490860BC
:10596000E1204002486000210A488160C160016175
:105970000C214161002181610162002005494862DA
:105980000846FEF7EDFF002801D0FBF7FBFC10BD39
:1059900000480040880A002000B587B0142102A802
:1059A000FAF71BFC002001902248234908600020E0
:1059B00048607F2120488160FF21C1600021016192
:1059C00041618161C161FEF717F9002801D0FBF741
:1059D000D9FC0E21684601720F21417200218172AB
:1059E000002005900690002202A91348FEF7EEF968
:1059F000002801D0FBF7C6FC072168460171092188
:105A00004171012181711821C171002201A90A4847
:105A1000FEF772F9002801D0FBF7B4FC04220A213A
:105A20000548FDF79DFF002801D0FBF7ABFC07B050
:105A300000BD000000280040D80C002000B58BB04D
:105A400000200790089009900A9005900690019018
:105A500002900390049001208007224908601F20D3
:105A6000486000211F4881601F49C1600021016119
:105A700080214161FEF7AAFA002801D0FBF782FCE1
:105A800001200003079007A91648FEF729FB00280C
:105A900001D0FBF777FC1348FEF761FC002801D02A
:105AA000FBF770FC00200590069005A90D48FEF755
:105AB00047FA002801D0FBF765FC60200190002028
:105AC000029003900490042201A90648FEF7C2FB4D
:105AD000002801D0FBF756FC0248FEF78DFB0BB007
