:020000040800F2
:10000000F0130020D900000875620008114C0008A8
:1000100000000000000000000000000000000000E0
:100020000000000000000000000000002165000842
:10003000000000000000000079620008256500084B
:10004000EB000008EB000008D1630008EB0000089B
:10005000EB000008EB000008EB000008EB000008D4
:1000600000000000611400087114000881140008E9
:100070003D120008EB000008EB000008EB00000850
:10008000EB000008EB0000083D66000800000000DF
:10009000EB000008EB000008EB000008EB00000894
:1000A000EB000008EB000008EB000008A57E00084C
:1000B000B17F0008E94D00080000000000000000CA
:1000C0000448854600F07EFE00480047F99200088B
:1000D000C046C046F013002004488047044800474B
:1000E000FEE7FEE7FEE7FEE7FEE7FEE7096600083B
:1000F000C100000830B50B46014600202022012433
:1001000009E00D46D5409D4205D31D469540491B4B
:100110002546954040191546521E002DF1DC30BD94
:1001200070B500242546002801DA01244042002948
:1001300001DA01254942FFF7DDFFAC4200D0404221
:10014000002C00D0494270BDF0B51FB40646002017
:1001500082B005464024019100901BE0019922469F
:100160000F46304600F084FC049A059B801A9941A2
:1001700010D310461946224600F06AFC361A8F4109
:100180000197224601200021009F00F061FC3818F1
:100190004D4100902046641E0028DFDC019B009842
:1001A0002946324607B0F0BD03460B439B0703D0F8
:1001B00009E008C9121F08C0042AFAD203E00B782C
:1001C0000370401C491C521EF9D27047D2B201E0A4
:1001D0000270401C491EFBD270470022F6E710B5A2
:1001E00013460A4604461946FFF7F0FF204610BDA5
:1001F00030B505462A460B4610781C78521C5B1C0D
:10020000002801D0A042F7D0002C03D0002802D053
:100210006D1CEFE7284630BD10B5044605E00B78AD
:100220000370401C002B00D0491C521EF7D2204600
:1002300010BD10B5002200E0521C835C8C5CA34210
:1002400001D1002BF8D1D8B2E1B2401A10BD03465B
:100250000A780270401C491C002AF9D118467047E0
:1002600070B5104D002800D12868002414E00A461B
:1002700002E09E4203D0521C1378002BF9D1DAB26F
:10028000224307D0002B06D0002C04D0002101709F
:10029000401C04E00446401C0678002EE7D128608C
:1002A000204670BDB40100200FB400B58DB0099098
:1002B0000B9010A900200091C0430A9000200C90E0
:1002C00006480690064807906A4609A80F9900F06C
:1002D00009FC0DB008BC04B018470000050B00086D
:1002E000250B0008FFB50027FF4383B000205C68A2
:1002F00001909E681D46A9697F1C0498884700905C
:10030000296A88470028F6D10098401C0CD00320A9
:1003100040028443002E19DD600614D500982B2876
:1003200009D02D280FD103E00020C04307B0F0BD55
:10033000012080020443A9697F1C04988847761E27
:100340000090002E02DD0098302803D00598002888
:1003500025D035E0012040020443A969761E7F1CA8
:10036000049888470090002E03DD782805D058288F
:1003700003D00598002810D022E00598002801D06D
:1003800010281DD1012040028443A969761E7F1CDC
:10039000049888470090102002E0082000E00A201E
:1003A00005900DE0012149020C43059A0199761E42
:1003B000514308180190A9697F1C04988847009050
:1003C000002E05DD0599009800F076FB0028E9DA9B
:1003D000E96904988847A00502D40120C043A5E735
:1003E000E00722D1600611D56005019800D5404292
:1003F00029680A1D2A600968220501D5087014E0E1
:10040000220701D5088010E008600EE02868011D71
:1004100029600068210502D50199017005E02107D6
:10042000019901D5018000E0016038467EE770B592
:10043000064607F0EDFE046805460A220021304614
:1004400000F082FB2C6070BDF8B502464A40D40F24
:1004500042004B0052085B089A4202D2024608460C
:1004600011464A0023D0C30D4A00DDB2120EAD1A68
:10047000202D35DA49020126490AF6058A19002C91
:1004800000D0524220214F1B1146B9402A4110187A
:10049000C20D9A4221D0002C17D0012D08DCDA05BC
:1004A000801AD20F8019D207DBB200F08DFBF8BDA5
:1004B000DA05801A012340001B06C01880185A4232
:1004C0008018CA0F1043490007E04908C2071143CA
:1004D000DA05801A80194008801800F06DFBF8BD1D
:1004E00061000122511A001BF7E70122D207514097
:1004F000AAE70122D2075040A6E7024670B54A405B
:10050000D30FDB0740002DD04A002AD0010E140E75
:10051000000212020919400A520A8418E501044631
:100520005443000A120A2E045043A4194219200C05
:10053000C543AA18120C0125AD03521C521912040E
:100540007F39240400D0521C104301D44000491EBE
:10055000C2B20C06C0092018401C4008802A02D0F4
:1005600003E0002070BD40084000002900DA0020B0
:10057000184370BD70B502464A40D50F40004A008E
:10058000ED0740085208002814D0002A12D0C40DEC
:10059000D30D41020120C0055202490A520AE41A51
:1005A000091812187D34914201D3641C00E04900FF
:1005B000002C01DA002070BD0023914201D3891A7A
:1005C0000343400849000028F7D100290AD091428E
:1005D00002D10121C90705E0914201D2012101E0C8
:1005E0000121C943E005C018401900F0E5FA70BDCB
:1005F000F0B507460846584087B0C00F0490480041
:100600000E46590040084908BC1A884105D23846B0
:1006100031461E4617460B46024658004008104316
:100620004DD0300D039040055900400D490D059007
:10063000401A0290402873DA18030121000B0905C3
:100640000843019004980092002806D01146019AB0
:1006500049420020904100910190029840210A1ADD
:100660000199009800F0F4F905460C466B4607CB5B
:1006700000F00FFAC0197141039A0E0D0023D7172D
:1006800056401A467A40164344D0049A002A2DD088
:10069000029A012A039A15DC1205C01A914101261B
:1006A0003605001C7141D20F059ED20700930192BE
:1006B00002962A46234600F0CDFA07B0F0BD384630
:1006C0003146FAE71605234A0F46B218C01AB74159
:1006D00001210905001C4F4100187F4111461818DF
:1006E0007941E20F10436D19644113E0E2076D0890
:1006F00015436408C2071443039A01261205C01A61
:1007000091413605001C7141CE074008304349082D
:10071000C01851412A46234600F08FFACDE7FFE783
:10072000049801224000C117121A00238B4104983B
:100730003146C417381AA141EEE730B40124E4076A
:10074000634030BC54E730B40124E407614030BC5E
:100750004EE700000000E0FFF0B51FB488B00B9931
:100760000998002448400999C00F49004908099197
:10077000C0070B990090490049080B910999089806
:10078000A64608431CD00B990A98084318D009982C
:1007900001244000420D4800410D09982405000342
:1007A000000B204309900B980003000B20430B9093
:1007B00050181C494018002201901446104605E0CC
:1007C000002001460DB0F0BD032801DA034600E029
:1007D00003239C46C11A0AAE0AE05F0008ADED5B38
:1007E0004F00F75B7D430027AA187C41491C5B1E24
:1007F0006145F2DD410004AB5A522104120C0A4358
:10080000240C401C0828DFDB0198029000997046F8
:1008100001910090059B049A0799069800F01AFA36
:10082000D0E700000DFCFFFFF0B50C465C4085B042
:10083000E40FE40703944C00002664085900944632
:10084000490802460296224321D062460A431ED03E
:100850006200570D4A000E032303550D0124024682
:100860002C492405781B1B0B360B401823432643C9
:10087000614600901C46501AB44103D30098401CB6
:10088000009002E0921800985B41002803DA0020F3
:10089000014605B0F0BD0020012109050746864646
:1008A00011E064461D46141BB54106D36546521B34
:1008B000B341744607430C43A646CD074008490898
:1008C000284392185B4105460D43EAD11046184370
:1008D00013D06046194650407140084306D0604628
:1008E000101AB34106D20122002306E000220123A0
:1008F000DB0702E00122D243531000987446010541
:10090000381C6141029C039D0019694100F095F972
:10091000BFE70000FD030000C217C10F504010B533
:100920004018CA079623002100F04EF910BD10B5FB
:1009300000229623114600F047F910BD0EB5054977
:100940000291002100910A460B46019100F082F9C4
:1009500003B000BD33040000410040020122400A00
:10096000D205090E80187F2901DA002070479629E8
:1009700003DC9622511AC840704796398840704768
:1009800070B5CD0F4A0009030123090B1B0519435C
:100990000B4BED070024520D9A4201DA002070BD86
:1009A000074B34339A4203DC9A1A00F061F802E0F4
:1009B0000449511888402C43F1D0404270BD0000DA
:1009C000FF030000CDFBFFFFC20FD207400040082D
:1009D0000BD0C10D0723DB01C91840020905400AED
:1009E0001143C20840071143704700200146704779
:1009F000CB0FDB07490010B5490802460A4307D070
:100A00000A0D07240903E401090B121B002A01DC6B
:100A1000002010BDC900440F0C43C100E018D205EE
:100A2000801800F0C9F810BD0122D207002800DBB1
:100A3000101A002900DB511A814270470122D207A7
:100A4000002800DB101A002900DB511A8842704789
:100A500010B5202A04DB0146203A9140002010BD49
:100A6000914020239C1A0346E3401943904010BD57
:100A700010B5202A04DB0846203AD040002110BDE2
:100A80000B46D340D0402024A21A91400843194677
:100A900010BD10B5202A06DBCB170846203A1041BE
:100AA000C1170B4306E00B461341D0402024A21A85
:100AB00091400843194610BD3A2800D2303820230F
:100AC00002469A43412A01D310463738884201D35F
:100AD0000020C0437047000002681378511801607D
:100AE0001846704710B5D16004495161044911623C
:100AF00000211161114600F085F910BDD90A0008E6
:100B0000F10D00084268002A08D001680B78491CE2
:100B1000002B03D0521E06C0184670470121C16049
:100B2000881E70474268002A0BD0C3680168002BFA
:100B300007D183688B4204D0491E521C06C0002096
:100B400070470020C0437047F7B5009C0F46002651
:100B50002578641C002D05D000F046F90068405D42
:100B6000C007F5D12B2D02D02D2D18D0641E39468B
:100B70002046029A00F0E4FA002F04D03968A1421E
:100B800001D1009939607105022400290BDA404235
:100B9000002803DD07F03CFB0460A007FEBD012038
:100BA00080020643E3E70028F8DA07F031FB04602F
:100BB0000048FEBDFFFFFF7F002904DA401C49000A
:100BC00001D140084000704770B40024050C05D1E5
:100BD0001024000402D1002921D01124050E01D1D6
:100BE00000020834050F01D10001241D850F01D139
:100BF0008000A41C002801DB4000641C002908D0F0
:100C000020252E1B0D46F540A14000D0012129438F
:100C1000084301061B1B000ADB1D02D5002070BC27
:100C20007047DB05181880180029F8DA401C4900C5
:100C3000F5D170BC40084000704710B5002B08DAB1
:100C40000024401C614192185B411A4301D14008C5
:100C5000400010BDF0B51FB482B005460C0003D0B3
:100C6000084607F041FA02E007F03EFA203002465B
:100C7000009021462846FFF7EBFE049B059A0446A8
:100C80000F4618431143084314D0184610431BD095
:100C9000009840210A1A18460599FFF7E9FE054613
:100CA0000E46009A05990498FFF7D2FE084305D036
:100CB000012004E02046394607B0F0BD0020C117EE
:100CC00005430E432C43374300990E986305401AA1
:100CD0007905E40A00220C43FD0A0A3002D50020FF
:100CE0000146E9E70105101969410C9C0D9D0019A9
:100CF0006941FFF7A2FFDFE7F8B505464800400865
:100D00000C46284304D06000184A400D904201DD93
:100D10002846F8BD15493539884210DC88420BDB7E
:100D2000290D200308432903014305D0E00F104992
:100D3000C00741180020F8BD00200146F8BD161A72
:100D40004020821B28462146FFF782FE074600917D
:100D5000284621463246FFF78BFE3A46009BFFF7B6
:100D60006CFF3246FFF774FEF8BD0000330400004C
:100D70000000F03F10B5002904DB0124E4074042E5
:100D80008C412146002B04DB1C460123DB07524229
:100D9000A3418B4200D1824210BD000010B5002952
:100DA00004DB0124E40740428C412146002B04DB94
:100DB0001C460123DB075242A341994200D19042D5
:100DC00010BD0000064C0125064E05E0E36807CC87
:100DD0002B430C3C98471034B442F7D3FFF774F917
:100DE000389900085899000800487047349900085D
:100DF00010B50446FFF7F8FF0068005DC007C00F9C
:100E000010BD0000F3B58DB000200A9001200B90BA
:100E1000002608460C300C460990626901210998A9
:100E20009047051E2ED0252D2DD0216A88470028F9
:100E300018D06269012109989047216A88470028E3
:100E4000F7D1411E62690998904700E0761CA169BC
:100E50000D988847216A88470028F7D1E1690D98E5
:100E60008847DAE7A1690D9888470746A84201D16B
:100E7000761CD2E7E1690D9888477F1C02D10A9859
:100E8000002877D04AE1002762693D463946099833
:100E900090472A280CD162690121099890470125C1
:100EA00006E00A214F433F18303FEBD410200543A2
:100EB0006269012109989047014630390A2903D215
:100EC0009C498F42DEDCECE7E90600D49A4F6C289F
:100ED0000AD04C2810D0682824D06A282ED0742834
:100EE0000CD07A280AD00DE0626901210998904758
:100EF0006C2823D004211CE02020054362690121D5
:100F000009989047A760656065284FD026DC58286F
:100F100039D01ADC452849D012DC252834D04128A4
:100F2000B0D143E06269012109989047682802D056
:100F300008210D43E6E70120C002DEE70220DCE7DE
:100F4000462833D047282CD130E05B2870D0612868
:100F50002CD063286CD0642823D161E06F284FD057
:100F600009DC662822D0672820D0692826D06E2880
:100F700017D12EE0CEE070284DD073286FD07528A1
:100F80004ED078280DD154E0A1690D9888470546C8
:100F9000252800D16CE7E1690D9888476D1C00D1C8
:100FA0006DE7BBE00A224CE00A2252E00120234612
:100FB0006A46C0430D99C046C046A4E02846402179
:100FC00008436060A807234601D5002239E00022CB
:100FD0003FE0E80700D020E72068011D216000689D
:100FE000290501D5067018E7290701D5068014E701
:100FF000A90703D5F117066041600EE706600CE70C
:101000002846402108436060A807234601D50822EE
:1010100017E008221DE0494928460840606016E0B4
:101020002846402108436060A8072346BCD5B9E79D
:1010300015E02846402108436060A80707D52346ED
:1010400010220120C0430D99C046C0465BE02346F4
:1010500010220120C0430D99FFF744F953E000210D
:101060000C910B460091632802D05B2808D044E025
:101070002079C00601D40120A060012000903CE04E
:1010800062690121099890475E2805D101200C90E2
:1010900001466269099890472169002906D10B46EB
:1010A00001AA8F00491CD3510829FADB002835D04A
:1010B000216900290ED1C117C90E09184A119300E0
:1010C00001AA9A1849094901411A01201368884068
:1010D0000343136062690121099890475D28E5D1B7
:1010E0000C98002808D0002001AB81005A58401C01
:1010F000D2435A500828F8DB01AB01202246C043F6
:101100000D99C046C04600280ADA401C06D10B984B
:10111000002803D00020C0430FB0F0BD0A98FBE7C1
:10112000E90702D10A99491C0A91361800200B9050
:1011300073E60000CCCCCC0CFFFFFF7FF1F7FFFF84
:10114000F7B582B0029C00272078641C15460197F1
:10115000302802D0002D15D015E020780127641C1E
:10116000782804D0582802D0002D09D00BE0002D9B
:1011700001D0102D07D1002710252078641C02E033
:10118000082500E00A250026009610E000990127B6
:1011900069430818020C294680B2714300908E18EA
:1011A0003804864201D3012001902078641C29462E
:1011B000FFF782FC0028E9DA0398002805D0002F09
:1011C00001D0641E00E0029C04600198002806D053
:1011D00007F01EF802210160C81E05B0F0BD00999D
:1011E00030040843F9E770B58C180578401C6B078C
:1011F0005B0F01D10378401C2A1106D10278401CF4
:1012000003E006780E70401C491C5B1EF9D12B07C9
:1012100005D40023521E0DD40B70491CFAE7037845
:10122000401CCB1A921C03E01D780D70491C5B1CFE
:10123000521EF9D5A142D8D3002070BD10B5024886
:1012400000F0A6FD10BD0000E004002070B50546CA
:10125000AC6A606D50210840002836D1606D0121D4
:101260004902084360652068C0680321890208407C
:10127000002826D12020005D002822D120680068A7
:101280000821084008281CD12068806804210840F3
:10129000800800280DD1206840680C21884321680F
:1012A0004860606DFF21013188430121084360657A
:1012B00007E0606D202108436065A06D01210843AF
:1012C000A065204600F05CFD03E0E06C416B284621
:1012D000884770BD70B50546AC6A606D4021084313
:1012E0006065A06D04210843A065204600F04FFD15
:1012F00070BD70B50446A56A284600F047FD70BD74
:1013000038B50446074908480068FEF7F3FE604315
:10131000009002E00098401E009000980028F9D14B
:1013200038BD000040420F00B001002070B50446F7
:101330000025206880688007800F012807D1206879
:101340000068C007C00F002801D0012000E0002085
:10135000002842D12068806821490840002801D136
:10136000012000E00020002809D1606D1021084311
:101370006065A06D01210843A065012070BD206853
:10138000806801210843216888600120FFF7B8FFC9
:1013900001F086FA054617E001F082FA401B0A28A0
:1013A00012D920680068C007C00F0121484048409A
:1013B000002809D1606D102108436065A06D0121EE
:1013C0000843A0650120D9E720680068C007C00F66
:1013D0000121484048400028DED00020CEE7000030
:1013E0001700008010B50021044800F0CFFBC82290
:1013F0000349024800F0DAFE10BD0000E0040020BE
:10140000C00100200178427991420FD14178827960
:1014100091420BD18178C279914207D1C178027A89
:10142000914203D10179427A914201D00121817226
:1014300001784279914211D14178827991420DD15E
:101440008178C279914209D1C178027A914205D15D
:101450000179427A914201D10021817270470000E6
:1014600010B5024800F05FFF10BD00003C050020F1
:1014700010B5024800F057FF10BD0000CC0B002053
:1014800010B5024800F04FFF10BD0000140C002002
:1014900030B51C25446C2C400125A540046C6560CA
:1014A000046863608468102C04D10468A260046836
:1014B000E16003E00468A1600468E26030BD000000
:1014C00000B58DB00022FF2101310520000701F099
:1014D000E0F9002210210520000701F0DAF90022CE
:1014E00001210903A14801F0D4F9FF20F53001F0F2
:1014F00041F8012210210520000701F0CAF9192046
:10150000400101F037F8002210210520000701F00A
:10151000C0F97D20C00001F02DF805F0C5FE02E005
:10152000642001F027F87D23DB0091A291A193486C
:1015300007F0C7F80028F3D102E0642001F01AF8A0
:101540007D23DB008AA28EA18C4807F0BAF8002820
:10155000F3D103E07D20C00001F00CF87D23DB0017
:1015600083A28AA1854807F0ACF80028F2D103E0F5
:101570007D20C00000F0FEFF7D23DB0085A287A157
:101580007E4807F09EF80028F2D102E0642000F0C7
:10159000F1FF7D23DB0084A286A1784807F091F853
:1015A0000028F3D102E0642000F0E4FF7D231B015A
:1015B00083A284A1714807F084F80028F3D102E0E7
:1015C000642000F0D7FF7D23DB0069A280A16B4877
:1015D00007F077F80028F3D102E0642000F0CAFF9A
:1015E0007D23DB0062A27DA1644807F06AF8002831
:1015F000F3D104E0FF212D317F48FEF7EEFD7D237E
:10160000DB005BA27DA15D4807F05BF80028F1D10B
:101610008248834A83A10368774806F051FD8749D1
:10162000088002E0642000F0A5FF7D23DB0084A297
:101630007149524807F045F80028F3D1FF212D31B8
:101640006D48FEF7CAFD8248824B834A83A1009011
:10165000694806F035FD7949088002E0C82000F0AD
:1016600089FF7D23DB0085A26349444807F029F800
:101670000028F3D1FF212D315F48FEF7AEFD834AEC
:1016800083A15D4806F01CFD6C49088002E06420DF
:1016900000F070FF7D23DB0083A25749374807F035
:1016A00010F80028F3D101208449087084A006F0C6
:1016B000F7FC642000F05EFF04F092FE00F0F8F901
:1016C000012211460520000701F0E3F87D20C0004B
:1016D00000F050FF07F028FFFF212D317D48FEF775
:1016E0007CFD7D4880787C4949787B4A12787B4B29
:1016F0009B78089309920A910B9078484178C078BA
:10170000554A2C3AD269544B2C3B5B7A0493059290
:101710000791069050482C38007A4F492C39C979E6
:101720004D4A2C3A92794C4B2C3B5B7900930192B9
:101730000291039048482C38438B474A68A165487A
:1017400006F0BEFC3D49088008460188614803F068
:1017500029FE05F0A9FD002201210520000701F066
:1017600098F8642000F006FF0DB000BD000800509E
:101770004F4B000041540D0A0000000034010020CE
:1017800041542B4347534E0D0A000000415445304D
:101790000D0A0000524541445900000041542B43BA
:1017A00050494E3F0D0A00002B43474154543A2004
:1017B0003100000041542B43474154543F0D0A006F
:1017C000302C310041542B435245473F0D0A000055
:1017D00041542B4353510D0A0000000041542B513A
:1017E0004D544346473D22716D7470696E67222CDB
:1017F000302C33300D0A0000280D002041542B51AD
:101800004D544346473D22726563762F6D6F646584
:10181000222C302C302C310D0A00000070000020EA
:101820003900002041542B514D544F50454E3D300E
:101830002C222573222C25640D0A00003201002081
:101840002B514D544F50454E3A20302C3000000063
:101850009C00002088000020AC0F002041542B5138
:101860004D54434F4E4E3D302C222573222C2225C1
:1018700073222C222573220D0A0000002B514D5497
:10188000434F4E4E3A20302C302C300000010020C7
:1018900041542B514D545355423D302C312C22256F
:1018A00073222C300D0A00002B514D545355423AEF
:1018B00020302C312C302C3000000000380000206B
:1018C0004543323020496E69742046696E697368F9
:1018D0000D0A0000540E00205C0C002024000020A3
:1018E00042352C25732C25642C25642C25642C254D
:1018F000642C25642C25642C25642C25642F2564F8
:101900002F25642D25643A25643A256400000000E3
:1019100072B600BFFEE70000002039498969FF2246
:1019200001321140914208D13649496902221143DE
:10193000344A5161FF21013108433149896901224B
:1019400052021140914208D12E49496901221143A6
:101950002C4A516101214902084329498969012220
:1019600092021140914208D1264949690822114347
:10197000244A5161012189020843214989690122D0
:10198000D2021140914208D11E49496904221143F3
:101990001C4A51610121C902084319498969012280
:1019A00052031140914208D116494969102211434E
:1019B000144A5161012149030843114989690122EF
:1019C00052041140914207D10E4949692022114326
:1019D0000C4A5161202108430949896901221204F6
:1019E0001140914208D10749496940221143054AF3
:1019F00051610121090408430149886170470000D1
:101A000000200240D80F002070B5044600F048FFC7
:101A100005460BE0601C002808D0002C04D000F024
:101A20003FFF401BA04201D9032070BD1F488069C1
:101A3000C007C00F0028EDD11C4880690221084072
:101A4000022801D11949886118488069FF210131B4
:101A50000840884223D015488069490008408842E0
:101A60001DD01248806949000840884217D00F48AD
:101A7000806949000840884211D00C48806989007B
:101A8000084088420BD00948806909010840884213
:101A900005D00648806949100840884203D1FFF705
:101AA0003BFF0120C1E70020BFE70000002002400B
:101AB00010B52F480078012858D100202C49087013
:101AC000002451E000202B4908802B490860401E6B
:101AD0002A490880002031E0810009198900284A3C
:101AE0005158254A12688918234A11608100091942
:101AF0008900234A51581F4A1288914202D21D4937
:101B0000098804E08100091989001D4A5158194AC1
:101B10001180810009198900194A5158174A128801
:101B2000914202D91549098804E081000919890008
:101B3000134A5158114A1180411C88B23228CBDB1C
:101B40000D4909680B4A1288891A0C4A1288881AAA
:101B50003021FEF7CFFA0B4948430001000C610029
:101B6000094A5052601CC4B2042CABDB10BD00000B
:101B700000000020020000200800002004000020D7
:101B8000C0010020E40C00000C000020F8B5044661
:101B900000250026002700BF5020005D012801D14C
:101BA0000220F8BD01215020015500BF2068806847
:101BB0008007800F012806D12068006808400028AF
:101BC00001D0012000E00020002849D1606DFF21F4
:101BD000013188430221084360652068C068870797
:101BE000BF0F2068C068800880002168C860206836
:101BF00080680121C90708432168886000F050FE11
:101C0000064619E000F04CFE801B0A2814D9206813
:101C10008068C00FC0070121C90788420CD1606DE0
:101C20000221884310210843606500BF0021502035
:101C3000015500BF0120B4E720688068C00FC007CD
:101C40000121C9078842DDD02068C0683843216877
:101C5000C860606D0221884301210843606504E08B
:101C6000606D202108436065012500BF00215020E0
:101C7000015500BF284694E770B504460D4600BFE5
:101C80005020005D012801D1022070BD01215020AB
:101C9000015500BF206880680421084080080028A2
:101CA0000AD0606D20210843606500BF00215020EC
:101CB000015500BF0120E8E72D496868884229D016
:101CC0002068806A29684903490B084321688862B3
:101CD00028684003400B27490840012189048842B5
:101CE00008D12548806849010843234988600A20B3
:101CF000FFF706FB28684003400B204908400121FC
:101D0000490488422CD11C488068490108431A497B
:101D1000886025E02068806A29684903490B884368
:101D20002168886228684003400B1249084001215D
:101D30008904884205D110488068490188430E49CA
:101D4000886028684003400B0C4908400121490481
:101D5000884205D10848806849018843064988605F
:101D600000BF00215020015500BF00208DE700007A
:101D70000110000000000448002701400000024458
:101D80000121014A11707047000000207047704720
:101D900070B504462068056820684668042028401D
:101DA000042802D13040042806D008202840082802
:101DB00040D1304008283DD1606D102108400028F6
:101DC00003D1606D4901084360652068C068032144
:101DD00089020840002824D12020005D002820D15D
:101DE0000820284008281CD1206880680421084069
:101DF000800800280DD1206840680C2188432168A4
:101E00004860606DFF21013188430121084360650E
:101E100007E0606D202108436065A06D0121084343
:101E2000A0652046FFF7ACFFA069012802D00C2076
:101E3000216808608020284080280DD1304080280B
:101E40000AD1606D0121090408436065204600F055
:101E50003FF980202168086010202840102818D100
:101E60003040102815D1206B002805D02068C068AC
:101E7000C007C00F002809D0A06D02210843A0654B
:101E80001020216808602046FFF781FF102021689C
:101E9000086070BD10B50446002C01D1012010BDB2
:101EA000606D002806D1A065002150200155204614
:101EB00000F010F9606D10210840102806D020684D
:101EC000806804210840800800280AD0606D102135
:101ED0000843606500BF00215020015500BF01206C
:101EE000DDE7606DFF210131884302210843606511
:101EF000206880688007800F012807D1206800686B
:101F0000C007C00F002801D0012000E000200028F9
:101F10003AD100BF032189076068884207D049424F
:101F20006068884203D04900606888420CD120680C
:101F30000069800080082168086120680069616884
:101F400008432168086112E0206800698000800869
:101F5000216808615C4880680F21890488435A49D8
:101F6000886008468068616808435749886000BFF8
:101F70002068C068182188432168C8602068C0684C
:101F8000A16808432168C8604F488068012149065C
:101F900088434D49886008468068A18E49060843F9
:101FA00049498860206880680121090708400028A5
:101FB00004D1206880680843216888602068C06870
:101FC000424908402168C8602169E068022901D1BE
:101FD000042100E0002108432021095D4903084352
:101FE0002C21095D49000843216B0843A16989033D
:101FF0000843E169C90308432168C96808432168A7
:10200000C860FF21C231606A884207D0A16A606A55
:1020100008432168C96808432168C8602120005D21
:10202000012813D12020005D002807D12068C06856
:102030000121090408432168C86007E0606D202180
:1020400008436065A06D01210843A065E06B01288D
:1020500017D120680069FF21890088432168086141
:10206000216C606C0843A16C08432168096908432E
:10207000216808612068006901210843216808611E
:102080000BE020680069C007C00F002805D0206859
:102090000069400840002168086120684069C00864
:1020A000C0002168486120684069A16B084321682D
:1020B00048610020A065606D02218843012108432A
:1020C00060650020EBE60000002701401902FEFFDA
:1020D0007047000010B586B00446142101A8FEF731
:1020E0007CF82C492068884252D12B48406B491516
:1020F00008432949486300BF0846C06A04210843D1
:102100002549C8620846C06A04210840009000BF03
:1021100000BF00BF2048C06A022108431E49C862B0
:102120000846C06A02210840009000BF00BF24207A
:102130000190032002900020039001A9174800F0AD
:1021400095FA0320019002900020039001A9144801
:1021500000F08CFA13481449086000204860002100
:1021600011488160C1608021016149004161C9005D
:1021700081612021C1610021016200F059F900282C
:1021800001D0FFF7C5FB00BF0748E064846200BFD1
:1021900006B010BD002401400010024000080050AD
:1021A00000040050080002403C050020F8B5044639
:1021B0000D461646002720688068042108408008E4
:1021C000002847D100BF5020005D012801D1022026
:1021D000F8BD01215020015500BF2068C0680843A8
:1021E0002168C860E069012803D02046FFF79EF807
:1021F0000746002F2FD1606D18490840FF2101319B
:10220000084360650020A06500BF002150200155F3
:1022100000BF1348E16CC8621248E16C08631248C1
:10222000E16C48631C202168086020684068102128
:1022300008432168486022681146403133462A46E7
:10224000E06C00F049F920688068042108432168A7
:10225000886000E002273846BAE70000FEF1FFFF81
:102260004D120008F3120008D512000801460022A2
:102270002520405C022808D00420C86300BF00234A
:102280002420435400BF01207047086800680E23D3
:1022900098430B68186008680068400840000B68A5
:1022A00018601C23486C184001238340086C43606D
:1022B00001232520435400BF00232420435400BFA2
:1022C0001046E1E770B5044600252520005D022890
:1022D00003D00420E063012520E0206800680E217F
:1022E0008843216808602068006840084000216831
:1022F00008601C21606C084001218140206C416015
:1023000001212520015500BF00212420015500BFD7
:10231000A06B002802D02046A16B8847284670BDDC
:102320000146C86B704770B50446206C056820688C
:1023300006681C20616C0140042088402840002869
:102340001DD004203040002819D0206800682021CA
:102350000840002805D120680068042188432168CE
:1023600008601C21606C084004218140206C4160A1
:10237000206B00285AD02046216B884756E01C204D
:10238000616C0140022088402840002825D00220AE
:102390003040002821D02068006820210840002813
:1023A00008D1206800680A2188432168086001215B
:1023B000252001551C21606C084002218140206CC1
:1023C000416000BF00212420015500BFE06A0028C1
:1023D0002CD02046E16A884728E01C20616C01402F
:1023E000082088402840002820D0082030400028BD
:1023F0001CD0206800680E218843216808601C21D9
:10240000606C084001218140206C41600120E06344
:1024100001212520015500BF00212420015500BFC6
:10242000606B002802D02046616B884770BD0000B9
:1024300070B50446002C01D1012070BD244A2168EA
:10244000881A1421FDF756FE800060642048083881
:102450002064022125200155206805681D4805409B
:10246000E168A06808432169084361690843A169DC
:102470000843E1690843216A084305432068056071
:1024800001218903A068884217D011487830806AFA
:102490001C22616C11400F228A4090430C49783114
:1024A00088621C22616C114060688840084978315C
:1024B000896A08430649783188620020E063012177
:1024C000252001550021242001550020B5E70000FA
:1024D000080002400F80FFFFF8B504460D4616467F
:1024E0001F460020009000BF2420005D012801D17C
:1024F0000220F8BD01212420015500BF2520005DE8
:1025000001282DD10221252001550020E0632068FB
:10251000006840084000216808603B463246294672
:102520002046FEF7B5FF206B002806D02068006823
:102530000E210843216808600BE020680068042130
:10254000884321680860206800680A2108432168E0
:10255000086020680068012108432168086006E0DF
:1025600000BF00212420015500BF022000900098E8
:10257000BFE7000070B5044600F092F90646254614
:10258000681C002802D0054800782D1800BF00F014
:1025900087F9801BA842FAD370BD0000AC0100206F
:1025A0000348406801210843014948600020704702
:1025B00000200240F8B504460D461646012700BF2C
:1025C0001548007C012801D10220F8BD01201249E4
:1025D000087400BF1148FFF717FA0746002F14D1FF
:1025E0000D494861022C01D12E6008E0012C01D177
:1025F0002E8004E0002C01D12E7000E00127002F76
:1026000003D10648FFF700FA074600BF0020024941
:10261000087400BF3846D8E7D80F002050C3000028
:102620000F484068C007C00F002816D000BFEFF366
:102630001080014600BF72B60A48094AD0600A48B5
:10264000D06000BF81F3108800BF10464068C0070B
:10265000C00F002801D0012070470020FCE70000D7
:1026600000200240EFCDAB890504030270B502469D
:102670000B46002100240020E1E001268E401D6869
:1026800035402C46002C79D01D79AD07AD0F012DBA
:1026900004D01D79AD07AD0F022D18D190684E0002
:1026A0000325B5400646AE4330464E00DD68B540D2
:1026B00028439060506801258D400646AE43304661
:1026C00010265D6835402D098D40284350601D79E6
:1026D000AD07AD0F032D0BD0D0684E000325B540DC
:1026E0000646AE4330464E009D68B5402843D06054
:1026F0001D79AD07AD0F022D15D1CD08AE001546E1
:102700002035A8594D07EE0E0F25B5400646AE43BD
:1027100030464E07F60E1D69B5402843CD08AD0082
:1027200016462036705110684E000325B540064607
:10273000AE4330461D79AD07AD0F4E00B54028437E
:102740001060032636045D683540002D76D03F4D7D
:102750006D6B012635433D4E75633D4D8E08B600C9
:10276000A8598D072E0F0F25B5400646AE433046BB
:1027700005252D07AA4202D100251AE05EE0354D5D
:10278000AA4201D1012514E0334DAA4201D102250C
:102790000FE0324DAA4201D103250AE0304DAA4292
:1027A00001D1042505E02F4DAA4201D1052500E005
:1027B00006258E07360FB5402843254D8E08B600F6
:1027C000A851294DA8680546A54328460126360587
:1027D0005D683540002D02D0054625432846224D30
:1027E000A860E8680546A5432846012676055D6889
:1027F0003540002D02D00546254328461A4DE86095
:1028000068680546A5432846012676045D6835407C
:10281000002D02D0054625432846134D68602868E0
:102820000546A5432846012636045D683540002D3F
:1028300002D00546254328460B4D2860491C1D68DB
:10284000CD40002D00D018E770BD00000010024000
:10285000080001400004005000080050000C005027
:1028600000100050001C0050000401400246136993
:102870000B40002B01D0012000E00020704710B574
:10288000426913460B401B040C4694432343836167
:1028900010BD002A01D0816100E081627047000014
:1028A0000148006870470000A40100200348006848
:1028B000034909784018014908607047A4010020C5
:1028C000AC01002010B500240848006840210843EE
:1028D00006490860032000F00BF8002801D001240D
:1028E00001E000F02FF8204610BD0000002002405B
:1028F00070B50446104801787D20C000FDF7FAFB52
:10290000064631460D480068FDF7F4FB054601F028
:10291000D9F9002801D0012070BD042C07D2002273
:102920002146501E00F02CF80548046001E001200B
:10293000F2E70020F0E70000AC010020B001002029
:10294000A80100200648406B012108430449486360
:102950000846806B090408430149886370470000FA
:10296000001002400146002905DBCB06DB0E0122E8
:102970009A40024B1A6000BF7047000000E100E07F
:1029800070B504460D4616462946204605F0EAFB7A
:1029900070BD000003480068012189020843014915
:1029A0000860704700700040034800680121490238
:1029B0000843014908607047007000400348006800
:1029C000FF21013108430149086070470070004051
:1029D00070B5024600201D4D2D6801267602354057
:1029E0002B461B4D2D6AEC07E40F002B06D0002C64
:1029F00004D0164D2D68B543144E3560134D28682C
:102A000080088000054615432846104D2860114D6A
:102A10002D69042635430F4E3561012901D130BFA0
:102A200002E040BF20BF20BF0A4D2D690426B543F8
:102A3000084E3561002B08D0002C06D0034D2D68C0
:102A4000012676023543014E356070BD00700040AE
:102A50000000014000ED00E0F8B504460027202109
:102A60002068084020287BD120680840202800D119
:102A700000BF8B48806B012109070840002805D161
:102A80008748806B0843864988630127854800682A
:102A9000FF2101310840002816D182480068084310
:102AA00080490860FFF7FCFE064606E0FFF7F8FEE7
:102AB000801B642801D90320F8BD7A480068FF21F3
:102AC000013108400028F1D0754805680321090547
:102AD0000D4060680840A8420DD0091160680840A8
:102AE000884208D16E4800680121490408408842A4
:102AF00001D10120E0E76A48403000690321090460
:102B000008400546002D3DD060680840A84239D0F5
:102B1000202120680840202834D1614840300069D5
:102B200003210904884305465D48403000690121BE
:102B3000C90408435A494031086108460069012127
:102B4000C90488435649403108610846056180152B
:102B500028408915884215D1FFF7A2FE064608E0F5
:102B60003DE0FFF79DFE801B4F49884201D90320BD
:102B7000A2E74B4840300069012149020840400A61
:102B80000028EED020212068084020281FD100BF57
:102B900000BF032109046068084088420AD1404808
:102BA0000068090188430322120561681140084347
:102BB0003B49086000BF3A484030006903221204D4
:102BC00061681140084336494031086100BF012F58
:102BD00005D13348806B39078843314988632078B1
:102BE000C007C00F002809D02D484030C0688008B9
:102BF0008000A16808432A494031C860022120684A
:102C00000840022809D126484030C0680C2188437A
:102C1000E168084322494031C86004212068084027
:102C200004280AD11E484030C06803218902884325
:102C3000216908431A494031C860082120680840CA
:102C400008280AD116484030C06803210903884388
:102C50006169084312494031C860FF210131206891
:102C6000084088420AD10E484030C0680321090458
:102C70008843A16908430A494031C860802120681F
:102C8000084080280AD106484030C06803218904E2
:102C90008843E169084302494031C86000200BE7DE
:102CA000001002400070004088130000F8B5044690
:102CB0000E46002C01D10120F8BD83480068C007F2
:102CC000C00FB04218D2804800684008400030432E
:102CD0007D490860FFF7E4FD054607E0FFF7E0FDEA
:102CE000401B7A49884201D90320E5E7764800680D
:102CF000C007C00FB042F1D102212068084002286D
:102D000007D17348C068F0218843A168084370491F
:102D1000C8602078C007C00F00284CD06068022827
:102D200009D16B480068012149040840400C002883
:102D300024D10120C0E76068032809D164480068F5
:102D4000012149060840400E002817D10120B3E7B1
:102D50006068012808D15E480068042108408008A6
:102D600000280BD10120A7E759480068012149023A
:102D70000840400A002801D101209DE75448C0685E
:102D800080088000616808435149C860FFF788FDEA
:102D90000546606802280FD107E0FFF781FD401B60
:102DA0004A49884201D9032086E74948C0680C2176
:102DB00008400828F1D134E0606803280FD107E00B
:102DC000FFF76EFD401B4149884201D9032073E79C
:102DD0003F48C0680C2108400C28F1D121E0606810
:102DE00001280FD107E0FFF75BFD401B3749884200
:102DF00001D9032060E73648C0680C210840042848
:102E0000F1D10EE007E0FFF74BFD401B2F49884250
:102E100001D9032050E72E48C0680C210840002843
:102E2000F1D129480068C007C00FB04218D9264820
:102E3000006840084000304323490860FFF730FD38
:102E4000054607E0FFF72CFD401B2049884201D9C9
:102E5000032031E71C480068C007C00FB042F1D121
:102E6000042120680840042808D11948C0680721B7
:102E700009028843E16808431549C86008212068B1
:102E80000840082809D11248C0680721C9028843B0
:102E90002169C90008430E49C86000F04BF80C498D
:102EA000C968F022114009090A4A515CC8400A4920
:102EB00008600A480068FFF71BFD0746002F01D095
:102EC0003846F9E60020F7E60020024088130000AB
:102ED0000010024090980008B0010020A8010020D6
:102EE0000148006870470000B001002000B5FFF7FE
:102EF000F7FF0549C968072212021140090A034A6F
:102F0000515CC84000BD000000100240A0980008BD
:102F100000B5FFF7E5FF0549C9680722D202114055
:102F2000C90A034A515CC84000BD000000100240BD
:102F3000A0980008F0B585B03548C06803900C2112
:102F400003980840002852D0042804D008280CD048
:102F50000C284BD10BE02E480068102108400028B7
:102F600001D02C4D00E02C4D4EE02C4D4CE00F21BB
:102F7000890403980840800C29490F5C03218905C6
:102F800003980840800D441C2148C06801210904B1
:102F9000084000280BD02148394605F0BCF82246ED
:102FA000002301910090FDF7CFF806461CE0184879
:102FB00000681021084000280BD01648394605F05B
:102FC000AAF82246002301910090FDF7BDF80646BD
:102FD0000AE01148394605F09EF822460023019187
:102FE0000090FDF7B1F8064635460DE000BF0848F1
:102FF0004068072149030840400B02900298401C9A
:1030000001218140CD0300BF00BF284605B0F0BDBF
:103010000010024000093D000024F40000127A0074
:10302000A8980008FEB50446002C01D10120FEBD81
:10303000FB48C7680C210F40C06801210904084003
:1030400001902078C007C00F002872D0082F04D04C
:103050000C2F0FD1019888420CD1F1480068012152
:1030600049040840400C002863D06068002860D103
:103070000120DCE700BF012109046068884205D116
:10308000E74800680843E649086027E0052109048D
:10309000606888420ED1E248006801218904084333
:1030A000DF49086008460068012109040843DC493B
:1030B000086013E0DA480068012109048843D84910
:1030C000086008460068012109040840009000BF1C
:1030D000D348006889008843D149086000BF606810
:1030E000002813D0FFF7DCFB054606E0FFF7D8FB0E
:1030F000401B642801D9032099E7C94800680121D1
:1031000049040840400C0028F0D012E0FFF7C8FB4B
:10311000054606E0FFF7C4FB401B642801D90320E5
:1031200085E7BF480068012149040840400C002899
:10313000F0D102212068084002286CD1E6682020E6
:103140003040002809D0B648006820210843B4491F
:1031500008602021304688430646042F04D00C2FF7
:1031600034D10198002831D1AD48006804210840CD
:103170008008002803D0002E01D1012057E7A8487D
:1031800040681F2109028843216909020843A449B4
:10319000486008460068092188433043A049086018
:1031A000FFF7C8FE9E49C968F022114009099D4AEF
:1031B000515CC8409C4908609C480068FFF798FB38
:1031C0000290029800283FD0029830E7002E23D0CA
:1031D0009348006809218843304391490860FFF70C
:1031E0005FFB054606E0FFF75BFB401B022801D9A9
:1031F00003201CE78A480068042108408008002852
:10320000F1D0874840681F210902884321690902DB
:1032100008438349486017E081480068400840003F
:103220007F490860FFF73CFB054606E0FFF738FBE7
:10323000401B022801D90320F9E6794800680421DF
:10324000084080080028F1D110212068084010288B
:1032500068D1002F37D17248006849010840400A00
:10326000002804D0A069002801D10120DFE66C48C5
:103270004068072149038843216A08436849486038
:10328000084640680002000A217F09060843644995
:103290004860206A400B401C01218140C8036049FE
:1032A000C968F022114009095E4A515CC8405E4974
:1032B00008605E480068FFF71BFB02900298002838
:1032C0004BD00298B3E6A06900282CD0544800687F
:1032D000FF210131084352490860FFF7E1FA054632
:1032E00006E0FFF7DDFA401B022801D903209EE625
:1032F0004B480068012149020840400A0028F0D0EC
:1033000047484068072149038843216A08434449E4
:103310004860084640680002000A217F0906084309
:103320003F49486019E03E480068FF210131884369
:103330003B490860FFF7B4FA054606E0FFF7B0FA2C
:10334000401B022801D9032071E63548006801219D
:1033500049020840400A0028F0D1082120680840AE
:10336000082839D1606900281BD02D4840300069F9
:10337000012108432A4940310861FFF791FA0546C7
:1033800006E0FFF78DFA401B022801D903204EE624
:103390002348403000690221084040080028F0D04E
:1033A0001AE01F4840300069400840001C49403185
:1033B0000861FFF775FA054606E0FFF771FA401B52
:1033C000022801D9032032E6154840300069022165
:1033D000084040080028F0D1042120680840042853
:1033E0007BD1002000900E48806B890608400028A1
:1033F00006D10B48806B084309498863012000907F
:103400000B480068FF2101310840002820D10848FE
:103410000068084306490860FFF742FA054610E0D5
:103420000010024090980008B0010020A801002080
:1034300000700040FFF734FA401B642801D90320D4
:10344000F5E587480068FF21013108400028F1D0E8
:1034500000BFFF210131A068884205D18148006981
:1034600008438049086130E0A06800280DD17D48FC
:103470000069FF21013188437A49086108460069E3
:1034800009158843774908611FE005210902A068F2
:1034900088420DD1734800690121890208437149AE
:1034A000086108460069891508436E4908610CE007
:1034B0006C480069FF21013188436A490861084668
:1034C0000069091588436749086100BFA0680028A2
:1034D00015D0FFF7E5F9054608E031E0FFF7E0F920
:1034E000401B6149884201D90320A0E55D4800697D
:1034F000012149020840400A0028EFD013E0FFF7FD
:10350000CFF9054607E0FFF7CBF9401B5649884243
:1035100001D903208BE55348006901214902084085
:10352000400A0028EFD10098012808D14D484038C2
:10353000806B0121090788434A494039886300BFED
:10354000606A00284CD00C2F69D0606A022848D1EC
:103550004448403800680121090688434149403900
:103560000860FFF79DF9054606E0FFF799F9401B53
:10357000022801D903205AE53A4840380068012161
:1035800049060840400E0028EFD1E16AA06A0843CE
:10359000216B084333494039C968FD221204914325
:1035A000084330494039C8600846006801210906CF
:1035B00008432C4940390860FFF772F9054606E0D8
:1035C000FFF76EF9401B022801D903202FE525489B
:1035D00040380068012149060840400E0028EFD01D
:1035E0003CE02048403800680121090688431D4915
:1035F00040390860FFF754F9054606E0FFF750F937
:10360000401B022801D9032011E516484038006804
:10361000012149060840400E0028EFD11EE0606AF3
:10362000012800D103E50F484038C068019001210E
:10363000090401980840A16A88420DD10F2189042C
:1036400001980840E16A884206D103218905019862
:103650000840216B884201D00120E8E40020E6E424
:1036600000700040401002408813000070B504460E
:10367000002500BF2020005D012801D1022070BD7F
:1036800001212020015500BF02212120015500BF4A
:10369000CA202168486253202168486200BF206820
:1036A00080680121890288432168886020688068D9
:1036B00001218903884321688860FFF7F1F80546F6
:1036C00015E0FFF7EDF8401B7D21C90088420ED9B7
:1036D00000BFFF202168486200BF0321212001555F
:1036E00000BF00212020015500BF0320C7E720684C
:1036F000C0680421084080080028E2D000BFFF20F5
:103700002168486200BF01212120015500BF00212E
:103710002020015500BF0020B1E70000F8B50446A5
:103720000D4616465949096848097D21C900FCF72C
:10373000E1FC7D21C9004843009000BF2020005DCE
:10374000012801D10220F8BD01212020015500BF30
:1037500002212120015500BFCA2021684862532060
:103760002168486200BF2068806801218902084002
:1037700000281CD000BF0098401E00900098002830
:103780000ED100BFFF202168486200BF0321212025
:10379000015500BF00212020015500BF0320D2E7C2
:1037A0002068C0680421084080080028E3D1206810
:1037B0008068012189028843216888602068C06888
:1037C00080210840324908432168C8602F490968B0
:1037D00048097D21C900FCF78DFC7D21C9004843C3
:1037E000009000BF0098401E0090009800280ED165
:1037F00000BFFF202168486200BF0321212001553E
:1038000000BF00212020015500BF03209BE7206856
:10381000C0680421084080080028E3D02068806840
:10382000C008C00021688860206880683043216833
:103830008860206845611748006801210905084330
:1038400014490860084680680121090508431149A8
:1038500088602068806801218903084321688860A6
:10386000206880680121890208432168886000BFC0
:10387000FF202168486200BF01212120015500BFBF
:1038800000212020015500BF00205CE7B00100208E
:103890007FFBFFFF000401407047000010B50446A5
:1038A000012000050F4948612068806801218903D3
:1038B0000840800B002811D02068C068091108401A
:1038C000800A00280AD02068C06880210840064984
:1038D00008432168C8602046FFF7DEFF0121212050
:1038E000015510BD000401407FFBFFFFF0B5064607
:1038F0000C461746002530684068124908400546C6
:10390000FF2000042840000CE0701F200002284027
:10391000000A6070A806800EA070072040032840AF
:10392000400B2070002F0BD1E07802F0F3FCE07028
:10393000607802F0EFFC6070A07802F0EBFCA07001
:103940000020F0BD3FFFFF00F0B505460C461746CE
:1039500000262868806A6060286800694004400C7E
:10396000A060286800681249084006463F2000040D
:103970003040000C20707F2000023040000A607050
:103980007006400EA070012080053040800DE07070
:10399000002F0BD1207802F0BDFC2070607802F07F
:1039A000B9FC6070A07802F0B5FCA0700020F0BDFA
:1039B0007F7F7F0070B504460125002C01D10120D6
:1039C00070BD2120005D002805D100212020015577
:1039D000204600F055F80221212001552068C068DA
:1039E000102108400009002840D100BFCA202168EA
:1039F000486253202168486200BF204602F0A4FCC0
:103A00000546002D1DD1206880681C4908402168AA
:103A10008860216960680843A16908432168896852
:103A20000843216888602168E068086120680069AF
:103A300021890904084321680861204602F0ADFC91
:103A40000546002D0DD12068C06C800880002168DB
:103A5000C8646169E06908432168C96C084321684A
:103A6000C86400BFFF202168486200E00025002DE7
:103A700002D10121212001552846A1E7BFFF8FFF78
:103A800010B504460949206888420ED108480069EB
:103A900001218904084306490861002211460220D9
:103AA000FEF76EFF0220FEF75DFF10BD002800400C
:103AB00040100240F8B505460C461746002000901D
:103AC00000BF2020405D012801D10220F8BD012166
:103AD0002020415500BF022121204155002F09D14E
:103AE000607810210840102804D16078EF21084048
:103AF0000A306070002F11D1E07802F018FC030446
:103B0000607802F014FC00020343A07802F00FFC7E
:103B1000034320784003034300930AE0E078000465
:103B2000617809020843A1780843217849030843D2
:103B3000009000BFCA202968486253202968486263
:103B400000BF284602F000FC0646002E08D10D49B1
:103B50000098084029684860284602F01EFC064686
:103B6000002E02D101212120415500BFFF202968EC
:103B7000486200BF00BF00212020415500BF3046F1
:103B8000A4E700003FFFFF00F8B504460D461746C6
:103B90000020009000BF2020005D012801D10220FC
:103BA000F8BD01212020015500BF0221212001552F
:103BB000002F1BD12068806840210840002800D0D9
:103BC00002E00020E87000BF287802F0B0FB030498
:103BD000687802F0ACFB00020343A87802F0A7FB70
:103BE0000343E87880050343009314E0206880686D
:103BF00040210840002800D002E00020E87000BF0B
:103C000028780004697809020843A9780843E9780C
:103C100089050843009000BFCA20216848625320EC
:103C20002168486200BF204602F08EFB0646002E47
:103C300017D11449009808402168086020688068FE
:103C4000012189048843216888602969E86808435C
:103C500021688968084321688860204602F09DFB3E
:103C60000646002E02D101212120015500BFFF2070
:103C70002168486200BF00BF00212020015500BF1D
:103C800030468DE77F7F7F0070B5044600250C48E5
:103C90002168C860FEF704FE054608E0FEF700FE56
:103CA000401B7D21C900884201D9032070BD2068D6
:103CB000C068202108400028F0D00020F6E700006E
:103CC0005FFF010070B504462546681E0949884219
:103CD00001D901200CE0681E074948610321081F33
:103CE00004F040FA002004498861072008610020A0
:103CF00070BD0000FFFFFF0000E000E030B50246AD
:103D00000B4600BF3820805C012801D1022030BD65
:103D100001253820855400BF0225392085541068BC
:103D200044681068816870252046A84304461868D6
:103D30000443106844600125AD071068A8420BD009
:103D40000E4D1068A84207D00D4D1068A84203D050
:103D50000C4D1068A84207D180250846A8430146AB
:103D6000586801431068816001253920855400BFDF
:103D700000253820855400BF0020C8E7000400401B
:103D8000000801400014014010B50446002C01D188
:103D9000012010BD3920005D002805D10021382008
:103DA0000155204600F018F8022139200155211D47
:103DB000206802F071FC01213E20015500BF3A202D
:103DC00001553B2001553C2001553D20015500BFC8
:103DD000392001550020DCE710B504460121890790
:103DE0002068884206D10D48806B012108430B49A9
:103DF000886311E00A49206888420DD10748806B2A
:103E00002021084305498863002211461220FEF74D
:103E1000B7FD1220FEF7A6FD10BD00000010024005
:103E20000014004001463920405C012801D00120E7
:103E300070470223392043540868C068012318439F
:103E40000B68D86001239B07086898420BD0104B81
:103E50000868984207D00F4B0868984203D00E4B71
:103E6000086898420CD1086880684207520F062AF9
:103E70000CD008680068012318430B68186005E03F
:103E800008680068012318430B6818600020CFE71A
:103E9000000400400008014000140140F8B5044649
:103EA0000D460020009000BF3820005D012801D1A0
:103EB0000220F8BD01213820015500BF0221392020
:103EC0000155206886687721304688430646FF21E1
:103ED00009023046884306462068866028685028D4
:103EE00034D00CDC202851D004DC00284CD0102821
:103EF00052D14AE030284AD040284DD13AE06028DB
:103F00002ED0702807D001210903401A02D0401A90
:103F100042D10DE043E0EB686A68A968206802F0CE
:103F20000AFC20688668772006432068866036E0B1
:103F3000EB686A68A968206802F0FDFB2068806869
:103F40000121890308432168886028E0EA686968DC
:103F5000206802F08BFC5021206802F0FAFB1EE082
:103F6000EA686968206802F09AFC6021206802F023
:103F7000F0FB14E0EA686968206802F077FC4021F1
:103F8000206802F0E6FB0AE000BF00BF00BF29681E
:103F9000206802F0DEFB02E00120009000BF00BFBD
:103FA00001213920015500BF00213820015500BFF3
:103FB00000987EE710B586B00446142101A8FCF7EE
:103FC0000CF901218907206888421AD100BF0E48E8
:103FD000C06A022108430C49C8620846C06A02212F
:103FE0000840009000BF00BF08200190022002900E
:103FF0000020039004900220059001A90348FEF7D9
:1040000035FB06B010BD0000001002400004005057
:10401000F8B504460D461646002700BF3820005D5F
:10402000012801D10220F8BD01213820015500BF2F
:10403000002E06D0042E1BD0082E33D00C2E62D1B9
:1040400047E02946206802F090FB2068806908213B
:1040500008432168886120688069042188432168B9
:10406000886120688069E9680843216888614CE0BC
:104070002946206802F095FB206880690121C90269
:10408000084321688861206880690121890288438A
:104090002168886120688069E9680902084321680D
:1040A000886132E02946206802F09DFB2068C069E3
:1040B000082108432168C8612068C0690421884339
:1040C0002168C8612068C069E96808432168C8613F
:1040D0001BE02946206802F0A5FB2068C069012189
:1040E000C90208432168C8612068C06901218902AA
:1040F00088432168C8612068C069E96809020843EB
:104100002168C86101E0012700BF00BF00BF002196
:104110003820015500BF384685E710B50446002C0D
:1041200001D1012010BD3920005D002805D10021FA
:1041300038200155204600F018F802213920015599
:10414000211D206802F0A8FA01213E20015500BF80
:104150003A2001553B2001553C2001553D20015599
:1041600000BF392001550020DCE7704770B50446D8
:104170000D46002D02D13A20005D0BE0042D02D146
:104180003B20005D06E0082D02D13C20005D01E0EF
:104190003D20005D012801D0012070BD002D03D11C
:1041A00002213A2001550EE0042D03D102213B20CB
:1041B000015508E0082D03D102213C20015502E001
:1041C00002213D20015501222946206802F0A2FA71
:1041D00001218907206888420BD010492068884255
:1041E00007D00F492068884203D00E4920688842D2
:1041F0000CD1206880684607760F062E0CD0206808
:104200000068012108432168086005E02068006813
:1042100001210843216808600020BEE70004004037
:10422000000801400014014070477047F8B504468B
:10423000E56F80200659206880688021084080282A
:1042400027D1212D25D100BF03F0E6FF074601202D
:1042500003F0F4FF2068806880218843216888602B
:10426000384603F0EBFF00BF206F00280ED0206F10
:10427000FDF7FCFF002809D0206FFEF751F8202839
:1042800004D11021842001510320F8BD204603F001
:1042900025F92068806840210840402827D1222E37
:1042A00025D100BF03F0B8FF0746012003F0C6FF89
:1042B000206880684021884321688860384603F080
:1042C000BDFF00BF606F00280ED0606FFDF7CEFF0E
:1042D000002809D0606FFEF723F8202804D11021B0
:1042E000842001510320D0E7204603F09CF80020F1
:1042F000CBE7000010B504460A492068884202D185
:1043000009A003F0CDFE0C492068884202D10BA021
:1043100003F0C6FE0D492068884202D10CA003F0CC
:10432000BFFE10BD004800404C5055415254312D45
:104330006572726F720D0A00003801405553415288
:1043400054312D6572726F720D0A000000440040F6
:104350005553415254322D6572726F720D0A00002E
:10436000F0B585B004462068C569206806682068F5
:104370008768EF4828400390039800280FD1202039
:10438000284000280BD020203040002807D0A06E05
:10439000002802D02046A16E884705B0F0BD0398E2
:1043A00000287DD0F807C00F002803D1E148304035
:1043B0000028F6D0E807C00F00280DD0FF200130FC
:1043C0003040002808D0012021680862842000596C
:1043D00001210843842108510220284000280CD0E4
:1043E000F807C00F002808D0022021680862842046
:1043F0000059042108438421085104202840002842
:104400000CD0F807C00F002808D0042021680862EB
:1044100084200059022108438421085108202840A3
:10442000002810D020203040002803D1F807C00F0A
:10443000002808D00820216808628420005908213B
:104440000843842108510120C002284000280ED0D2
:10445000012080063040002809D00120C0022168D8
:1044600008628420005920210843842108518420B7
:104470000059002854D020202840002809D02020AE
:104480003040002805D0A06E002802D02046A16E42
:10449000884784200059029020688068402100E00D
:1044A0003FE00840402804D0282102980840002816
:1044B00030D0204602F0B7FF2068806840210840D5
:1044C000402823D100BF03F0A7FE0190012003F094
:1044D000B5FE206880684021884321688860019883
:1044E00003F0ACFE00BF606F00280BD09248616FF4
:1044F0008863606FFDF7E6FE002811D0606F816B66
:1045000088470DE02046FFF7F5FE09E02046FFF75B
:10451000F1FE05E02046FFF7EDFE00218420015169
:104520003BE7206E01287DD110202840002879D05B
:10453000102030400028FAD010202168086220683E
:10454000806840210840402873D1606F006840684F
:1045500080B20190019800286AD05820015B019830
:10456000814265DD5A2101980853606F0068006838
:104570002021084000284CD100BF03F04DFE0090E0
:10458000012003F05BFE20680068FF2101318843B1
:1045900021680860009803F051FE00BF00BF03F0DF
:1045A0003BFE0090012003F049FE2068806840082F
:1045B000400021688860009803F040FE00BF00BF03
:1045C00003F02AFE0090012003F038FE2068806886
:1045D0004021884321688860009803F02FFE00BFC7
:1045E0002021802001510020206600BF03F014FE2E
:1045F0000090012003F022FE20680068102188430B
:1046000021680860009803F019FE00BF606FFDF795
:104610002DFE022060665820025B5A20005B101AB3
:1046200081B202E054E004E002E02046FFF7FCFD26
:10463000B3E65820015B5A20005B081A80B2019053
:104640005A20005B002842D0019800283FD000BFCC
:1046500003F0E2FD0090012003F0F0FD2068006807
:10466000FF212131884321680860009803F0E6FDAE
:1046700000BF00BF03F0D0FD0090012003F0DEFD7D
:10468000206880684008400021688860009803F036
:10469000D5FD00BF20218020015100202066A066AA
:1046A00000BF03F0B9FD0090012003F0C7FD2068B2
:1046B00000681021884321680860009803F0BEFD5F
:1046C00000BF0220606620460199FFF7ADFD64E659
:1046D00001200005284000280CD00120800538402A
:1046E000002807D001200005216808622046FFF756
:1046F0009CFD52E68020284000280AD080203040CF
:10470000002806D0E06E002802D02046E16E8847DF
:1047100043E640202840002807D0402030400028B1
:1047200003D0204602F0BFFE37E600BF35E60000AA
:104730000F08000020010004C572000810B50446EF
:10474000002C01D1012010BDA069002800D000E09C
:1047500000BFE06F002805D10021782001552046D8
:1047600000F02CF82420E067206800684008400032
:1047700021680860204603F067F8012800D1E2E7CD
:10478000606A002802D0204602F096FC206840684B
:104790000921C902884321684860206880682A216D
:1047A00088432168886020680068012108432168E7
:1047B0000860204602F0F8FCC5E7000010B586B09E
:1047C0000446142101A8FBF708FD654920688842CA
:1047D0002CD16448806B01218904084361498863B6
:1047E00000BF0846C06A022108435E49C862084605
:1047F000C06A02210840009000BF00BF0320800271
:1048000001900220029000200390032004900420D5
:10481000059001A95448FDF729FF002211461D20EB
:10482000FEF7AEF81D20FEF79DF896E04F49206890
:10483000884246D14B48406B0121890308434949CE
:10484000486300BF0846C06A022108434549C86260
:104850000846C06A02210840009000BF00BFC02087
:104860000190022002900020039003200490002079
:10487000059001A93C48FDF7F9FE3D483D49086017
:104880000320486000213B488160C16080210161B4
:10489000002141618161C1610162FDF7C9FD00280C
:1048A00001D0FDF735F800BF32486067846200BF71
:1048B000002211461B20FEF763F81B20FEF752F87A
:1048C0004BE02D492068884247D12648806B012162
:1048D000490408432349886300BF0846C06A012190
:1048E00008432049C8620846C06AC007C00F00904C
:1048F00000BF00BF0C200190022002900020039016
:10490000032004900420059001A905200007FDF76D
:10491000ADFE17482830194908600420486000217E
:1049200016488160C160802101610021416181617F
:10493000C1610162FDF77CFD002801D0FCF7E8FFB2
:1049400000BF0E486067846200BF002211461C2031
:10495000FEF716F81C20FEF705F806B010BD0000A3
:1049600000480040001002400004005000380140A0
:1049700030000240CC0B002000440040140C00200A
:10498000F8B504460D46164680200059202838D137
:10499000002D01D0002E01D10120F8BD0121090315
:1049A000A068884208D12069002805D1E807C00F17
:1049B000002801D00120F0E700202066124920687D
:1049C000884218D0206840680121C90508400028A5
:1049D00011D000BF03F020FC0746012003F02EFC9D
:1049E000206800680121890608432168086038466C
:1049F00003F024FC00BF32462946204603F0BCF8F1
:104A0000CBE70220C9E7000000480040F8B50446A3
:104A10000D46164680200059202838D1002D01D09F
:104A2000002E01D10120F8BD01210903A0688842B0
:104A300008D12069002805D1E807C00F002801D05F
:104A40000120F0E70020206612492068884218D033
:104A5000206840680121C9050840002811D000BF26
:104A600003F0DAFB0746012003F0E8FB206800684A
:104A700001218906084321680860384603F0DEFBFF
:104A800000BF32462946204603F0E4F8CBE7022077
:104A9000C9E700000048004010B504461B492068E3
:104AA000884231D101221A491A48FFF7AFFF1A484C
:104AB00000880121C9030840002825D11648008834
:104AC000C8281ADA00201549096848621248008887
:104AD000002807D1114800680068012108430F49E8
:104AE000096808600A4801780B4802880088401C61
:104AF000094B18800A48815406E0074800880121C4
:104B0000C90308430449088010BD00000048004064
:104B10001A000020340A002018000020E80C0020B1
:104B2000DC0700207047FFB583B004460D461746EA
:104B3000E06F202869D1002D01D0002F02D1012083
:104B400007B0F0BD01210903A068884208D120699F
:104B5000002805D1E807C00F002801D00120EFE7A9
:104B60000021842001512120E067FDF799FE01908A
:104B7000502007535220075301210903A06888429F
:104B800005D12069002802D10026029502E02E46B8
:104B90000020029023E00698009000228021204609
:104BA000019B03F0E7F8002803D02020E0670320F2
:104BB000C6E7002E09D102980088C005C00D216803
:104BC00088620298801C029003E030782168886235
:104BD000761C5220005B401E81B2522001535220AD
:104BE000005B0028D7D10698009000224021204683
:104BF000019B03F0BFF8002803D02020E0670320CA
:104C00009EE72020E06700209AE7022098E770479F
:104C100002A003F045FA00BFFEE70000486172649D
:104C20004661756C745F48616E646C65720000006B
:104C300070B50825002401F02FFC13E06006040E77
:104C4000002001F007FC142003F0BEFE142003F046
:104C5000BBFE012001F0FEFB142003F0B5FE01F0C5
:104C60000DFC04432846691ECDB20028E6D101F0B0
:104C7000F1FB142003F0A8FE01F03AFC204670BDC1
:104C800010B5002001F020FC142003F09DFE14203C
:104C900003F09AFE012001F0DDFB142003F094FEE6
:104CA000002001F0D7FB142003F08EFE10BD70B57C
:104CB0000446082518E0002001F0CCFB142003F086
:104CC00083FE80212140084601F0FEFB142003F002
:104CD0007BFE6006040E142003F076FE012001F036
:104CE000B9FB142003F070FE2846691ECDB20028DF
:104CF000E1D101F0AFFB142003F066FE70BD10B5EA
:104D0000012001F0E1FB142003F05EFE142003F00B
:104D10005BFE012001F09EFB142003F055FE0020F5
:104D200001F098FB142003F04FFE10BD10B50120D8
:104D300001F0CAFB142003F047FE012001F08AFBBA
:104D4000142003F041FE002001F0BEFB142003F00C
:104D50003BFE002001F07EFB142003F035FE10BD69
:104D600010B5002001F076FB142003F02DFE00208A
:104D700001F0AAFB142003F027FE012001F06AFBDA
:104D8000142003F021FE012001F09EFB142003F00B
:104D90001BFE10BD10B5052401F07EFB142003F0AE
:104DA00013FE012001F056FB142003F00DFE0CE071
:104DB000601E84B2142003F007FE002C05D101F020
:104DC00097FBFFF7CDFF012010BD01F057FB002836
:104DD000EED101F08DFB002001F03CFB142003F02C
:104DE000F3FD0020F0E7000010B52748FFF7B8FA00
:104DF00025480068C06908210840C008002809D07B
:104E000008202149096808621F480068406A1E4856
:104E10000068806A1D480068C06902210840400897
:104E2000002809D00220194909680862174800685B
:104E3000406A16480068806A14480068C069C00764
:104E4000C00F012148404840002809D001200F49E7
:104E5000096808620D480068406A0C480068806A6A
:104E60000A480068C069042108408008002809D069
:104E7000042006490968086204480068406A03483B
:104E80000068806A10BD0000340A0020BC0A0020BF
:104E900010B50022022105200007FDF7FAFC0022D0
:104EA0000121C9020548FDF7F4FC012291020348E3
:104EB000FDF7EFFCC820FDF75DFB10BD00080050BA
:104EC00007B56846417854A003F0EAF86846807850
:104ED000002804D0402806D080280CD107E053A039
:104EE00003F0DEF808E058A003F0DAF804E05DA073
:104EF00003F0D6F800E000BF00BF6846C078C106E6
:104F0000C90E002928D14011030003F01CF908053F
:104F1000090D1115191D212559A003F0C1F81CE038
:104F20005BA003F0BDF818E05DA003F0B9F814E051
:104F30005FA003F0B5F810E061A003F0B1F80CE059
:104F400063A003F0ADF808E065A003F0A9F804E061
:104F500067A003F0A5F800E000BF00BF6846007935
:104F6000030003F0F0F8080705060B0F13171B1FCB
:104F700000BF00BF62A003F093F814E064A003F048
:104F80008FF810E066A003F08BF80CE068A003F047
:104F900087F808E066A003F083F804E064A003F05B
:104FA0007FF800E000BF00BF6846807A002806D086
:104FB000012808D002280AD0032810D10BE061A0F4
:104FC00003F06EF80BE064A003F06AF807E067A056
:104FD00003F066F803E06AA003F062F800BF00BFC8
:104FE000684640790246FF329B326846417969A0A3
:104FF00003F056F868468079002802D0202808D1AE
:1050000003E06CA003F04CF803E06EA003F048F856
:1050100000BF00BF0EBD0000C4A3BFE9B5D8D6B71E
:105020003A3078253032580D0A00000038CAFDBEEB
:10503000DDCEBB20CEDED0A3D1E92031CDA3D6B9C1
:10504000CEBB0D0A0000000038CAFDBEDDCEBB207D
:10505000C6E6D0A3D1E92031CDA3D6B9CEBB0D0A87
:105060000000000038CAFDBEDDCEBB20C5BCD0A309
:10507000D1E92031CDA3D6B9CEBB0D0A0000000086
:10508000B2A8CCD8C2CA20313230300D0A0000009C
:10509000B2A8CCD8C2CA20323430300D0A00000089
:1050A000B2A8CCD8C2CA20343830300D0A00000073
:1050B000B2A8CCD8C2CA20393630300D0A00000060
:1050C000B2A8CCD8C2CA2031393230300D0A000023
:1050D000B2A8CCD8C2CA2033383430300D0A000010
:1050E000B2A8CCD8C2CA2035373630300D0A0000FD
:1050F000B2A8CCD8C2CA203131353230300D0A00C6
:10510000BFD5D6D0CBD9C2CA20322E344B0D0A001F
:10511000BFD5D6D0CBD9C2CA20342E384B0D0A0009
:10512000BFD5D6D0CBD9C2CA20392E364B0D0A00F6
:10513000BFD5D6D0CBD9C2CA2031392E324B0D0AB9
:1051400000000000B7A2C9E4B9A6C2CA2033336484
:10515000626D0D0A00000000B7A2C9E4B9A6C2CA78
:1051600020333064626D0D0A00000000B7A2C9E46C
:10517000B9A6C2CA20323764626D0D0A0000000071
:10518000B7A2C9E4B9A6C2CA20323464626D0D0A5E
:1051900000000000D0C5B5C03A3078253032582024
:1051A00020B6D4D3A6C6B5C2CA25644D487A0D0A26
:1051B00000000000CDB8C3F7B4ABCAE4C4A3CABDB5
:1051C0000D0A0000B6A8B5E3B4ABCAE4C4A3CABDD7
:1051D0000D0A000000B58DB0FFF75AFE38A002F0AE
:1051E0005FFFC820FDF7C6F900F09CF8C820FDF766
:1051F000C1F900220121C9023648FDF74AFB00220D
:10520000012189023348FDF744FBC820FDF7B2F9BC
:1052100001F0E6F8FCF74CFC0122114605200007DE
:10522000FDF737FB7D20C000FDF7A4F904F07CF901
:10523000FF212D312848FAF7D0FF2848C08A284995
:105240008978274A5278264B1B7809930A920B914A
:105250000C90244881784278C078204B403BDB6931
:1052600005930792089106901C484038427A017ACB
:10527000C0791A4B403B9B79019302AB07C3174897
:1052800040384079009015484038438B16484278A2
:1052900016A1114802F014FF20490880FF23084698
:1052A00002880D491E48FFF73EFC0022012105201F
:1052B0000007FDF7EEFA6420FDF75CF90DB000BDC4
:1052C000D7BCB1B8C9E8D6C34C6F7261C4A3BFE9FB
:1052D0000D0A000000080050540E0020C00F0020EE
:1052E0005C0C0020240000202D00002042352C25DD
:1052F000642C25642C25642C25642C25642C2564C1
:105300002C25642C25642C25642F25642F25642DE1
:1053100025643A25643A25642C2564003201002076
:10532000440B00200EB5C021684601700021417079
:1053300007218170114801786846C1700F48417893
:1053400068460171002141710C4880780B49C97889
:1053500008430A4909790143684681710021C171F6
:10536000064841796846017283214172FF230A226F
:1053700069460348FFF7D7FB0EBD00002D00002053
:10538000440B002010B59C240122D1030448FDF7F2
:1053900080FA022001F039F9204602F06FFE10BDBC
:1053A0000004005070B505460C46FF212D3117480A
:1053B000FAF713FF2346164A16A1144802F080FE9E
:1053C00002E00120FDF7D6F87D231B0119A20F4949
:1053D000194803F076F90028F3D17D23DB0022463B
:1053E00029461648FFF79FFBC82215A119A002F015
:1053F000BBF9002803D11AA002F052FE02E01EA061
:1054000002F04EFE01F050FF70BD0000280D00209C
:10541000CE0000202041542B514D54505542455848
:105420003D302C302C302C302C222573222C25643E
:105430000D0A00003E00000034010020340A002064
:105440002B514D5450554245583A20302C302C3079
:10545000000000007075626C6973685F41434B0027
:105460007075626C697368207375636365737366C6
:10547000756C0D0A000000007075626C697368201D
:105480006661696C0D0A00001CB500200090019057
:1054900030483149086000212F48C163012080074E
:1054A0002D49486000212C4881600321816301213E
:1054B00001610021C1600121001D017700214177B8
:1054C000001F8162FF21C23141620121243001723B
:1054D0000421243841610021016381614163C1617C
:1054E000FCF7D8FC002801D0FCF712FA00211A487A
:1054F000FCF74CFB002801D0FCF70AFA1748009093
:105500004014019069461448FCF7B6FB002801D00E
:10551000FCF7FEF91248009069460F48FCF7ACFB17
:10552000002801D0FCF7F4F90E48009069460A48BB
:10553000FCF7A2FB002801D0FCF7EAF90A4800902A
:1055400069460548FCF798FB002801D0FCF7E0F914
:105550001CBD000000240140E004002000010020E8
:1055600000020024001000300080003C08B500BF9D
:105570001248006B01210843104908630846006B7C
:10558000C007C00F009000BF00BF002211460920D5
:10559000FDF7F6F90920FDF7E5F9002211460A208A
:1055A000FDF7EEF90A20FDF7DDF9002211460B2088
:1055B000FDF7E6F90B20FDF7D5F908BD0010024014
:1055C00000B587B0142102A8FAF707FE00BF6D48A6
:1055D000C06A042108436B49C8620846C06A0421B6
:1055E0000840019000BF00BF00BF6648C06A80212C
:1055F00008436449C8620846C06A80210840019097
:1056000000BF00BF00BF5F48C06A012108435D4979
:10561000C8620846C06AC007C00F019000BF00BF43
:1056200000BF0846C06A022108435649C8620846BE
:10563000C06A02210840019000BF00BF00BF51486E
:10564000C06A082108434F49C8620846C06A082159
:105650000840019000BF00BF00224B494B48FDF7B6
:1056600018F900224A4905200007FDF712F9002227
:1056700048494948FDF70DF9002204214748FDF744
:1056800008F981208001029000200390049002A973
:105690003E48FCF7EBFF3C480290012003900020BD
:1056A00004900220059002A93848FCF7DFFF384833
:1056B000029001200390002004900220059002A98E
:1056C00005200007FCF7D2FF472040010290002090
:1056D0000390049002A905200007FCF7C7FF2D489E
:1056E000029001200390002004900220059002A95E
:1056F0002948FCF7BBFF1120000202900320039011
:105700000020049002A92448FCF7B0FF03204003C6
:10571000029011200390002004900220059002A91D
:105720001D48FCF7A3FF01204002029003200390D4
:105730000020049002A91548FCF798FF0120800280
:105740000290032003900020049002A90520000786
:10575000FCF78CFF042002900120039000200490AD
:105760000220059002A90D48FCF780FF23200001CC
:10577000029000200390049002A90748FCF776FFEE
:1057800007B000BD001002409B1D00000008005043
:10579000139300000480000000040050000C00502F
:1057A00010B50D480D490860E12040024860002115
:1057B0000A488160C16001610C2141610021816161
:1057C00001620020054948620846FEF7B7FF00283D
:1057D00001D0FCF79DF810BD00480040340A0020BD
:1057E00000B587B0142102A8FAF7F7FC0020019059
:1057F000224823490860002048607F2120488160BA
:10580000FF21C1600021016141618161C161FEF739
:10581000D1F8002801D0FCF77BF80E216846017210
:105820000F21417200218172002005900690002214
:1058300002A91348FEF7A8F9002801D0FCF768F880
:1058400007216846017109214171012181711821E7
:10585000C171002201A90A48FEF72CF9002801D0E5
:10586000FCF756F804220A210548FDF757FF0028E7
:1058700001D0FCF74DF807B000BD00000028004043
:10588000840C002000B58BB0002007900890099090
:105890000A900590069001900290039004900120D8
:1058A0008007224908601F20486000211F4881604E
:1058B0001F49C1600021016180214161FEF764FA46
:1058C000002801D0FCF724F801200003079007A965
:1058D0001648FEF7E3FA002801D0FCF719F8134840
:1058E000FEF71BFC002801D0FCF712F80020059001
:1058F000069005A90D48FEF701FA002801D0FCF733
:1059000007F8602001900020029003900490042288
:1059100001A90648FEF77CFB002801D0FBF7F8FF41
:105920000248FEF747FB0BB000BD0000A80C0020AA
:10593000E70300001CB50020009001900E480F49BD
:1059400008602320486000210C4881600C49C16038
:1059500000214161FEF718FA002801D0FBF7D8FFBB
:1059600000200090019069460448FEF7C7F900281E
:1059700001D0FBF7CDFF1CBD00140040E80C002057
:105980000F27000010B5144814490860E1204002B8
:105990004860002111488160C16001610C214161B2
:1059A00000218161C161016200200C494862084602
:1059B000FEF7C4FE002801D0FBF7AAFF07480068E5
:1059C000006810210843054909680860C822044995
:1059D0000248FEF7D5FF10BD00380140BC0A002088
:1059E0008405002010B51448144908604B20C001FC
:1059F0004860002111488160C16001610C21416152
:105A000000218161C161016200200C4948620846A1
:105A1000FEF794FE002801D0FBF77AFF07480068E4
:105A2000006810210843054909680860C822044934
:105A30000248FEF7A5FF10BD00440040440B0020C3
:105A4000A408002010B50122C649142003F036FD39
:105A500080E10120C44908740846C068C3498842EF
:105A600004D30020C049C860087478E1BE49C86802
:105A70007D21C900FAF73EFB002902D1BCA002F04B
:105A80000FFBC3A1C348FAF7B3FB0028E0D0012203
:105A9000114605200007FCF7FCFE59E1BE480078DE
:105AA000030002F050FB080516485A7B9DC3E5FD34
:105AB00000228021B948FCF7ECFE01221102B74810
:105AC000FCF7E7FE0120B4490870B5A002F0E8FA3F
:105AD000FAE0C0A1AF48FAF78BFB00281DD00122E5
