:020000040800F2
:10000000E0140020D90000080D6800081150000815
:1000100000000000000000000000000000000000E0
:10002000000000000000000000000000B96A0008A5
:10003000000000000000000011680008BD6A000810
:10004000EB000008EB00000869690008EB000008FD
:10005000EB000008EB000008EB000008EB000008D4
:1000600000000000591500086915000879150008FE
:10007000BD120008EB000008EB000008EB000008D0
:10008000EB000008EB000008D96B0008000000003E
:10009000EB000008EB000008EB000008EB00000894
:1000A000EB000008EB000008EB000008CD8800081A
:1000B000D9890008E9510008000000000000000094
:1000C0000448854600F0B8FE004800479DA100089E
:1000D000C046C046E014002004488047044800475A
:1000E000FEE7FEE7FEE7FEE7FEE7FEE7A56B00089A
:1000F000C100000830B50B46014600202022012433
:1001000009E00D46D5409D4205D31D469540491B4B
:100110002546954040191546521E002DF1DC30BD94
:1001200070B500242546002801DA01244042002948
:1001300001DA01254942FFF7DDFFAC4200D0404221
:10014000002C00D0494270BDF0B51FB40646002017
:1001500082B005464024019100901BE0019922469F
:100160000F46304600F09EFC049A059B801A994188
:1001700010D310461946224600F084FC361A8F41EF
:100180000197224601200021009F00F07BFC3818D7
:100190004D4100902046641E0028DFDC019B009842
:1001A0002946324607B0F0BD03460B439B0703D0F8
:1001B00009E008C9121F08C0042AFAD203E00B782C
:1001C0000370401C491C521EF9D27047D2B201E0A4
:1001D0000270401C491EFBD270470022F6E710B5A2
:1001E00013460A4604461946FFF7F0FF204610BDA5
:1001F00030B505462A460B4610781C78521C5B1C0D
:10020000002801D0A042F7D0002C03D0002802D053
:100210006D1CEFE7284630BD10B5044605E00B78AD
:100220000370401C002B00D0491C521EF7D2204600
:1002300010BD10B5002200E0521C835C8C5CA34210
:1002400001D1002BF8D1D8B2E1B2401A10BD03465B
:100250000A780270401C491C002AF9D118467047E0
:1002600070B5104D002800D12868002414E00A461B
:1002700002E09E4203D0521C1378002BF9D1DAB26F
:10028000224307D0002B06D0002C04D0002101709F
:10029000401C04E00446401C0678002EE7D128608C
:1002A000204670BD540200200FB400B58DB00990F7
:1002B0000B9010A900200091C0430A9000200C90E0
:1002C00006480690064807906A4609A80F9900F06C
:1002D00023FC0DB008BC04B018470000390B00081F
:1002E000590B0008FFB50027FF4383B000205C686E
:1002F00001909E681D46A9697F1C0498884700905C
:10030000296A88470028F6D10098401C0CD00320A9
:1003100040028443002E19DD600614D500982B2876
:1003200009D02D280FD103E00020C04307B0F0BD55
:10033000012080020443A9697F1C04988847761E27
:100340000090002E02DD0098302803D00598002888
:1003500025D035E0012040020443A969761E7F1CA8
:10036000049888470090002E03DD782805D058288F
:1003700003D00598002810D022E00598002801D06D
:1003800010281DD1012040028443A969761E7F1CDC
:10039000049888470090102002E0082000E00A201E
:1003A00005900DE0012149020C43059A0199761E42
:1003B000514308180190A9697F1C04988847009050
:1003C000002E05DD0599009800F090FB0028E9DA81
:1003D000E96904988847A00502D40120C043A5E735
:1003E000E00722D1600611D56005019800D5404292
:1003F00029680A1D2A600968220501D5087014E0E1
:10040000220701D5088010E008600EE02868011D71
:1004100029600068210502D50199017005E02107D6
:10042000019901D5018000E0016038467EE770B592
:10043000064608F001FC046805460A220021304601
:1004400000F09CFB2C6070BDF8B502464A40D40F0A
:1004500042004B0052085B089A4202D2024608460C
:1004600011464A0023D0C30D4A00DDB2120EAD1A68
:10047000202D35DA49020126490AF6058A19002C91
:1004800000D0524220214F1B1146B9402A4110187A
:10049000C20D9A4221D0002C17D0012D08DCDA05BC
:1004A000801AD20F8019D207DBB200F0A7FBF8BD8B
:1004B000DA05801A012340001B06C01880185A4232
:1004C0008018CA0F1043490007E04908C2071143CA
:1004D000DA05801A80194008801800F087FBF8BD03
:1004E00061000122511A001BF7E70122D207514097
:1004F000AAE70122D2075040A6E7024670B54A405B
:10050000D30FDB0740002DD04A002AD0010E140E75
:10051000000212020919400A520A8418E501044631
:100520005443000A120A2E045043A4194219200C05
:10053000C543AA18120C0125AD03521C521912040E
:100540007F39240400D0521C104301D44000491EBE
:10055000C2B20C06C0092018401C4008802A02D0F4
:1005600003E0002070BD40084000002900DA0020B0
:10057000184370BD70B502464A40D50F40004A008E
:10058000ED0740085208002814D0002A12D0C40DEC
:10059000D30D41020120C0055202490A520AE41A51
:1005A000091812187D34914201D3641C00E04900FF
:1005B000002C01DA002070BD0023914201D3891A7A
:1005C0000343400849000028F7D100290AD091428E
:1005D00002D10121C90705E0914201D2012101E0C8
:1005E0000121C943E005C018401900F0FFFA70BDB1
:1005F000F0B507460846584087B0C00F0490480041
:100600000E46590040084908BC1A884105D23846B0
:1006100031461E4617460B46024658004008104316
:100620004DD0300D039040055900400D490D059007
:10063000401A0290402873DA18030121000B0905C3
:100640000843019004980092002806D01146019AB0
:1006500049420020904100910190029840210A1ADD
:100660000199009800F00EFA05460C466B4607CB40
:1006700000F029FAC0197141039A0E0D0023D71713
:1006800056401A467A40164344D0049A002A2DD088
:10069000029A012A039A15DC1205C01A914101261B
:1006A0003605001C7141D20F059ED20700930192BE
:1006B00002962A46234600F0E7FA07B0F0BD384616
:1006C0003146FAE71605234A0F46B218C01AB74159
:1006D00001210905001C4F4100187F4111461818DF
:1006E0007941E20F10436D19644113E0E2076D0890
:1006F00015436408C2071443039A01261205C01A61
:1007000091413605001C7141CE074008304349082D
:10071000C01851412A46234600F0A9FACDE7FFE769
:10072000049801224000C117121A00238B4104983B
:100730003146C417381AA141EEE730B40124E4076A
:10074000634030BC54E730B40124E407614030BC5E
:100750004EE700000000E0FFF0B51FB488B00B9931
:100760000998002448400999C00F49004908099197
:10077000C0070B990090490049080B910999089806
:10078000A64608431CD00B990A98084318D009982C
:1007900001244000420D4800410D09982405000342
:1007A000000B204309900B980003000B20430B9093
:1007B00050181C494018002201901446104605E0CC
:1007C000002001460DB0F0BD032801DA034600E029
:1007D00003239C46C11A0AAE0AE05F0008ADED5B38
:1007E0004F00F75B7D430027AA187C41491C5B1E24
:1007F0006145F2DD410004AB5A522104120C0A4358
:10080000240C401C0828DFDB0198029000997046F8
:1008100001910090059B049A0799069800F034FA1C
:10082000D0E700000DFCFFFFF0B50C465C4085B042
:10083000E40FE40703944C00002664085900944632
:10084000490802460296224321D062460A431ED03E
:100850006200570D4A000E032303550D0124024682
:100860002C492405781B1B0B360B401823432643C9
:10087000614600901C46501AB44103D30098401CB6
:10088000009002E0921800985B41002803DA0020F3
:10089000014605B0F0BD0020012109050746864646
:1008A00011E064461D46141BB54106D36546521B34
:1008B000B341744607430C43A646CD074008490898
:1008C000284392185B4105460D43EAD11046184370
:1008D00013D06046194650407140084306D0604628
:1008E000101AB34106D20122002306E000220123A0
:1008F000DB0702E00122D243531000987446010541
:10090000381C6141029C039D0019694100F0AFF958
:10091000BFE70000FD030000C217C10F504010B533
:100920004018CA079623002100F068F910BD10B5E1
:1009300000229623114600F061F910BD0EB505495D
:100940000291002100910A460B46019100F09CF9AA
:1009500003B000BD33040000C20F41004002012378
:10096000400ADB05D207090EC0187F2901DA0020F2
:100970007047962903DC9623591AC84001E096393E
:100980008840002AF4D040427047410040020122D2
:10099000400AD205090E80187F2901DA002070472D
:1009A000962903DC9622511AC84070479639884030
:1009B0007047000070B5CD0F4A0009030123090BF1
:1009C0001B0519430B4BED070024520D9A4201DA27
:1009D000002070BD074B34339A4203DC9A1A00F0B2
:1009E00061F802E00449511888402C43F1D040429C
:1009F00070BD0000FF030000CDFBFFFFC20FD20758
:100A0000400040080BD0C10D0723DB01C91840028C
:100A10000905400A1143C2084007114370470020EE
:100A200001467047CB0FDB07490010B54908024665
:100A30000A4307D00A0D07240903E401090B121B1E
:100A4000002A01DC002010BDC900440F0C43C10086
:100A5000E018D205801800F0C9F810BD0122D207B5
:100A6000002800DB101A002900DB511A8142704770
:100A70000122D207002800DB101A002900DB511ADE
:100A80008842704710B5202A04DB0146203A914085
:100A9000002010BD914020239C1A0346E3401943D7
:100AA000904010BD10B5202A04DB0846203AD04003
:100AB000002110BD0B46D340D0402024A21A914003
:100AC0000843194610BD10B5202A06DBCB1708468F
:100AD000203A1041C1170B4306E00B461341D040AA
:100AE0002024A21A91400843194610BD3A2800D28A
:100AF0003038202302469A43412A01D31046373822
:100B0000884201D30020C043704700000268137878
:100B1000511801601846704710B5D1600449516101
:100B20000449116200211161114600F0A5F910BDC0
:100B30000D0B0008650E00084268002A08D0016805
:100B40000B78491C002B03D0521E06C01846704774
:100B50000121C160881E70474268002A0BD0C3681B
:100B60000168002B07D183688B4204D0491E521CB8
:100B700006C0002070470020C0437047F7B5009CB6
:100B80000F4600262578641C002D05D000F066F97C
:100B90000068405DC007F5D12B2D02D02D2D18D057
:100BA000641E39462046029A00F004FB002F04D050
:100BB0003968A14201D100993960710502240029E8
:100BC0000BDA4042002803DD08F036F80460A00785
:100BD000FEBD012080020643E3E70028F8DA08F0B2
:100BE0002BF804600048FEBDFFFFFF7F002904DAF8
:100BF000401C490001D140084000704770B40024F7
:100C0000050C05D11024000402D1002921D01124A3
:100C1000050E01D100020834050F01D10001241D89
:100C2000850F01D18000A41C002801DB4000641C5A
:100C3000002908D020252E1B0D46F540A14000D0EC
:100C400001212943084301061B1B000ADB1D02D5B5
:100C5000002070BC7047DB05181880180029F8DAEE
:100C6000401C4900F5D170BC40084000704710B5E9
:100C7000002B08DA0024401C614192185B411A43A2
:100C800001D14008400010BDF0B51FB482B0054648
:100C90000C0003D0084607F03BFF02E007F038FFE6
:100CA00020300246009021462846FFF7EBFE049BC9
:100CB000059A04460F4618431143084314D01846BA
:100CC00010431BD0009840210A1A18460599FFF7D7
:100CD000E9FE05460E46009A05990498FFF7D2FEF4
:100CE000084305D0012004E02046394607B0F0BD96
:100CF0000020C11705430E432C43374300990E983B
:100D00006305401A7905E40A00220C43FD0A0A3003
:100D100002D500200146E9E70105101969410C9C44
:100D20000D9D00196941FFF7A2FFDFE7F8B5054601
:100D3000480040080C46284304D06000184A400D83
:100D4000904201DD2846F8BD15493539884210DC4E
:100D500088420BDB290D200308432903014305D0FA
:100D6000E00F1049C00741180020F8BD00200146DF
:100D7000F8BD161A4020821B28462146FFF782FE46
:100D800007460091284621463246FFF78BFE3A4639
:100D9000009BFFF76CFF3246FFF774FEF8BD0000C2
:100DA000330400000000F03F4A0009030123090B4F
:100DB0001B0519430A4B10B5520D9A4202DA002066
:100DC000014610BD064B34339A4203DC9A1AFFF7F2
:100DD00069FE10BD034BD218FFF754FE10BD000092
:100DE000FF030000CDFBFFFF10B5002904DB012449
:100DF000E40740428C412146002B04DB1C460123C2
:100E0000DB075242A3418B4200D1824210BD000059
:100E100010B5002904DB0124E40740428C4121463F
:100E2000002B04DB1C460123DB075242A3419942FD
:100E300000D1904210BD0000064C0125064E05E091
:100E4000E36807CC2B430C3C98471034B442F7D3EB
:100E5000FFF73AF924AC000844AC0008004870479A
:100E600020AC000810B50446FFF7F8FF0068005DED
:100E7000C007C00F10BD0000F3B58DB000200A9070
:100E800001200B90002608460C300C460990626940
:100E9000012109989047051E2ED0252D2DD0216ABD
:100EA0008847002818D06269012109989047216A73
:100EB00088470028F7D1411E62690998904700E0F1
:100EC000761CA1690D988847216A88470028F7D1C8
:100ED000E1690D988847DAE7A1690D9888470746C8
:100EE000A84201D1761CD2E7E1690D9888477F1CA2
:100EF00002D10A98002877D04AE1002762693D466E
:100F00003946099890472A280CD16269012109982D
:100F10009047012506E00A214F433F18303FEBD4AC
:100F20001020054362690121099890470146303934
:100F30000A2903D29C498F42DEDCECE7E90600D4A3
:100F40009A4F6C280AD04C2810D0682824D06A28E0
:100F50002ED074280CD07A280AD00DE062690121C5
:100F6000099890476C2823D004211CE020200543D9
:100F70006269012109989047A760656065284FD094
:100F800026DC582839D01ADC452849D012DC25281F
:100F900034D04128B0D143E06269012109989047DB
:100FA000682802D008210D43E6E70120C002DEE7F1
:100FB0000220DCE7462833D047282CD130E05B28DC
:100FC00070D061282CD063286CD0642823D161E0D4
:100FD0006F284FD009DC662822D0672820D06928E6
:100FE00026D06E2817D12EE0CEE070284DD0732881
:100FF0006FD075284ED078280DD154E0A1690D9896
:1010000088470546252800D16CE7E1690D98884797
:101010006D1C00D16DE7BBE00A224CE00A2252E0D1
:10102000012023466A46C0430D99C046C046A4E04D
:101030002846402108436060A807234601D50022C6
:1010400039E000223FE0E80700D020E72068011DDA
:1010500021600068290501D5067018E7290701D528
:10106000068014E7A90703D5F117066041600EE773
:1010700006600CE72846402108436060A807234625
:1010800001D5082217E008221DE0494928460840FA
:10109000606016E02846402108436060A8072346A8
:1010A000BCD5B9E715E02846402108436060A80791
:1010B00007D5234610220120C0430D99C046C046E3
:1010C0005BE0234610220120C0430D99FFF70AF987
:1010D00053E000210C910B460091632802D05B285D
:1010E00008D044E02079C00601D40120A06001208E
:1010F00000903CE062690121099890475E2805D183
:1011000001200C90014662690998904721690029E5
:1011100006D10B4601AA8F00491CD3510829FADBDE
:10112000002835D0216900290ED1C117C90E091830
:101130004A11930001AA9A1849094901411A01204C
:10114000136888400343136062690121099890473E
:101150005D28E5D10C98002808D0002001AB810063
:101160005A58401CD2435A500828F8DB01AB0120E2
:101170002246C0430D99C046C04600280ADA401CEA
:1011800006D10B98002803D00020C0430FB0F0BD5B
:101190000A98FBE7E90702D10A99491C0A91361817
:1011A00000200B9073E60000CCCCCC0CFFFFFF7F3F
:1011B000F1F7FFFFF7B582B0029C00272078641C8E
:1011C00015460197302802D0002D15D015E0207863
:1011D0000127641C782804D0582802D0002D09D09B
:1011E0000BE0002D01D0102D07D10027102520780D
:1011F000641C02E0082500E00A250026009610E0A5
:101200000099012769430818020C294680B27143EE
:1012100000908E183804864201D301200190207876
:10122000641C2946FFF762FC0028E9DA03980028CD
:1012300005D0002F01D0641E00E0029C04600198DC
:10124000002806D007F0F8FC02210160C81E05B096
:10125000F0BD009930040843F9E770B58D180478A3
:10126000401CA207920F01D10278401C231106D125
:101270000378401C03E006780E70401C491C521E87
:10128000F9D1002B15D002780C268A1A3440401C64
:101290000C2C03D0A401121B9B1C08E00478240230
:1012A000121B401CF8E714780C70491C521C5B1E82
:1012B000F9D5A942D3D3002070BD000010B5024873
:1012C00000F028FE10BD00008005002070B5054626
:1012D000AC6A606D50210840002836D1606D012154
:1012E0004902084360652068C068032189020840FC
:1012F000002826D12020005D002822D12068006827
:101300000821084008281CD1206880680421084072
:10131000800800280DD1206840680C21884321688E
:101320004860606DFF2101318843012108436065F9
:1013300007E0606D202108436065A06D012108432E
:10134000A065204600F0DEFD03E0E06C416B28461E
:10135000884770BD70B50546AC6A606D4021084392
:101360006065A06D04210843A065204600F0D1FD12
:1013700070BD70B50446A56A284600F0C9FD70BD71
:1013800038B50446074908480068FEF7B3FE6043D5
:10139000009002E00098401E009000980028F9D1CB
:1013A00038BD000040420F005002002070B50446D6
:1013B0000025206880688007800F012807D12068F9
:1013C0000068C007C00F002801D0012000E0002005
:1013D000002842D12068806821490840002801D1B6
:1013E000012000E00020002809D1606D1021084391
:1013F0006065A06D01210843A065012070BD2068D3
:10140000806801210843216888600120FFF7B8FF48
:1014100001F0DAFB054617E001F0D6FB401B0A2875
:1014200012D920680068C007C00F01214840484019
:10143000002809D1606D102108436065A06D01216D
:101440000843A0650120D9E720680068C007C00FE5
:101450000121484048400028DED00020CEE70000AF
:101460001700008010B50021044800F051FCC8228C
:101470000349024800F05CFF10BD00008005002019
:1014800060020020072906D0082910D009291AD0A7
:101490000A2930D123E0027843799A4203D001230C
:1014A0002022135402E000232022135452E04278F9
:1014B00083799A4203D001232022135402E00023AF
:1014C0002022135446E0C278037A9A4203D00123C3
:1014D0002022135402E00023202213543AE0027920
:1014E000437A9A4203D001232022135402E00023BE
:1014F000202213542EE0027843799A420FD1427889
:1015000083799A420BD18278C3799A4207D1C27803
:10151000037A9A4203D10279437A9A4202D0012394
:1015200020221354027843799A4212D14278837967
:101530009A420ED18278C3799A420AD1C278037A4C
:101540009A4206D10279437A9A4202D1002320229C
:10155000135400BF00BF704710B5024800F0E3FF0E
:1015600010BD0000DC05002010B5024800F0DBFFD4
:1015700010BD00006C0C002010B5024800F0D3FF35
:1015800010BD0000B40C002030B51C25446C2C406C
:101590000125A540046C6560046863608468102CB4
:1015A00004D10468A2600468E16003E00468A160FB
:1015B0000468E26030BD0000F0B593B00022FF2166
:1015C00001310520000701F0F8FA00221021052062
:1015D000000701F0F2FA002201210903BE4801F0E0
:1015E000ECFAFF20F53001F0C5F8012210210520AA
:1015F000000701F0E2FA1920400101F0BBF80022D7
:1016000010210520000701F0D8FA7D20C00001F06C
:10161000B1F806F03BFB02E0642001F0ABF87D235B
:10162000DB00AEA2AEA1B04807F07DFF0028F3D1E9
:1016300002E0642001F09EF87D23DB00A7A2ABA1AD
:10164000A94807F070FF0028F3D103E07D20C00017
:1016500001F090F87D23DB00A0A2A7A1A24807F02B
:1016600062FF0028F2D103E07D20C00001F082F883
:101670007D23DB00A2A2A4A19B4807F054FF002811
:10168000F2D103E07D20C00001F074F87D23DB007F
:1016900092A2A0A1944807F046FF0028F2D102E0F0
:1016A000642001F067F87D23DB009DA29FA18E4896
:1016B00007F039FF0028F3D102E0642001F05AF866
:1016C0007D231B019CA29DA1874807F02CFF0028C9
:1016D000F3D102E0642001F04DF87D231B017FA2CD
:1016E00099A1814807F01FFF0028F3D1994809F01C
:1016F0008FF802E0642001F03DF87D23DB0077A243
:1017000095A1794807F00FFF0028F3D102E064208B
:1017100001F030F87D23DB0070A292A1724807F03F
:1017200002FF0028F3D104E0FF212D319448FEF799
:1017300054FD7D23DB0069A292A16B4807F0F3FE04
:101740000028F1D19748024697A1836B8C4807F097
:10175000CBF99B49088002E0642001F00BF87D235F
:10176000DB0098A28649604807F0DDFE0028F3D12F
:10177000FF212D318248FEF730FD8A486430034650
:10178000143B744A3C3A93A100907D4807F0ACF9B1
:101790008B49088002E0C82000F0ECFF7D23DB00CD
:1017A00094A27749504807F0BEFE0028F3D1FF21EC
:1017B0002D317348FEF711FD7A4AC83291A1704865
:1017C00007F092F97E49088002E0642000F0D2FF21
:1017D0007D23DB0091A26A49434807F0A4FE00285C
:1017E000F3D101209249087092A007F06DF96420AE
:1017F00000F0C0FF05F0C0F800F01CFA012211460D
:101800000520000701F0D9F98F4800F0B3FF08F078
:1018100005FFFF212D318D48FEF7DFFC4D49803952
:10182000C869FFF7EBF804460D464A4980398869D4
:10183000FFF7E4F806460F4646488038406D844975
:101840008978834A5278824B1B780E930F921091BD
:101850001190804880787F4949787E4AD2783D4B04
:10186000803B5B6B07970696099508940A930B9249
:101870000C910D9037488038407A36498039097A82
:10188000344A803AD279334B803B9B790193029260
:10189000039104902F488038407900902D4880387B
:1018A000438E024644326CA1684807F01DF9444952
:1018B000088008460188654803F0C4FF06F0E6F991
:1018C000002201210520000701F077F9642000F0D3
:1018D00051FF13B0F0BD0000000800504F4B000056
:1018E00041540D0A000000003802002041542B43EF
:1018F00047534E0D0A000000415445300D0A0000C8
:10190000524541445900000041542B4350494E3F39
:101910000D0A000041542B51434349440D0A000075
:101920002B43474154543A203100000041542B438B
:10193000474154543F0D0A00302C310041542B4391
:101940005245473F0D0A000041542B514C54533D22
:10195000320D0A00A010002041542B4353510D0AB0
:101960000000000041542B514D544346473D227125
:101970006D7470696E67222C302C33300D0A0000B4
:10198000C80D002041542B514D544346473D22720F
:101990006563762F6D6F6465222C302C302C310DF1
:1019A0000A0000003801002041542B514D544F5083
:1019B000454E3D302C222573222C25640D0A000053
:1019C000340200202B514D544F50454E3A20302CBC
:1019D0003000000041542B514D54434F4E4E3D308A
:1019E0002C222573222C222573222C222573220DD2
:1019F0000A0000002B514D54434F4E4E3A20302CDC
:101A0000302C300041542B514D545355423D302C15
:101A1000312C222573222C300D0A00002B514D54FD
:101A20005355423A20302C312C302C30000000002D
:101A3000340100204543323020496E6974204669E4
:101A40006E6973680D0A000088130000F40E002010
:101A5000FC0C00202001002042352C25732C25642D
:101A60002C25642C25642C25642C25642C25642CC1
:101A7000252E32662C252E32662C25642C25642FCB
:101A800025642F25642D25643A25643A25642C2588
:101A90006400000072B600BFFEE700000020394974
:101AA0008969FF2201321140914208D136494969C2
:101AB00002221143344A5161FF2101310843314967
:101AC0008969012252021140914208D12E49496987
:101AD000012211432C4A516101214902084329493D
:101AE0008969012292021140914208D1264949692F
:101AF00008221143244A51610121890208432149E6
:101B000089690122D2021140914208D11E494969D6
:101B1000042211431C4A51610121C9020843194999
:101B20008969012252031140914208D1164949693D
:101B300010221143144A51610121490308431149FC
:101B40008969012252041140914207D10E49496925
:101B5000202211430C4A5161202108430949896917
:101B6000012212041140914208D1074949694022DB
:101B70001143054A51610121090408430149886163
:101B80007047000000200240C410002070B50446D9
:101B900001F01AF805460BE0601C002808D0002C64
:101BA00004D001F011F8401BA04201D9032070BD00
:101BB0001F488069C007C00F0028EDD11C4880690C
:101BC00002210840022801D119498861184880691A
:101BD000FF2101310840884223D01548806949001F
:101BE000084088421DD01248806949000840884258
:101BF00017D00F48806949000840884211D00C482E
:101C000080698900084088420BD009488069090131
:101C10000840884205D0064880694910084088423B
:101C200003D1FFF73BFF0120C1E70020BFE7000021
:101C30000020024010B52F480078012858D100201C
:101C40002C490870002451E000202B4908802B49C2
:101C50000860401E2A490880002031E081000919EF
:101C60008900284A5158254A12688918234A116068
:101C7000810009198900234A51581F4A128891424C
:101C800002D21D49098804E08100091989001D4A12
:101C90005158194A1180810009198900194A51586F
:101CA000174A1288914202D91549098804E0810037
:101CB00009198900134A5158114A1180411C88B2F0
:101CC0003228CBDB0D4909680B4A1288891A0C4A65
:101CD0001288881A3021FEF70DFA0B49484300019B
:101CE000000C6100094A5052601CC4B2042CABDBEA
:101CF00010BD0000FC000020FE00002004010020B8
:101D00000001002060020020E40C00000801002017
:101D1000F8B5044600250026002700BF5020005DCE
:101D2000012801D10220F8BD01215020015500BF3A
:101D3000206880688007800F012806D1206800682D
:101D40000840002801D0012000E00020002849D1EF
:101D5000606DFF21013188430221084360652068DE
:101D6000C0688707BF0F2068C068800880002168AE
:101D7000C860206880680121C9070843216888601D
:101D800000F022FF064619E000F01EFF801B0A2823
:101D900014D920688068C00FC0070121C907884294
:101DA0000CD1606D0221884310210843606500BF9B
:101DB00000215020015500BF0120B4E72068806851
:101DC000C00FC0070121C9078842DDD02068C06864
:101DD00038432168C860606D0221884301210843AF
:101DE000606504E0606D202108436065012500BF47
:101DF00000215020015500BF284694E770B50446E5
:101E00000D4600BF5020005D012801D1022070BDA9
:101E100001215020015500BF20688068042108403E
:101E2000800800280AD0606D20210843606500BF4B
:101E300000215020015500BF0120E8E72D496868C6
:101E4000884229D02068806A29684903490B0843E1
:101E50002168886228684003400B27490840012117
:101E60008904884208D125488068490108432349EC
:101E700088600A20FFF784FA28684003400B204955
:101E800008400121490488422CD11C48806849013E
:101E900008431A49886025E02068806A2968490358
:101EA000490B88432168886228684003400B124927
:101EB000084001218904884205D110488068490101
:101EC00088430E49886028684003400B0C4908404D
:101ED00001214904884205D10848806849018843A6
:101EE0000649886000BF00215020015500BF002036
:101EF0008DE70000011000000000044800270140A9
:101F0000000002440121014A11707047FC000020CA
:101F10007047704770B504462068056820684668B9
:101F200004202840042802D13040042806D008208C
:101F30002840082840D1304008283DD1606D10214C
:101F40000840002803D1606D49010843606520689E
:101F5000C068032189020840002824D12020005DA8
:101F6000002820D10820284008281CD1206880683B
:101F700004210840800800280DD1206840680C2109
:101F8000884321684860606DFF2101318843012149
:101F90000843606507E0606D202108436065A06D1F
:101FA00001210843A0652046FFF7ACFFA069012886
:101FB00002D00C20216808608020284080280DD1A4
:101FC000304080280AD1606D012109040843606512
:101FD000204600F03FF9802021680860102028404A
:101FE000102818D13040102815D1206B002805D0BA
:101FF0002068C068C007C00F002809D0A06D02216A
:102000000843A0651020216808602046FFF781FF83
:1020100010202168086070BD10B50446002C01D165
:10202000012010BD606D002806D1A0650021502060
:102030000155204600F010F9606D1021084010286D
:1020400006D02068806804210840800800280AD053
:10205000606D10210843606500BF002150200155CC
:1020600000BF0120DDE7606DFF21013188430221BF
:1020700008436065206880688007800F012807D1C9
:1020800020680068C007C00F002801D0012000E0D0
:10209000002000283AD100BF0321890760688842E8
:1020A00007D049426068884203D04900606888428E
:1020B0000CD12068006980008008216808612068D0
:1020C0000069616808432168086112E020680069BE
:1020D00080008008216808615C4880680F218904BD
:1020E00088435A49886008468068616808435749B0
:1020F000886000BF2068C068182188432168C860D4
:102100002068C068A16808432168C8604F4880689B
:102110000121490688434D49886008468068A18EA0
:1021200049060843494988602068806801210907F9
:102130000840002804D1206880680843216888602E
:102140002068C068424908402168C8602169E06889
:10215000022901D1042100E0002108432021095D6A
:10216000490308432C21095D49000843216B0843BA
:10217000A16989030843E169C90308432168C96863
:1021800008432168C860FF21C231606A884207D0D5
:10219000A16A606A08432168C96808432168C86069
:1021A0002120005D012813D12020005D002807D1E7
:1021B0002068C0680121090408432168C86007E05D
:1021C000606D202108436065A06D01210843A06572
:1021D000E06B012817D120680069FF21890088433E
:1021E00021680861216C606C0843A16C0843216878
:1021F00009690843216808612068006901210843D2
:10220000216808610BE020680069C007C00F002842
:1022100005D02068006940084000216808612068F6
:102220004069C008C0002168486120684069A16B0E
:102230000843216848610020A065606D0221884341
:102240000121084360650020EBE600000027014003
:102250001902FEFF7047000010B586B00446142135
:1022600001A8FDF7BAFF2C492068884252D12B48BB
:10227000406B491508432949486300BF0846C06AB6
:10228000042108432549C8620846C06A0421084061
:10229000009000BF00BF00BF2048C06A0221084371
:1022A0001E49C8620846C06A02210840009000BF6B
:1022B00000BF24200190032002900020039001A978
:1022C000174800F067FB0320019002900020039064
:1022D00001A9144800F05EFB13481449086000206F
:1022E0004860002111488160C1608021016149007E
:1022F0004161C90081612021C1610021016200F0BA
:1023000097F9002801D0FFF7C5FB00BF0748E0643C
:10231000846200BF06B010BD0024014000100240DE
:10232000000800500004005008000240DC050020B6
:10233000F8B504460D46164600272068806804213B
:1023400008408008002847D100BF5020005D0128C8
:1023500001D10220F8BD01215020015500BF2068A5
:10236000C06808432168C860E069012803D020469E
:10237000FFF71CF80746002F2FD1606D1849084061
:10238000FF210131084360650020A06500BF0021E6
:102390005020015500BF1348E16CC8621248E16C3F
:1023A00008631248E16C48631C20216808602068BB
:1023B0004068102108432168486022681146403176
:1023C00033462A46E06C00F087F9206880680421D3
:1023D00008432168886000E002273846BAE7000019
:1023E000FEF1FFFFCD12000873130008551300081B
:1023F000014600222520405C022808D00420C86342
:1024000000BF00232420435400BF01207047086808
:1024100000680E2398430B6818600868006840083D
:1024200040000B6818601C23486C1840012383404F
:10243000086C436001232520435400BF002324205F
:10244000435400BF1046E1E770B50446002525203F
:10245000005D022803D00420E063012520E020680D
:1024600000680E21884321680860206800684008E1
:102470004000216808601C21606C084001218140F7
:10248000206C416001212520015500BF002124203E
:10249000015500BFA06B002802D02046A16B8847E1
:1024A000284670BD10B50446002C01D1012010BD96
:1024B000206800684008400021680860174A2168C9
:1024C000881A1421FDF716FE80006064134808384E
:1024D00020640020216808601C21606C08400121F4
:1024E0008140206C41600D487830806A1C22616C0C
:1024F00011400F228A4090430849783188620020B9
:10250000E06220636063A063E06300212520015541
:1025100000BF2420015500BF0020C8E7080002408A
:102520000146C86B704770B50446206C056820688A
:1025300006681C20616C0140042088402840002867
:102540001DD004203040002819D0206800682021C8
:102550000840002805D120680068042188432168CC
:1025600008601C21606C084004218140206C41609F
:10257000206B00285AD02046216B884756E01C204B
:10258000616C0140022088402840002825D00220AC
:102590003040002821D02068006820210840002811
:1025A00008D1206800680A21884321680860012159
:1025B000252001551C21606C084002218140206CBF
:1025C000416000BF00212420015500BFE06A0028BF
:1025D0002CD02046E16A884728E01C20616C01402D
:1025E000082088402840002820D0082030400028BB
:1025F0001CD0206800680E218843216808601C21D7
:10260000606C084001218140206C41600120E06342
:1026100001212520015500BF00212420015500BFC4
:10262000606B002802D02046616B884770BD0000B7
:1026300070B50446002C01D1012070BD244A2168E8
:10264000881A1421FDF756FD800060642048083880
:102650002064022125200155206805681D48054099
:10266000E168A06808432169084361690843A169DA
:102670000843E1690843216A08430543206805606F
:1026800001218903A068884217D011487830806AF8
:102690001C22616C11400F228A4090430C49783112
:1026A00088621C22616C114060688840084978315A
:1026B000896A08430649783188620020E063012175
:1026C000252001550021242001550020B5E70000F8
:1026D000080002400F80FFFFF8B504460D4616467D
:1026E0001F460020009000BF2420005D012801D17A
:1026F0000220F8BD01212420015500BF2520005DE6
:1027000001282DD10221252001550020E0632068F9
:10271000006840084000216808603B463246294670
:102720002046FEF731FF206B002806D020680068A5
:102730000E210843216808600BE02068006804212E
:10274000884321680860206800680A2108432168DE
:10275000086020680068012108432168086006E0DD
:1027600000BF00212420015500BF022000900098E6
:10277000BFE7000070B5044600F026FA064625467D
:10278000681C002802D0054800782D1800BF00F012
:102790001BFA801BA842FAD370BD00004C02002037
:1027A0000348406801210843014948600020704700
:1027B00000200240F8B504460D461646012700BF2A
:1027C0001548007C012801D10220F8BD01201249E2
:1027D000087400BF1148FFF7D9F90746002F14D13C
:1027E0000D494861022C01D12E6008E0012C01D175
:1027F0002E8004E0002C01D12E7000E00127002F74
:1028000003D10648FFF7C2F9074600BF002002497E
:10281000087400BF3846D8E7C410002050C3000039
:102820000F484068C007C00F002816D000BFEFF364
:102830001080014600BF72B60A48094AD0600A48B3
:10284000D06000BF81F3108800BF10464068C00709
:10285000C00F002801D0012070470020FCE70000D5
:1028600000200240EFCDAB8905040302F0B50B4612
:1028700000210022002479E001258D401D402A46D8
:10288000002A72D03C4D8E08B600AC598D072E0F31
:102890000F25B5402C4005252D07A84201D1002564
:1028A00019E0364DA84201D1012514E0344DA8426B
:1028B00001D102250FE0334DA84201D103250AE0E2
:1028C000314DA84201D1042505E0304DA84201D187
:1028D000052500E006258E07360FB540A5421ED11E
:1028E0002B4D2D6895432A4E356035466D689543CE
:1028F00075603546ED689543F5603546AD6895439E
:10290000B5608D072E0F0F25B5402C461A4D8E0849
:10291000B600AD59A543184E8F08BF00F5510568A4
:102920004F000326BE4035430560CD08AE00054686
:102930002035AD594E07F70E0F26BE40B543CE08E1
:10294000B60007462037BD51C5684F000326BE407C
:10295000B543C560456801268E40B543456085682E
:102960004F000326BE40B5438560491C1D46CD403F
:10297000002D81D1F0BD000008000140000400508E
:1029800000080050000C005000100050001C0050C7
:102990000004014070B502460B46002100240020CF
:1029A000E1E001268E401D6835402C46002C79D090
:1029B0001D79AD07AD0F012D04D01D79AD07AD0F09
:1029C000022D18D190684E000325B5400646AE434F
:1029D00030464E00DD68B5402843906050680125C0
:1029E0008D400646AE43304610265D6835402D09C1
:1029F0008D40284350601D79AD07AD0F032D0BD0DE
:102A0000D0684E000325B5400646AE4330464E0022
:102A10009D68B5402843D0601D79AD07AD0F022DEC
:102A200015D1CD08AE0015462035A8594D07EE0E3C
:102A30000F25B5400646AE4330464E07F60E1D69DB
:102A4000B5402843CD08AD001646203670511068B9
:102A50004E000325B5400646AE4330461D79AD070E
:102A6000AD0F4E00B54028431060032636045D6864
:102A70003540002D76D03F4D6D6B012635433D4EE0
:102A800075633D4D8E08B600A8598D072E0F0F2592
:102A9000B5400646AE43304605252D07AA4202D171
:102AA00000251AE05EE0354DAA4201D1012514E06F
:102AB000334DAA4201D102250FE0324DAA4201D185
:102AC00003250AE0304DAA4201D1042505E02F4D2F
:102AD000AA4201D1052500E006258E07360FB54034
:102AE0002843254D8E08B600A851294DA8680546F3
:102AF000A5432846012636055D683540002D02D0E5
:102B0000054625432846224DA860E8680546A543AA
:102B10002846012676055D683540002D02D0054621
:102B2000254328461A4DE86068680546A5432846AF
:102B3000012676045D683540002D02D00546254308
:102B40002846134D686028680546A5432846012697
:102B500036045D683540002D02D0054625432846E1
:102B60000B4D2860491C1D68CD40002D00D018E792
:102B700070BD000000100240080001400004005039
:102B800000080050000C005000100050001C0050C5
:102B900000040140024613690B40002B01D00120C4
:102BA00000E00020704710B5426913460B401B043B
:102BB0000C4694432343836110BD002A01D08161F8
:102BC00000E0816270470000014800687047000023
:102BD000440200200348006803490978401801496D
:102BE00008607047440200204C02002010B5002409
:102BF000084800684021084306490860032000F0A7
:102C00000BF8002801D0012401E000F02FF8204645
:102C100010BD00000020024070B504461048017845
:102C20007D20C000FDF766FA064631460D48006873
:102C3000FDF760FA054601F0F7F9002801D0012000
:102C400070BD042C07D200222146501E00F04AF825
:102C50000548046001E00120F2E70020F0E70000F1
:102C60004C02002050020020480200200648406B21
:102C700001210843044948630846806B090408435E
:102C80000149886370470000001002400146002996
:102C900015DBCB06DB0E01229A400A4B1A6000BFFF
:102CA00000BF00BFBFF34F8F00BF00BF00BF00BF1A
:102CB00000BF00BFBFF36F8F00BF00BF00BF00BFEA
:102CC0007047000080E100E00146002905DBCB06EB
:102CD000DB0E01229A40024B1A6000BF70470000D1
:102CE00000E100E070B504460D4616462946204630
:102CF00005F04CFF70BD0000034800680121890207
:102D000008430149086070470070004003480068AC
:102D100001214902084301490860704700700040E2
:102D200003480068FF2101310843014908607047EA
:102D30000070004070B5024600201D4D2D68012630
:102D4000760235402B461B4D2D6AEC07E40F002B15
:102D500006D0002C04D0164D2D68B543144E3560B6
:102D6000134D286880088000054615432846104DFD
:102D70002860114D2D69042635430F4E3561012918
:102D800001D130BF02E040BF20BF20BF0A4D2D69F6
:102D90000426B543084E3561002B08D0002C06D020
:102DA000034D2D68012676023543014E356070BD16
:102DB000007000400000014000ED00E0F8B504465E
:102DC000002720212068084020287BD12068084067
:102DD000202800D100BF8B48806B012109070840E3
:102DE000002805D18748806B0843864988630127FE
:102DF00085480068FF2101310840002816D182482B
:102E00000068084380490860FFF7DEFE064606E0DA
:102E1000FFF7DAFE801B642801D90320F8BD7A4849
:102E20000068FF21013108400028F1D0754805688D
:102E3000032109050D4060680840A8420DD0091122
:102E400060680840884208D16E4800680121490442
:102E50000840884201D10120E0E76A48403000691B
:102E60000321090408400546002D3DD06068084054
:102E7000A84239D0202120680840202834D1614858
:102E80004030006903210904884305465D4840300D
:102E900000690121C90408435A49403108610846C4
:102EA00000690121C9048843564940310861084638
:102EB0000561801528408915884215D1FFF784FEE9
:102EC000064608E03DE0FFF77FFE801B4F49884241
:102ED00001D90320A2E74B48403000690121490293
:102EE0000840400A0028EED0202120680840202811
:102EF0001FD100BF00BF0321090460680840884259
:102F00000AD140480068090188430322120561681C
:102F1000114008433B49086000BF3A48403000690F
:102F200003221204616811400843364940310861A8
:102F300000BF012F05D13348806B390788433149E1
:102F400088632078C007C00F002809D02D48403082
:102F5000C06880088000A16808432A494031C860E1
:102F6000022120680840022809D126484030C06864
:102F70000C218843E168084322494031C86004219C
:102F80002068084004280AD11E484030C068032148
:102F900089028843216908431A494031C8600821E1
:102FA0002068084008280AD116484030C06803212C
:102FB000090388436169084312494031C860FF2111
:102FC00001312068084088420AD10E484030C0686C
:102FD000032109048843A16908430A494031C860B4
:102FE00080212068084080280AD106484030C06807
:102FF000032189048843E169084302494031C860DC
:1030000000200BE700100240007000408813000011
:10301000F8B504460E46002C01D10120F8BD8348C6
:103020000068C007C00FB04218D28048006840084E
:10303000400030437D490860FFF7C6FD054607E0C4
:10304000FFF7C2FD401B7A49884201D90320E5E71A
:1030500076480068C007C00FB042F1D10221206855
:103060000840022807D17348C068F0218843A1684E
:1030700008437049C8602078C007C00F00284CD0B2
:103080006068022809D16B480068012149040840A2
:10309000400C002824D10120C0E76068032809D132
:1030A00064480068012149060840400E002817D1F5
:1030B0000120B3E76068012808D15E480068042158
:1030C0000840800800280BD10120A7E75948006874
:1030D000012149020840400A002801D101209DE752
:1030E0005448C06880088000616808435149C8603E
:1030F000FFF76AFD0546606802280FD107E0FFF779
:1031000063FD401B4A49884201D9032086E74948AC
:10311000C0680C2108400828F1D134E06068032819
:103120000FD107E0FFF750FD401B4149884201D90C
:10313000032073E73F48C0680C2108400C28F1D1F8
:1031400021E0606801280FD107E0FFF73DFD401B3B
:103150003749884201D9032060E73648C0680C210E
:1031600008400428F1D10EE007E0FFF72DFD401BD9
:103170002F49884201D9032050E72E48C0680C210E
:1031800008400028F1D129480068C007C00FB042AC
:1031900018D9264800684008400030432349086099
:1031A000FFF712FD054607E0FFF70EFD401B204923
:1031B000884201D9032031E71C480068C007C00FCE
:1031C000B042F1D1042120680840042808D11948F0
:1031D000C068072109028843E16808431549C860AF
:1031E000082120680840082809D11248C068072132
:1031F000C90288432169C90008430E49C86000F02C
:103200004BF80C49C968F022114009090A4A515C7F
:10321000C8400A4908600A480068FFF7FDFC0746F5
:10322000002F01D03846F9E60020F7E600200240E2
:1032300088130000001002407CAB00085002002000
:10324000480200200148006870470000500200203A
:1032500000B5FFF7F7FF0549C968072212021140C0
:10326000090A034A515CC84000BD0000001002403A
:103270008CAB000800B5FFF7E5FF0549C9680722D8
:10328000D2021140C90A034A515CC84000BD000087
:10329000001002408CAB0008F0B585B03548C0681E
:1032A00003900C2103980840002852D0042804D031
:1032B00008280CD00C284BD10BE02E4800681021B8
:1032C0000840002801D02C4D00E02C4D4EE02C4D44
:1032D0004CE00F21890403980840800C29490F5CB9
:1032E0000321890503980840800D441C2148C068CB
:1032F00001210904084000280BD02148394605F077
:103300001EFC2246002301910090FCF71DFF06469B
:103310001CE0184800681021084000280BD016480F
:10332000394605F00CFC2246002301910090FCF781
:103330000BFF06460AE01148394605F000FC22461C
:10334000002301910090FCF7FFFE064635460DE094
:1033500000BF08484068072149030840400B02901D
:103360000298401C01218140CD0300BF00BF2846C8
:1033700005B0F0BD0010024000093D000024F4003B
:1033800000127A0094AB0008FEB50446002C01D16F
:103390000120FEBDFB48C7680C210F40C068012119
:1033A0000904084001902078C007C00F002872D09F
:1033B000082F04D00C2F0FD1019888420CD1F1486E
:1033C0000068012149040840400C002863D060686F
:1033D000002860D10120DCE700BF012109046068FA
:1033E000884205D1E74800680843E649086027E0BD
:1033F00005210904606888420ED1E2480068012175
:1034000089040843DF49086008460068012109046F
:103410000843DC49086013E0DA4800680121090428
:103420008843D8490860084600680121090408401B
:10343000009000BFD348006889008843D1490860E4
:1034400000BF6068002813D0FFF7BEFB054606E00A
:10345000FFF7BAFB401B642801D9032099E7C9484C
:103460000068012149040840400C0028F0D012E017
:10347000FFF7AAFB054606E0FFF7A6FB401B642802
:1034800001D9032085E7BF480068012149040840AD
:10349000400C0028F0D102212068084002286CD19D
:1034A000E66820203040002809D0B6480068202176
:1034B0000843B44908602021304688430646042F5B
:1034C00004D00C2F34D10198002831D1AD480068C8
:1034D000042108408008002803D0002E01D10120DB
:1034E00057E7A84840681F2109028843216909025B
:1034F0000843A449486008460068092188433043CE
:10350000A0490860FFF7C8FE9E49C968F022114033
:1035100009099D4A515CC8409C4908609C48006864
:10352000FFF77AFB0290029800283FD0029830E71C
:10353000002E23D0934800680921884330439149E5
:103540000860FFF741FB054606E0FFF73DFB401B27
:10355000022801D903201CE78A480068042108409A
:1035600080080028F1D0874840681F21090288435D
:103570002169090208438349486017E081480068CF
:10358000400840007F490860FFF71EFB054606E043
:10359000FFF71AFB401B022801D90320F9E67948FE
:1035A00000680421084080080028F1D1102120681B
:1035B0000840102868D1002F37D1724800684901AF
:1035C0000840400A002804D0A069002801D1012049
:1035D000DFE66C484068072149038843216A0843B5
:1035E00068494860084640680002000A217F0906D1
:1035F000084364494860206A400B401C0121814017
:10360000C8036049C968F022114009095E4A515C4B
:10361000C8405E4908605E480068FFF7FDFA029006
:10362000029800284BD00298B3E6A06900282CD05D
:1036300054480068FF210131084352490860FFF7F0
:10364000C3FA054606E0FFF7BFFA401B022801D97E
:1036500003209EE64B480068012149020840400AC9
:103660000028F0D047484068072149038843216A71
:10367000084344494860084640680002000A217F28
:10368000090608433F49486019E03E480068FF21A9
:10369000013188433B490860FFF796FA054606E08A
:1036A000FFF792FA401B022801D9032071E6354842
:1036B0000068012149020840400A0028F0D1082191
:1036C00020680840082839D1606900281BD02D489F
:1036D00040300069012108432A4940310861FFF761
:1036E00073FA054606E0FFF76FFA401B022801D97E
:1036F00003204EE62348403000690221084040087C
:103700000028F0D01AE01F4840300069400840000F
:103710001C4940310861FFF757FA054606E0FFF7FC
:1037200053FA401B022801D9032032E615484030E5
:1037300000690221084040080028F0D104212068D7
:10374000084004287BD1002000900E48806B890639
:103750000840002806D10B48806B0843094988635C
:10376000012000900B480068FF210131084000282B
:1037700020D108480068084306490860FFF724FA8A
:10378000054610E0001002407CAB0008500200200B
:103790004802002000700040FFF716FA401B642822
:1037A00001D90320F5E587480068FF210131084071
:1037B0000028F1D000BFFF210131A068884205D167
:1037C0008148006908438049086130E0A06800280A
:1037D0000DD17D480069FF21013188437A49086194
:1037E0000846006909158843774908611FE00521EB
:1037F0000902A06888420DD173480069012189023D
:1038000008437149086108460069891508436E49F3
:1038100008610CE06C480069FF21013188436A4966
:10382000086108460069091588436749086100BFB7
:10383000A068002815D0FFF7C7F9054608E031E079
:10384000FFF7C2F9401B6149884201D90320A0E576
:103850005D480069012149020840400A0028EFD074
:1038600013E0FFF7B1F9054607E0FFF7ADF9401B9C
:103870005649884201D903208BE55348006901214C
:1038800049020840400A0028EFD10098012808D1D9
:103890004D484038806B0121090788434A49403927
:1038A000886300BF606A00284CD00C2F69D0606A22
:1038B000022848D14448403800680121090688435D
:1038C000414940390860FFF77FF9054606E0FFF7F8
:1038D0007BF9401B022801D903205AE53A484038B9
:1038E0000068012149060840400E0028EFD1E16A36
:1038F000A06A0843216B084333494039C968FD2257
:1039000012049143084330494039C86008460068B2
:103910000121090608432C4940390860FFF754F992
:10392000054606E0FFF750F9401B022801D90320A5
:103930002FE5254840380068012149060840400E1F
:103940000028EFD03CE020484038006801210906FB
:1039500088431D4940390860FFF736F9054606E0FF
:10396000FFF732F9401B022801D9032011E5164860
:1039700040380068012149060840400E0028EFD178
:103980001EE0606A012800D103E50F484038C06896
:1039900001900121090401980840A16A88420DD1D3
:1039A0000F21890401980840E16A884206D1032169
:1039B000890501980840216B884201D00120E8E484
:1039C0000020E6E400700040401002408813000030
:1039D00070B50446002500BF2020005D012801D1FC
:1039E000022070BD01212020015500BF02212120AD
:1039F000015500BFCA2021684862532021684862EF
:103A000000BF20688068012189028843216888609E
:103A10002068806801218903884321688860FFF756
:103A2000D3F8054615E0FFF7CFF8401B7D21C9000C
:103A300088420ED900BFFF202168486200BF0321E1
:103A40002120015500BF00212020015500BF032087
:103A5000C7E72068C0680421084080080028E2D039
:103A600000BFFF202168486200BF012121200155CD
:103A700000BF00212020015500BF0020B1E7000059
:103A8000F8B504460D4616465949096848097D218E
:103A9000C900FCF72FFB7D21C9004843009000BFFF
:103AA0002020005D012801D10220F8BD0121202045
:103AB000015500BF02212120015500BFCA20216805
:103AC000486253202168486200BF20688068012155
:103AD0008902084000281CD000BF0098401E0090BA
:103AE000009800280ED100BFFF202168486200BF67
:103AF00003212120015500BF00212020015500BFD6
:103B00000320D2E72068C06804210840800800280C
:103B1000E3D1206880680121890288432168886098
:103B20002068C06880210840324908432168C86085
:103B30002F49096848097D21C900FCF7DBFA7D217E
:103B4000C9004843009000BF0098401E00900098B4
:103B500000280ED100BFFF202168486200BF03216A
:103B60002120015500BF00212020015500BF032066
:103B70009BE72068C0680421084080080028E3D043
:103B800020688068C008C00021688860206880685C
:103B9000304321688860206845611748006801212A
:103BA0000905084314490860084680680121090591
:103BB000084311498860206880680121890308430F
:103BC0002168886020688068012189020843216893
:103BD000886000BFFF202168486200BF01212120CA
:103BE000015500BF00212020015500BF00205CE7E7
:103BF000500200207FFBFFFF0004014070470000DF
:103C000010B50446012000050F494861206880680E
:103C1000012189030840800B002811D02068C0686A
:103C200009110840800A00280AD02068C068802155
:103C30000840064908432168C8602046FFF7DEFFB8
:103C400001212120015510BD000401407FFBFFFF31
:103C5000F0B506460C461746002530684068124904
:103C600008400546FF2000042840000CE0701F209B
:103C700000022840000A6070A806800EA07007208D
:103C800040032840400B2070002F0BD1E07802F059
:103C90000DFEE070607802F009FE6070A07802F01E
:103CA00005FEA0700020F0BD3FFFFF00F0B5054607
:103CB0000C46174600262868806A606028680069FC
:103CC0004004400CA060286800681249084006467D
:103CD0003F2000043040000C20707F200002304064
:103CE000000A60707006400EA07001208005304010
:103CF000800DE070002F0BD1207802F0D7FD2070EE
:103D0000607802F0D3FD6070A07802F0CFFDA07063
:103D10000020F0BD7F7F7F0070B504460125002C98
:103D200001D1012070BD2120005D002805D10021B6
:103D300020200155204600F055F802212120015590
:103D40002068C068102108400009002840D100BF49
:103D5000CA202168486253202168486200BF20467B
:103D600002F0BEFD0546002D1DD1206880681C496B
:103D7000084021688860216960680843A169084398
:103D8000216889680843216888602168E0680861C3
:103D900020680069218909040843216808612046D8
:103DA00002F0C7FD0546002D0DD12068C06C8008CB
:103DB00080002168C8646169E06908432168C96CB2
:103DC00008432168C86400BFFF202168486200E002
:103DD0000025002D02D10121212001552846A1E70F
:103DE000BFFF8FFF10B504460949206888420ED1F5
:103DF0000848006901218904084306490861002236
:103E000011460220FEF76EFF0220FEF75DFF10BD97
:103E10000028004040100240F8B505460C46174601
:103E20000020009000BF2020405D012801D1022029
:103E3000F8BD01212020415500BF0221212041551C
:103E4000002F09D1607810210840102804D1607833
:103E5000EF2108400A306070002F11D1E07802F0A5
:103E600032FD0304607802F02EFD00020343A078C7
:103E700002F029FD034320784003034300930AE046
:103E8000E0780004617809020843A17808432178AA
:103E900049030843009000BFCA20296848625320A4
:103EA0002968486200BF284602F01AFD0646002E27
:103EB00008D10D490098084029684860284602F05A
:103EC00038FD0646002E02D101212120415500BFB8
:103ED000FF202968486200BF00BF00212020415513
:103EE00000BF3046A4E700003FFFFF00F8B50446DE
:103EF0000D4617460020009000BF2020005D0128DD
:103F000001D10220F8BD01212020015500BF02216E
:103F100021200155002F1BD12068806840210840D6
:103F2000002800D002E00020E87000BF287802F0EE
:103F3000CAFC0304687802F0C6FC00020343A878B8
:103F400002F0C1FC0343E87880050343009314E0CA
:103F50002068806840210840002800D002E000204E
:103F6000E87000BF28780004697809020843A9783E
:103F70000843E97889050843009000BFCA202168FA
:103F8000486253202168486200BF204602F0A8FC26
:103F90000646002E17D11449009808402168086091
:103FA0002068806801218904884321688860296924
:103FB000E8680843216889680843216888602046CA
:103FC00002F0B7FC0646002E02D101212120015546
:103FD00000BFFF202168486200BF00BF00212020F1
:103FE000015500BF30468DE77F7F7F0070B50446E6
:103FF00000250C482168C860FEF7E6FD054608E08C
:10400000FEF7E2FD401B7D21C900884201D9032053
:1040100070BD2068C068202108400028F0D0002032
:10402000F6E700005FFF010070B504462546681EF4
:104030000949884201D901200CE0681E07494861FE
:104040000321081F04F0A2FD002004498861072015
:104050000861002070BD0000FFFFFF0000E000E0ED
:1040600030B502460B4600BF3820805C012801D1E4
:10407000022030BD01253820855400BF022539209B
:104080008554106844681068816870252046A843EC
:10409000044618680443106844600125AD071068A1
:1040A000A8420BD00E4D1068A84207D00D4D1068E5
:1040B000A84203D00C4D1068A84207D180250846BD
:1040C000A8430146586801431068816001253920E2
:1040D000855400BF00253820855400BF0020C8E764
:1040E00000040040000801400014014010B50446DF
:1040F000002C01D1012010BD3920005D002805D120
:10410000002138200155204600F018F802213920FE
:104110000155211D206802F08DFD01213E20015531
:1041200000BF3A2001553B2001553C2001553D2060
:10413000015500BF392001550020DCE710B50446C9
:10414000012189072068884206D10D48806B012132
:1041500008430B49886311E00A49206888420DD161
:104160000748806B202108430549886300221146D7
:104170001220FEF7B7FD1220FEF7A6FD10BD0000CD
:10418000001002400014004001463920405C012824
:1041900001D0012070470223392043540868C068C9
:1041A000012318430B68D86001239B0708689842D5
:1041B0000BD0104B0868984207D00F4B0868984204
:1041C00003D00E4B086898420CD1086880684207FB
:1041D000520F062A0CD008680068012318430B68A8
:1041E000186005E008680068012318430B68186030
:1041F0000020CFE700040040000801400014014007
:10420000F8B504460D460020009000BF3820005D40
:10421000012801D10220F8BD01213820015500BF3D
:10422000022139200155206886687721304688436D
:104230000646FF210902304688430646206886600C
:104240002868502834D00CDC202851D004DC002809
:104250004CD0102852D14AE030284AD040284DD1C5
:104260003AE060282ED0702807D001210903401AB7
:1042700002D0401A42D10DE043E0EB686A68A968B9
:10428000206802F026FD20688668772006432068B3
:10429000866036E0EB686A68A968206802F019FD5C
:1042A000206880680121890308432168886028E02C
:1042B000EA686968206802F0A7FD5021206802F0D2
:1042C00016FD1EE0EA686968206802F0B6FD60210C
:1042D000206802F00CFD14E0EA686968206802F0CA
:1042E00093FD4021206802F002FD0AE000BF00BFFC
:1042F00000BF2968206802F0FAFC02E0012000906B
:1043000000BF00BF01213920015500BF0021382026
:10431000015500BF00987EE710B586B00446142111
:1043200001A8FBF75AFF01218907206888421AD1AA
:1043300000BF0E48C06A022108430C49C862084603
:10434000C06A02210840009000BF00BF0820019011
:10435000022002900020039004900220059001A901
:104360000348FEF717FB06B010BD00000010024026
:1043700000040050F8B504460D461646002700BF5D
:104380003820005D012801D10220F8BD012138202C
:10439000015500BF002E06D0042E1BD0082E33D0AE
:1043A0000C2E62D147E02946206802F0ACFC206860
:1043B0008069082108432168886120688069042198
:1043C00088432168886120688069E968084321681A
:1043D00088614CE02946206802F0B1FC20688069C1
:1043E0000121C90208432168886120688069012190
:1043F000890288432168886120688069E968090228
:1044000008432168886132E02946206802F0B9FC3F
:104410002068C069082108432168C8612068C06914
:10442000042188432168C8612068C069E96808439D
:104430002168C8611BE02946206802F0C1FC2068A1
:10444000C0690121C90208432168C8612068C069A8
:104450000121890288432168C8612068C069E96830
:10446000090208432168C86101E0012700BF00BFBD
:1044700000BF00213820015500BF384685E710B540
:104480000446002C01D1012010BD3920005D002818
:1044900005D1002138200155204600F018F80221EE
:1044A00039200155211D206802F0C4FB01213E2066
:1044B000015500BF3A2001553B2001553C200155D4
:1044C0003D20015500BF392001550020DCE7704731
:1044D00070B504460D46002D02D13A20005D0BE078
:1044E000042D02D13B20005D06E0082D02D13C20C6
:1044F000005D01E03D20005D012801D0012070BD7C
:10450000002D03D102213A2001550EE0042D03D1E4
:1045100002213B20015508E0082D03D102213C2057
:10452000015502E002213D20015501222946206863
:1045300002F0BEFB01218907206888420BD0104998
:104540002068884207D00F492068884203D00E496E
:10455000206888420CD1206880684607760F062EB6
:104560000CD020680068012108432168086005E03C
:104570002068006801210843216808600020BEE728
:1045800000040040000801400014014070477047DB
:10459000F8B50446E56F80200659206880688021C0
:1045A0000840802827D1212D25D100BF04F048FBE9
:1045B0000746012004F056FB20688068802188436C
:1045C00021688860384604F04DFB00BF206F00284A
:1045D0000ED0206FFDF70CFF002809D0206FFDF7EB
:1045E0009FFF202804D11021842001510320F8BD11
:1045F000204603F065FC2068806840210840402880
:1046000027D1222E25D100BF04F01AFB0746012036
:1046100004F028FB20688068402188432168886076
:10462000384604F01FFB00BF606F00280ED0606F9B
:10463000FDF7DEFE002809D0606FFDF771FF20282E
:1046400004D11021842001510320D0E7204603F03B
:10465000DCFB0020CBE7000010B504460A492068C7
:10466000884202D109A004F02FFA0C492068884240
:1046700002D10BA004F028FA0D492068884202D12B
:104680000CA004F021FA10BD004800404C505541E8
:104690005254312D6572726F720D0A00003801405C
:1046A0005553415254312D6572726F720D0A0000DC
:1046B000004400405553415254322D6572726F725E
:1046C0000D0A0000F0B585B004462068C569206871
:1046D000066820688768EF48284003900398002800
:1046E0000FD12020284000280BD020203040002867
:1046F00007D0A06E002802D02046A16E884705B0E2
:10470000F0BD039800287DD0F807C00F002803D122
:10471000E14830400028F6D0E807C00F00280DD04F
:10472000FF2001303040002808D0012021680862B5
:104730008420005901210843842108510220284087
:1047400000280CD0F807C00F002808D002202168EC
:104750000862842000590421084384210851042060
:10476000284000280CD0F807C00F002808D00420EB
:1047700021680862842000590221084384210851DD
:1047800008202840002810D020203040002803D1E5
:10479000F807C00F002808D008202168086284208C
:1047A000005908210843842108510120C0022840F3
:1047B00000280ED0012080063040002809D00120BA
:1047C000C002216808628420005920210843842106
:1047D000085184200059002854D020202840002867
:1047E00009D020203040002805D0A06E002802D03B
:1047F0002046A16E88478420005902902068806876
:10480000402100E03FE00840402804D028210298E1
:104810000840002830D0204603F0F7FA206880686E
:1048200040210840402823D100BF04F009FA01903C
:10483000012004F017FA206880684021884321682D
:104840008860019804F00EFA00BF606F00280BD05A
:104850009248616F8863606FFDF7F6FD002811D004
:10486000606F816B88470DE02046FFF7F5FE09E099
:104870002046FFF7F1FE05E02046FFF7EDFE0021A0
:10488000842001513BE7206E01287DD11020284073
:10489000002879D0102030400028FAD0102021685C
:1048A00008622068806840210840402873D1606F0A
:1048B0000068406880B20190019800286AD05820B2
:1048C000015B0198814265DD5A2101980853606FB0
:1048D000006800682021084000284CD100BF04F087
:1048E000AFF90090012004F0BDF920680068FF21B5
:1048F0000131884321680860009804F0B3F900BFD3
:1049000000BF04F09DF90090012004F0ABF920688D
:1049100080684008400021688860009804F0A2F98F
:1049200000BF00BF04F08CF90090012004F09AF958
:10493000206880684021884321688860009804F0DE
:1049400091F900BF2021802001510020206600BF86
:1049500004F076F90090012004F084F920680068E2
:104960001021884321680860009804F07BF900BF9B
:10497000606FFDF73DFD022060665820025B5A2003
:10498000005B101A81B202E054E004E002E020462D
:10499000FFF7FCFDB3E65820015B5A20005B081AC4
:1049A00080B201905A20005B002842D00198002874
:1049B0003FD000BF04F044F90090012004F052F908
:1049C00020680068FF212131884321680860009831
:1049D00004F048F900BF00BF04F032F90090012054
:1049E00004F040F920688068400840002168886031
:1049F000009804F037F900BF2021802001510020E9
:104A00002066A06600BF04F01BF90090012004F0AE
:104A100029F92068006810218843216808600098FF
:104A200004F020F900BF0220606620460199FFF7DC
:104A3000ADFD64E601200005284000280CD00120CF
:104A400080053840002807D0012000052168086251
:104A50002046FFF79CFD52E68020284000280AD01F
:104A600080203040002806D0E06E002802D020468A
:104A7000E16E884743E640202840002807D04020C8
:104A80003040002803D0204603F0FFF937E600BF8E
:104A900035E600000F08000020010004A97C000892
:104AA00010B50446002C01D1012010BDA0690028DA
:104AB00000D000E000BFE06F002805D10021782081
:104AC0000155204600F07AF82420E067206800684D
:104AD0004008400021680860204603F0C9FB012817
:104AE00000D1E2E7606A002802D0204602F0D6FF3B
:104AF000206840680921C90288432168486020680D
:104B000080682A2188432168886020680068012124
:104B1000084321680860204603F038F8C5E7000024
:104B200010B504462049206888420FD11F48806B89
:104B30000121890488431D498863032189021C4897
:104B4000FDF794FE1D20FEF7A1F82BE0194920681F
:104B5000884211D11548406B0121890388431349CC
:104B60004863C0211248FDF781FE606FFDF79AFC93
:104B70001B20FEF78BF815E00F492068884211D101
:104B80000A48806B012149048843084988630C2145
:104B900005200007FDF76AFE606FFDF783FC1C200F
:104BA000FEF774F810BD00000048004000100240FD
:104BB00000040050003801400044004010B586B0A9
:104BC0000446142101A8FBF708FB654920688842C8
:104BD0002CD16448806B01218904084361498863B2
:104BE00000BF0846C06A022108435E49C862084601
:104BF000C06A02210840009000BF00BF032080026D
:104C000001900220029000200390032004900420D1
:104C1000059001A95448FDF7BDFE002211461D2054
:104C2000FEF760F81D20FEF74FF896E04F49206828
:104C3000884246D14B48406B0121890308434949CA
:104C4000486300BF0846C06A022108434549C8625C
:104C50000846C06A02210840009000BF00BFC02083
:104C60000190022002900020039003200490002075
:104C7000059001A93C48FDF78DFE3D483D4908607F
:104C80000320486000213B488160C16080210161B0
:104C9000002141618161C1610162FDF7C9FC002809
:104CA00001D0FCF7F7FE00BF32486067846200BFA6
:104CB000002211461B20FEF715F81B20FEF704F812
:104CC0004BE02D492068884247D12648806B01215E
:104CD000490408432349886300BF0846C06A01218C
:104CE00008432049C8620846C06AC007C00F009048
:104CF00000BF00BF0C200190022002900020039012
:104D0000032004900420059001A905200007FDF769
:104D100041FE1748283019490860042048600021E6
:104D200016488160C160802101610021416181617B
:104D3000C1610162FDF77CFC002801D0FCF7AAFEEE
:104D400000BF0E486067846200BF002211461C202D
:104D5000FDF7C8FF1C20FDF7B7FF06B010BD00002F
:104D6000004800400010024000040050003801409C
:104D7000300002406C0C002000440040B40C0020C5
:104D8000F8B504460D46164680200059202838D133
:104D9000002D01D0002E01D10120F8BD0121090311
:104DA000A068884208D12069002805D1E807C00F13
:104DB000002801D00120F0E7002020661249206879
:104DC000884218D0206840680121C90508400028A1
:104DD00011D000BF03F034FF0746012003F042FF6B
:104DE0002068006801218906084321680860384668
:104DF00003F038FF00BF32462946204603F0D0FBBF
:104E0000CBE70220C9E7000000480040F8B504469F
:104E10000D46164680200059202838D1002D01D09B
:104E2000002E01D10120F8BD01210903A0688842AC
:104E300008D12069002805D1E807C00F002801D05B
:104E40000120F0E70020206612492068884218D02F
:104E5000206840680121C9050840002811D000BF22
:104E600003F0EEFE0746012003F0FCFE2068006818
:104E700001218906084321680860384603F0F2FEE4
:104E800000BF32462946204603F0F8FBCBE702205C
:104E9000C9E700000048004010B504461B492068DF
:104EA000884231D101221A491A48FFF7AFFF1A4848
:104EB00000880121C9030840002825D11648008830
:104EC000C8281ADA00201549096848621248008883
:104ED000002807D1114800680068012108430F49E4
:104EE000096808600A4801780B4802880088401C5D
:104EF000094B18800A48815406E0074800880121C0
:104F0000C90308430449088010BD00000048004060
:104F100016010020D40A002014010020880D002072
:104F20007C0800207047FFB583B004460D46174645
:104F3000E06F202869D1002D01D0002F02D101207F
:104F400007B0F0BD01210903A068884208D120699B
:104F5000002805D1E807C00F002801D00120EFE7A5
:104F60000021842001512120E067FDF72DFE0190F2
:104F7000502007535220075301210903A06888429B
:104F800005D12069002802D10026029502E02E46B4
:104F90000020029023E00698009000228021204605
:104FA000019B03F0FBFB002803D02020E0670320D7
:104FB000C6E7002E09D102980088C005C00D2168FF
:104FC00088620298801C029003E030782168886231
:104FD000761C5220005B401E81B2522001535220A9
:104FE000005B0028D7D1069800900022402120467F
:104FF000019B03F0D3FB002803D02020E0670320AF
:105000009EE72020E06700209AE7022098E770479B
:1050100002A003F059FD00BFFEE700004861726482
:105020004661756C745F48616E646C657200000067
:1050300070B50825002401F0FBFC13E06006040EA7
:10504000002001F0D3FC142004F0ACFB142004F089
:10505000A9FB012001F0CAFC142004F0A3FB01F01D
:10506000D9FC04432846691ECDB20028E6D101F0E0
:10507000BDFC142004F096FB01F006FD204670BD37
:1050800010B5002001F0ECFC142004F08BFB142080
:1050900004F088FB012001F0A9FC142004F082FB3D
:1050A000002001F0A3FC142004F07CFB10BD70B5BF
:1050B0000446082518E0002001F098FC142004F0B4
:1050C00071FB80212140084601F0CAFC142004F045
:1050D00069FB6006040E142004F064FB012001F05B
:1050E00085FC142004F05EFB2846691ECDB2002822
:1050F000E1D101F07BFC142004F054FB70BD10B52D
:10510000012001F0ADFC142004F04CFB142004F04D
:1051100049FB012001F06AFC142004F043FB00204D
:1051200001F064FC142004F03DFB10BD10B501201B
:1051300001F096FC142004F035FB012001F056FC30
:10514000142004F02FFB002001F08AFC142004F04E
:1051500029FB002001F04AFC142004F023FB10BDC1
:1051600010B5002001F042FC142004F01BFB0020CD
:1051700001F076FC142004F015FB012001F036FC50
:10518000142004F00FFB012001F06AFC142004F04D
:1051900009FB10BD10B5052401F04AFC142004F0F1
:1051A00001FB012001F022FC142004F0FBFA0CE0CA
:1051B000601E84B2142004F0F5FA002C05D101F031
:1051C00063FCFFF7CDFF012010BD01F023FC002898
:1051D000EED101F059FC002001F008FC142004F08D
:1051E000E1FA0020F0E7000010B52748FFF76AFA5F
:1051F00025480068C06908210840C008002809D077
:1052000008202149096808621F480068406A1E4852
:105210000068806A1D480068C06902210840400893
:10522000002809D002201949096808621748006857
:10523000406A16480068806A14480068C069C00760
:10524000C00F012148404840002809D001200F49E3
:10525000096808620D480068406A0C480068806A66
:105260000A480068C069042108408008002809D065
:10527000042006490968086204480068406A034837
:105280000068806A10BD0000D40A00205C0B00207A
:1052900010B50022022105200007FDF78EFC002238
:1052A0000121C9020548FDF788FC0122910203484B
:1052B000FDF783FCC820FDF75DFA10BD0008005023
:1052C00007B56846427800780002111853A003F031
:1052D000FBFB68468078002804D0402806D0802850
:1052E0000CD107E052A003F0EFFB08E057A003F059
:1052F000EBFB04E05CA003F0E7FB00E000BF00BFB5
:105300006846C078C106C90E002928D140110300A3
:1053100003F02DFC0805090D1115191D212559A0B3
:1053200003F0D2FB1CE05BA003F0CEFB18E05DA015
:1053300003F0CAFB14E05FA003F0C6FB10E061A01D
:1053400003F0C2FB0CE063A003F0BEFB08E065A025
:1053500003F0BAFB04E067A003F0B6FB00E000BF77
:1053600000BF68460079030003F001FC080705064A
:105370000B0F13171B1F00BF00BF62A003F0A4FB9D
:1053800014E064A003F0A0FB10E066A003F09CFB17
:105390000CE068A003F098FB08E066A003F094FB23
:1053A00004E064A003F090FB00E000BF00BF68468B
:1053B000807A002806D0012808D002280AD00328C5
:1053C00010D10BE060A003F07FFB0BE063A003F0C3
:1053D0007BFB07E066A003F077FB03E069A003F026
:1053E00073FB00BF00BF684640790246FF329B3224
:1053F0006846417968A003F067FB68468079002819
:1054000002D0202808D103E06BA003F05DFB03E08D
:105410006DA003F059FB00BF00BF0EBDC4A3BFE9E0
:10542000B5D8D6B73A3078253032580D0A0000008A
:1054300038CAFDBEDDCEBB20CEDED0A3D1E92031FF
:10544000CDA3D6B9CEBB0D0A0000000038CAFDBE00
:10545000DDCEBB20C6E6D0A3D1E92031CDA3D6B99D
:10546000CEBB0D0A0000000038CAFDBEDDCEBB2059
:10547000C5BCD0A3D1E92031CDA3D6B9CEBB0D0A8E
:1054800000000000B2A8CCD8C2CA20313230300DA2
:105490000A000000B2A8CCD8C2CA20323430300D85
:1054A0000A000000B2A8CCD8C2CA20343830300D6F
:1054B0000A000000B2A8CCD8C2CA20393630300D5C
:1054C0000A000000B2A8CCD8C2CA2031393230302C
:1054D0000D0A0000B2A8CCD8C2CA2033383430300C
:1054E0000D0A0000B2A8CCD8C2CA203537363030F9
:1054F0000D0A0000B2A8CCD8C2CA203131353230F2
:10550000300D0A00BFD5D6D0CBD9C2CA20322E3436
:105510004B0D0A00BFD5D6D0CBD9C2CA20342E3805
:105520004B0D0A00BFD5D6D0CBD9C2CA20392E36F2
:105530004B0D0A00BFD5D6D0CBD9C2CA2031392EE7
:10554000324B0D0A00000000B7A2C9E4B9A6C2CAD6
:1055500020333364626D0D0A00000000B7A2C9E475
:10556000B9A6C2CA20333064626D0D0A0000000083
:10557000B7A2C9E4B9A6C2CA20323764626D0D0A67
:1055800000000000B7A2C9E4B9A6C2CA2032346440
:10559000626D0D0A00000000D0C5B5C03A30782514
:1055A0003032582020B6D4D3A6C6B5C2CA25644D21
:1055B000487A0D0A00000000CDB8C3F7B4ABCAE4C6
:1055C000C4A3CABD0D0A0000B6A8B5E3B4ABCAE4D3
:1055D000C4A3CABD0D0A0000F0B593B0FFF758FE92
:1055E00042A003F071FAC820FDF7C4F800F0B8F843
:1055F000C820FDF7BFF800220121C9024048FDF78D
:10560000DCFA0022012189023D48FDF7D6FAC820C4
:10561000FDF7B0F801F0B0F9FCF70CFB01221146E0
:1056200005200007FDF7C9FA3648FDF7A3F804F096
:10563000F5FFFF212D313448FAF7CFFD3349C86912
:10564000FBF7DCF904460D4630498869FBF7D6F9CB
:1056500006460F462D488030008C2D4989782C4A0B
:1056600052782B4B1B780E930F9210911190294872
:10567000807828494978274AD278244B5B6B079772
:105680000696099508940A930B920C910D901F4869
:10569000407A1E49097A1D4AD2791C4B9B790193A5
:1056A0000292039104901948407900901A4840787A
:1056B00019490978090242181448438E17A1124863
:1056C00003F012FA24490880FF23084602880E4995
:1056D0002248FFF728FC0022012105200007FDF7E2
:1056E0006CFA6420FDF746F813B0F0BDD7BCB1B832
:1056F000C9E8D6C34C6F7261C4A3BFE90D0A0000AC
:105700000008005088130000F40E00202010002034
:10571000FC0C0020200100202901002042352C250E
:10572000642C25642C25642C25642C25642C25648C
:105730002C25642C252E32662C252E32662C2564D1
:105740002C25642F25642F25642D25643A25643A81
:1057500025642C256400000034020020E40B0020A6
:105760000EB5C0216846017000214170072181708B
:10577000114801786846C1700F4841786846017148
:10578000002141710C4880780B49C97808430A49C7
:1057900009790143684681710021C1710648417948
:1057A0006846017283214172FF230A226946034839
:1057B000FFF7B9FB0EBD000029010020E40B00201B
:1057C00070B59C250122D1030948FDF7F6F90024A4
:1057D0000AE0204601F0E7F9284603F063F90A20C1
:1057E000FCF7C8FF601CC4B2032CF2DB70BD0000E4
:1057F0000004005010B500241FE0204601F0D3F94A
:10580000002C04D0012C07D0022C0FD109E001F0AC
:1058100001F80B49C8600AE000F0FCFF0849086184
:1058200005E000F0F7FF0649486100E000BF00BF57
:105830000A20FCF79FFF601CC4B2032CDDDB10BD07
:105840002010002070B505460C46FF212D31174869
:10585000FAF7C3FC2346164A16A1144803F044F98C
:1058600002E00120FCF786FF7D231B0119A20F49EE
:10587000194803F058FE0028F3D17D23DB002246AF
:1058800029461648FFF74FFBC82215A119A002F0C0
:105890005DFC002803D11AA003F016F902E01EA057
:1058A00003F012F902F0F2F970BD0000C80D0020FB
:1058B000CE0100202041542B514D545055424558A3
:1058C0003D302C302C302C302C222573222C25649A
:1058D0000D0A00003E00000038020020D40A00201B
:1058E0002B514D5450554245583A20302C302C30D5
:1058F000000000007075626C6973685F41434B0083
:105900007075626C69736820737563636573736621
:10591000756C0D0A000000007075626C6973682078
:105920006661696C0D0A00001CB5002000900190B2
:1059300030483149086000212F48C16301208007A9
:105940002D49486000212C48816006218163012196
:1059500001610021C1600121001D01770021417713
:10596000001F8162FF21C231416201212430017296
:105970000421243841610021016381614163C161D7
:10598000FCF74AFB002801D0FCF784F800211A48F4
:10599000FCF7BEF9002801D0FCF77CF8174800900E
:1059A0004014019069461448FCF728FA002801D0F9
:1059B000FCF770F81248009069460F48FCF71EFA91
:1059C000002801D0FCF766F80E48009069460A48A6
:1059D000FCF714FA002801D0FCF75CF80A480090A4
:1059E00069460548FCF70AFA002801D0FCF752F88E
:1059F0001CBD0000002401408005002000010020A3
:105A000000020024001000300080003C08B500BFF8
:105A10001248006B01210843104908630846006BD7
:105A2000C007C00F009000BF00BF00221146092030
:105A3000FDF758F90920FDF747F9002211460A2021
:105A4000FDF750F90A20FDF73FF9002211460B201F
:105A5000FDF748F90B20FDF737F908BD00100240AB
:105A600000B587B0142102A8FAF7B7FB00BF6D4854
:105A7000C06A042108436B49C8620846C06A042111
:105A80000840019000BF00BF00BF6648C06A802187
:105A900008436449C8620846C06A802108400190F2
:105AA00000BF00BF00BF5F48C06A012108435D49D5
:105AB000C8620846C06AC007C00F019000BF00BF9F
:105AC00000BF0846C06A022108435649C86208461A
:105AD000C06A02210840019000BF00BF00BF5148CA
